{
	"voteSystem/voteSystem.sol": {
		"VoteSystem": {
			"abi": [
				{
					"inputs": [],
					"stateMutability": "nonpayable",
					"type": "constructor"
				},
				{
					"anonymous": false,
					"inputs": [
						{
							"indexed": false,
							"internalType": "string",
							"name": "_title",
							"type": "string"
						},
						{
							"indexed": false,
							"internalType": "string",
							"name": "_body",
							"type": "string"
						}
					],
					"name": "ProposalCreated",
					"type": "event"
				},
				{
					"anonymous": false,
					"inputs": [
						{
							"indexed": false,
							"internalType": "string",
							"name": "body",
							"type": "string"
						},
						{
							"indexed": false,
							"internalType": "uint256",
							"name": "index",
							"type": "uint256"
						}
					],
					"name": "UpdatedProposal",
					"type": "event"
				},
				{
					"anonymous": false,
					"inputs": [
						{
							"indexed": false,
							"internalType": "address",
							"name": "voter",
							"type": "address"
						},
						{
							"indexed": false,
							"internalType": "uint256",
							"name": "proposalIndex",
							"type": "uint256"
						}
					],
					"name": "Voted",
					"type": "event"
				},
				{
					"inputs": [],
					"name": "changeOpeningStatus",
					"outputs": [],
					"stateMutability": "nonpayable",
					"type": "function"
				},
				{
					"inputs": [
						{
							"internalType": "string",
							"name": "_title",
							"type": "string"
						},
						{
							"internalType": "string",
							"name": "_body",
							"type": "string"
						}
					],
					"name": "createProposal",
					"outputs": [],
					"stateMutability": "nonpayable",
					"type": "function"
				},
				{
					"inputs": [],
					"name": "getProposalWinner",
					"outputs": [
						{
							"internalType": "string",
							"name": "",
							"type": "string"
						},
						{
							"internalType": "uint256",
							"name": "voteCount",
							"type": "uint256"
						}
					],
					"stateMutability": "view",
					"type": "function"
				},
				{
					"inputs": [],
					"name": "isOpen",
					"outputs": [
						{
							"internalType": "bool",
							"name": "",
							"type": "bool"
						}
					],
					"stateMutability": "view",
					"type": "function"
				},
				{
					"inputs": [],
					"name": "owner",
					"outputs": [
						{
							"internalType": "address",
							"name": "",
							"type": "address"
						}
					],
					"stateMutability": "view",
					"type": "function"
				},
				{
					"inputs": [
						{
							"internalType": "string",
							"name": "",
							"type": "string"
						}
					],
					"name": "proposalTitles",
					"outputs": [
						{
							"internalType": "bool",
							"name": "",
							"type": "bool"
						}
					],
					"stateMutability": "view",
					"type": "function"
				},
				{
					"inputs": [
						{
							"internalType": "uint256",
							"name": "",
							"type": "uint256"
						}
					],
					"name": "proposals",
					"outputs": [
						{
							"internalType": "string",
							"name": "title",
							"type": "string"
						},
						{
							"internalType": "string",
							"name": "body",
							"type": "string"
						},
						{
							"internalType": "uint256",
							"name": "voteCount",
							"type": "uint256"
						}
					],
					"stateMutability": "view",
					"type": "function"
				},
				{
					"inputs": [
						{
							"internalType": "string",
							"name": "_body",
							"type": "string"
						},
						{
							"internalType": "uint256",
							"name": "_proposalIndex",
							"type": "uint256"
						}
					],
					"name": "updateProposalBody",
					"outputs": [],
					"stateMutability": "nonpayable",
					"type": "function"
				},
				{
					"inputs": [
						{
							"internalType": "uint256",
							"name": "_proposalIndex",
							"type": "uint256"
						}
					],
					"name": "voteProposal",
					"outputs": [],
					"stateMutability": "nonpayable",
					"type": "function"
				},
				{
					"inputs": [
						{
							"internalType": "address",
							"name": "",
							"type": "address"
						}
					],
					"name": "voted",
					"outputs": [
						{
							"internalType": "bool",
							"name": "",
							"type": "bool"
						}
					],
					"stateMutability": "view",
					"type": "function"
				}
			],
			"devdoc": {
				"kind": "dev",
				"methods": {},
				"version": 1
			},
			"evm": {
				"assembly": "    /* \"voteSystem/voteSystem.sol\":62:2677  contract VoteSystem {... */\n  mstore(0x40, 0x80)\n    /* \"voteSystem/voteSystem.sol\":1278:1353  constructor (){... */\n  callvalue\n  dup1\n  iszero\n  tag_1\n  jumpi\n  0x00\n  dup1\n  revert\ntag_1:\n  pop\n    /* \"voteSystem/voteSystem.sol\":1311:1321  msg.sender */\n  caller\n    /* \"voteSystem/voteSystem.sol\":1303:1308  owner */\n  0x00\n  dup1\n    /* \"voteSystem/voteSystem.sol\":1303:1321  owner = msg.sender */\n  0x0100\n  exp\n  dup2\n  sload\n  dup2\n  0xffffffffffffffffffffffffffffffffffffffff\n  mul\n  not\n  and\n  swap1\n  dup4\n  0xffffffffffffffffffffffffffffffffffffffff\n  and\n  mul\n  or\n  swap1\n  sstore\n  pop\n    /* \"voteSystem/voteSystem.sol\":1341:1345  true */\n  0x01\n    /* \"voteSystem/voteSystem.sol\":1332:1338  isOpen */\n  0x00\n  0x14\n    /* \"voteSystem/voteSystem.sol\":1332:1345  isOpen = true */\n  0x0100\n  exp\n  dup2\n  sload\n  dup2\n  0xff\n  mul\n  not\n  and\n  swap1\n  dup4\n  iszero\n  iszero\n  mul\n  or\n  swap1\n  sstore\n  pop\n    /* \"voteSystem/voteSystem.sol\":62:2677  contract VoteSystem {... */\n  dataSize(sub_0)\n  dup1\n  dataOffset(sub_0)\n  0x00\n  codecopy\n  0x00\n  return\nstop\n\nsub_0: assembly {\n        /* \"voteSystem/voteSystem.sol\":62:2677  contract VoteSystem {... */\n      mstore(0x40, 0x80)\n      callvalue\n      dup1\n      iszero\n      tag_1\n      jumpi\n      0x00\n      dup1\n      revert\n    tag_1:\n      pop\n      jumpi(tag_2, lt(calldatasize, 0x04))\n      shr(0xe0, calldataload(0x00))\n      dup1\n      0x807896d5\n      gt\n      tag_13\n      jumpi\n      dup1\n      0x807896d5\n      eq\n      tag_8\n      jumpi\n      dup1\n      0x8da5cb5b\n      eq\n      tag_9\n      jumpi\n      dup1\n      0xaec2ccae\n      eq\n      tag_10\n      jumpi\n      dup1\n      0xd8296ee8\n      eq\n      tag_11\n      jumpi\n      dup1\n      0xf7504408\n      eq\n      tag_12\n      jumpi\n      jump(tag_2)\n    tag_13:\n      dup1\n      0x013cf08b\n      eq\n      tag_3\n      jumpi\n      dup1\n      0x188d26ca\n      eq\n      tag_4\n      jumpi\n      dup1\n      0x2f229ad6\n      eq\n      tag_5\n      jumpi\n      dup1\n      0x47535d7b\n      eq\n      tag_6\n      jumpi\n      dup1\n      0x65e481e2\n      eq\n      tag_7\n      jumpi\n    tag_2:\n      0x00\n      dup1\n      revert\n        /* \"voteSystem/voteSystem.sol\":265:292  Proposal[] public proposals */\n    tag_3:\n      tag_14\n      0x04\n      dup1\n      calldatasize\n      sub\n      dup2\n      add\n      swap1\n      tag_15\n      swap2\n      swap1\n      tag_16\n      jump\t// in\n    tag_15:\n      tag_17\n      jump\t// in\n    tag_14:\n      mload(0x40)\n      tag_18\n      swap4\n      swap3\n      swap2\n      swap1\n      tag_19\n      jump\t// in\n    tag_18:\n      mload(0x40)\n      dup1\n      swap2\n      sub\n      swap1\n      return\n        /* \"voteSystem/voteSystem.sol\":1626:1863  function updateProposalBody (string memory _body, uint256 _proposalIndex) public OnlyOwner CheckProposalIndex(_proposalIndex) {... */\n    tag_4:\n      tag_20\n      0x04\n      dup1\n      calldatasize\n      sub\n      dup2\n      add\n      swap1\n      tag_21\n      swap2\n      swap1\n      tag_22\n      jump\t// in\n    tag_21:\n      tag_23\n      jump\t// in\n    tag_20:\n      stop\n        /* \"voteSystem/voteSystem.sol\":2142:2582  function getProposalWinner () public view returns(string memory, uint256 voteCount){... */\n    tag_5:\n      tag_24\n      tag_25\n      jump\t// in\n    tag_24:\n      mload(0x40)\n      tag_26\n      swap3\n      swap2\n      swap1\n      tag_27\n      jump\t// in\n    tag_26:\n      mload(0x40)\n      dup1\n      swap2\n      sub\n      swap1\n      return\n        /* \"voteSystem/voteSystem.sol\":133:151  bool public isOpen */\n    tag_6:\n      tag_28\n      tag_29\n      jump\t// in\n    tag_28:\n      mload(0x40)\n      tag_30\n      swap2\n      swap1\n      tag_31\n      jump\t// in\n    tag_30:\n      mload(0x40)\n      dup1\n      swap2\n      sub\n      swap1\n      return\n        /* \"voteSystem/voteSystem.sol\":1361:1618  function createProposal (string memory _title, string memory _body) public OnlyOwner TitleAvailable (_title) {... */\n    tag_7:\n      tag_32\n      0x04\n      dup1\n      calldatasize\n      sub\n      dup2\n      add\n      swap1\n      tag_33\n      swap2\n      swap1\n      tag_34\n      jump\t// in\n    tag_33:\n      tag_35\n      jump\t// in\n    tag_32:\n      stop\n        /* \"voteSystem/voteSystem.sol\":1871:2134  function voteProposal (uint256 _proposalIndex) public CheckAddressVoted VotingIsOpen CheckProposalIndex(_proposalIndex) {... */\n    tag_8:\n      tag_36\n      0x04\n      dup1\n      calldatasize\n      sub\n      dup2\n      add\n      swap1\n      tag_37\n      swap2\n      swap1\n      tag_16\n      jump\t// in\n    tag_37:\n      tag_38\n      jump\t// in\n    tag_36:\n      stop\n        /* \"voteSystem/voteSystem.sol\":106:126  address public owner */\n    tag_9:\n      tag_39\n      tag_40\n      jump\t// in\n    tag_39:\n      mload(0x40)\n      tag_41\n      swap2\n      swap1\n      tag_42\n      jump\t// in\n    tag_41:\n      mload(0x40)\n      dup1\n      swap2\n      sub\n      swap1\n      return\n        /* \"voteSystem/voteSystem.sol\":301:338  mapping(address => bool) public voted */\n    tag_10:\n      tag_43\n      0x04\n      dup1\n      calldatasize\n      sub\n      dup2\n      add\n      swap1\n      tag_44\n      swap2\n      swap1\n      tag_45\n      jump\t// in\n    tag_44:\n      tag_46\n      jump\t// in\n    tag_43:\n      mload(0x40)\n      tag_47\n      swap2\n      swap1\n      tag_31\n      jump\t// in\n    tag_47:\n      mload(0x40)\n      dup1\n      swap2\n      sub\n      swap1\n      return\n        /* \"voteSystem/voteSystem.sol\":2590:2674  function changeOpeningStatus () public OnlyOwner {... */\n    tag_11:\n      tag_48\n      tag_49\n      jump\t// in\n    tag_48:\n      stop\n        /* \"voteSystem/voteSystem.sol\":345:390  mapping(string => bool) public proposalTitles */\n    tag_12:\n      tag_50\n      0x04\n      dup1\n      calldatasize\n      sub\n      dup2\n      add\n      swap1\n      tag_51\n      swap2\n      swap1\n      tag_52\n      jump\t// in\n    tag_51:\n      tag_53\n      jump\t// in\n    tag_50:\n      mload(0x40)\n      tag_54\n      swap2\n      swap1\n      tag_31\n      jump\t// in\n    tag_54:\n      mload(0x40)\n      dup1\n      swap2\n      sub\n      swap1\n      return\n        /* \"voteSystem/voteSystem.sol\":265:292  Proposal[] public proposals */\n    tag_17:\n      0x01\n      dup2\n      dup2\n      sload\n      dup2\n      lt\n      tag_55\n      jumpi\n      0x00\n      dup1\n      revert\n    tag_55:\n      swap1\n      0x00\n      mstore\n      keccak256(0x00, 0x20)\n      swap1\n      0x03\n      mul\n      add\n      0x00\n      swap2\n      pop\n      swap1\n      pop\n      dup1\n      0x00\n      add\n      dup1\n      sload\n      tag_57\n      swap1\n      tag_58\n      jump\t// in\n    tag_57:\n      dup1\n      0x1f\n      add\n      0x20\n      dup1\n      swap2\n      div\n      mul\n      0x20\n      add\n      mload(0x40)\n      swap1\n      dup2\n      add\n      0x40\n      mstore\n      dup1\n      swap3\n      swap2\n      swap1\n      dup2\n      dup2\n      mstore\n      0x20\n      add\n      dup3\n      dup1\n      sload\n      tag_59\n      swap1\n      tag_58\n      jump\t// in\n    tag_59:\n      dup1\n      iszero\n      tag_60\n      jumpi\n      dup1\n      0x1f\n      lt\n      tag_61\n      jumpi\n      0x0100\n      dup1\n      dup4\n      sload\n      div\n      mul\n      dup4\n      mstore\n      swap2\n      0x20\n      add\n      swap2\n      jump(tag_60)\n    tag_61:\n      dup3\n      add\n      swap2\n      swap1\n      0x00\n      mstore\n      keccak256(0x00, 0x20)\n      swap1\n    tag_62:\n      dup2\n      sload\n      dup2\n      mstore\n      swap1\n      0x01\n      add\n      swap1\n      0x20\n      add\n      dup1\n      dup4\n      gt\n      tag_62\n      jumpi\n      dup3\n      swap1\n      sub\n      0x1f\n      and\n      dup3\n      add\n      swap2\n    tag_60:\n      pop\n      pop\n      pop\n      pop\n      pop\n      swap1\n      dup1\n      0x01\n      add\n      dup1\n      sload\n      tag_63\n      swap1\n      tag_58\n      jump\t// in\n    tag_63:\n      dup1\n      0x1f\n      add\n      0x20\n      dup1\n      swap2\n      div\n      mul\n      0x20\n      add\n      mload(0x40)\n      swap1\n      dup2\n      add\n      0x40\n      mstore\n      dup1\n      swap3\n      swap2\n      swap1\n      dup2\n      dup2\n      mstore\n      0x20\n      add\n      dup3\n      dup1\n      sload\n      tag_64\n      swap1\n      tag_58\n      jump\t// in\n    tag_64:\n      dup1\n      iszero\n      tag_65\n      jumpi\n      dup1\n      0x1f\n      lt\n      tag_66\n      jumpi\n      0x0100\n      dup1\n      dup4\n      sload\n      div\n      mul\n      dup4\n      mstore\n      swap2\n      0x20\n      add\n      swap2\n      jump(tag_65)\n    tag_66:\n      dup3\n      add\n      swap2\n      swap1\n      0x00\n      mstore\n      keccak256(0x00, 0x20)\n      swap1\n    tag_67:\n      dup2\n      sload\n      dup2\n      mstore\n      swap1\n      0x01\n      add\n      swap1\n      0x20\n      add\n      dup1\n      dup4\n      gt\n      tag_67\n      jumpi\n      dup3\n      swap1\n      sub\n      0x1f\n      and\n      dup3\n      add\n      swap2\n    tag_65:\n      pop\n      pop\n      pop\n      pop\n      pop\n      swap1\n      dup1\n      0x02\n      add\n      sload\n      swap1\n      pop\n      dup4\n      jump\t// out\n        /* \"voteSystem/voteSystem.sol\":1626:1863  function updateProposalBody (string memory _body, uint256 _proposalIndex) public OnlyOwner CheckProposalIndex(_proposalIndex) {... */\n    tag_23:\n        /* \"voteSystem/voteSystem.sol\":471:481  msg.sender */\n      caller\n        /* \"voteSystem/voteSystem.sol\":462:481  owner == msg.sender */\n      0xffffffffffffffffffffffffffffffffffffffff\n      and\n        /* \"voteSystem/voteSystem.sol\":462:467  owner */\n      0x00\n      dup1\n      sload\n      swap1\n      0x0100\n      exp\n      swap1\n      div\n      0xffffffffffffffffffffffffffffffffffffffff\n      and\n        /* \"voteSystem/voteSystem.sol\":462:481  owner == msg.sender */\n      0xffffffffffffffffffffffffffffffffffffffff\n      and\n      eq\n        /* \"voteSystem/voteSystem.sol\":454:521  require(owner == msg.sender, \"Only the owner can send a Proposal.\") */\n      tag_69\n      jumpi\n      mload(0x40)\n      0x08c379a000000000000000000000000000000000000000000000000000000000\n      dup2\n      mstore\n      0x04\n      add\n      tag_70\n      swap1\n      tag_71\n      jump\t// in\n    tag_70:\n      mload(0x40)\n      dup1\n      swap2\n      sub\n      swap1\n      revert\n    tag_69:\n        /* \"voteSystem/voteSystem.sol\":1736:1750  _proposalIndex */\n      dup1\n        /* \"voteSystem/voteSystem.sol\":1000:1009  proposals */\n      0x01\n        /* \"voteSystem/voteSystem.sol\":1000:1016  proposals.length */\n      dup1\n      sload\n      swap1\n      pop\n        /* \"voteSystem/voteSystem.sol\":983:997  _proposalIndex */\n      dup2\n        /* \"voteSystem/voteSystem.sol\":983:1016  _proposalIndex < proposals.length */\n      lt\n        /* \"voteSystem/voteSystem.sol\":975:1043  require(_proposalIndex < proposals.length, \"Invalid proposal index\") */\n      tag_73\n      jumpi\n      mload(0x40)\n      0x08c379a000000000000000000000000000000000000000000000000000000000\n      dup2\n      mstore\n      0x04\n      add\n      tag_74\n      swap1\n      tag_75\n      jump\t// in\n    tag_74:\n      mload(0x40)\n      dup1\n      swap2\n      sub\n      swap1\n      revert\n    tag_73:\n        /* \"voteSystem/voteSystem.sol\":1796:1801  _body */\n      dup3\n        /* \"voteSystem/voteSystem.sol\":1763:1772  proposals */\n      0x01\n        /* \"voteSystem/voteSystem.sol\":1773:1787  _proposalIndex */\n      dup4\n        /* \"voteSystem/voteSystem.sol\":1763:1788  proposals[_proposalIndex] */\n      dup2\n      sload\n      dup2\n      lt\n      tag_77\n      jumpi\n      tag_78\n      tag_79\n      jump\t// in\n    tag_78:\n    tag_77:\n      swap1\n      0x00\n      mstore\n      keccak256(0x00, 0x20)\n      swap1\n      0x03\n      mul\n      add\n        /* \"voteSystem/voteSystem.sol\":1763:1793  proposals[_proposalIndex].body */\n      0x01\n      add\n        /* \"voteSystem/voteSystem.sol\":1763:1801  proposals[_proposalIndex].body = _body */\n      swap1\n      dup2\n      tag_81\n      swap2\n      swap1\n      tag_82\n      jump\t// in\n    tag_81:\n      pop\n        /* \"voteSystem/voteSystem.sol\":1817:1855  UpdatedProposal(_body, _proposalIndex) */\n      0x4aafdc740a4d716c504a2443be69d4fb3fa6202bef5e9142ea04152dfceb44a9\n        /* \"voteSystem/voteSystem.sol\":1833:1838  _body */\n      dup4\n        /* \"voteSystem/voteSystem.sol\":1840:1854  _proposalIndex */\n      dup4\n        /* \"voteSystem/voteSystem.sol\":1817:1855  UpdatedProposal(_body, _proposalIndex) */\n      mload(0x40)\n      tag_83\n      swap3\n      swap2\n      swap1\n      tag_27\n      jump\t// in\n    tag_83:\n      mload(0x40)\n      dup1\n      swap2\n      sub\n      swap1\n      log1\n        /* \"voteSystem/voteSystem.sol\":532:533  _ */\n      pop\n        /* \"voteSystem/voteSystem.sol\":1626:1863  function updateProposalBody (string memory _body, uint256 _proposalIndex) public OnlyOwner CheckProposalIndex(_proposalIndex) {... */\n      pop\n      pop\n      jump\t// out\n        /* \"voteSystem/voteSystem.sol\":2142:2582  function getProposalWinner () public view returns(string memory, uint256 voteCount){... */\n    tag_25:\n        /* \"voteSystem/voteSystem.sol\":2192:2205  string memory */\n      0x60\n        /* \"voteSystem/voteSystem.sol\":2207:2224  uint256 voteCount */\n      0x00\n        /* \"voteSystem/voteSystem.sol\":2236:2257  string memory _winner */\n      dup1\n        /* \"voteSystem/voteSystem.sol\":2236:2266  string memory _winner = \"None\" */\n      mload(0x40)\n      dup1\n      0x40\n      add\n      0x40\n      mstore\n      dup1\n      0x04\n      dup2\n      mstore\n      0x20\n      add\n      0x4e6f6e6500000000000000000000000000000000000000000000000000000000\n      dup2\n      mstore\n      pop\n      swap1\n      pop\n        /* \"voteSystem/voteSystem.sol\":2277:2293  uint256 maxVotes */\n      0x00\n        /* \"voteSystem/voteSystem.sol\":2312:2321  uint256 i */\n      dup1\n        /* \"voteSystem/voteSystem.sol\":2308:2536  for(uint256 i = 0 ; i < proposals.length; i++){... */\n    tag_85:\n        /* \"voteSystem/voteSystem.sol\":2332:2341  proposals */\n      0x01\n        /* \"voteSystem/voteSystem.sol\":2332:2348  proposals.length */\n      dup1\n      sload\n      swap1\n      pop\n        /* \"voteSystem/voteSystem.sol\":2328:2329  i */\n      dup2\n        /* \"voteSystem/voteSystem.sol\":2328:2348  i < proposals.length */\n      lt\n        /* \"voteSystem/voteSystem.sol\":2308:2536  for(uint256 i = 0 ; i < proposals.length; i++){... */\n      iszero\n      tag_86\n      jumpi\n        /* \"voteSystem/voteSystem.sol\":2398:2406  maxVotes */\n      dup2\n        /* \"voteSystem/voteSystem.sol\":2373:2382  proposals */\n      0x01\n        /* \"voteSystem/voteSystem.sol\":2383:2384  i */\n      dup3\n        /* \"voteSystem/voteSystem.sol\":2373:2385  proposals[i] */\n      dup2\n      sload\n      dup2\n      lt\n      tag_88\n      jumpi\n      tag_89\n      tag_79\n      jump\t// in\n    tag_89:\n    tag_88:\n      swap1\n      0x00\n      mstore\n      keccak256(0x00, 0x20)\n      swap1\n      0x03\n      mul\n      add\n        /* \"voteSystem/voteSystem.sol\":2373:2395  proposals[i].voteCount */\n      0x02\n      add\n      sload\n        /* \"voteSystem/voteSystem.sol\":2373:2406  proposals[i].voteCount > maxVotes */\n      gt\n        /* \"voteSystem/voteSystem.sol\":2369:2525  if (proposals[i].voteCount > maxVotes) {... */\n      iszero\n      tag_91\n      jumpi\n        /* \"voteSystem/voteSystem.sol\":2437:2446  proposals */\n      0x01\n        /* \"voteSystem/voteSystem.sol\":2448:2449  i */\n      dup2\n        /* \"voteSystem/voteSystem.sol\":2437:2451  proposals [i ] */\n      dup2\n      sload\n      dup2\n      lt\n      tag_92\n      jumpi\n      tag_93\n      tag_79\n      jump\t// in\n    tag_93:\n    tag_92:\n      swap1\n      0x00\n      mstore\n      keccak256(0x00, 0x20)\n      swap1\n      0x03\n      mul\n      add\n        /* \"voteSystem/voteSystem.sol\":2437:2457  proposals [i ].title */\n      0x00\n      add\n        /* \"voteSystem/voteSystem.sol\":2427:2457  _winner = proposals [i ].title */\n      dup1\n      sload\n      tag_95\n      swap1\n      tag_58\n      jump\t// in\n    tag_95:\n      dup1\n      0x1f\n      add\n      0x20\n      dup1\n      swap2\n      div\n      mul\n      0x20\n      add\n      mload(0x40)\n      swap1\n      dup2\n      add\n      0x40\n      mstore\n      dup1\n      swap3\n      swap2\n      swap1\n      dup2\n      dup2\n      mstore\n      0x20\n      add\n      dup3\n      dup1\n      sload\n      tag_96\n      swap1\n      tag_58\n      jump\t// in\n    tag_96:\n      dup1\n      iszero\n      tag_97\n      jumpi\n      dup1\n      0x1f\n      lt\n      tag_98\n      jumpi\n      0x0100\n      dup1\n      dup4\n      sload\n      div\n      mul\n      dup4\n      mstore\n      swap2\n      0x20\n      add\n      swap2\n      jump(tag_97)\n    tag_98:\n      dup3\n      add\n      swap2\n      swap1\n      0x00\n      mstore\n      keccak256(0x00, 0x20)\n      swap1\n    tag_99:\n      dup2\n      sload\n      dup2\n      mstore\n      swap1\n      0x01\n      add\n      swap1\n      0x20\n      add\n      dup1\n      dup4\n      gt\n      tag_99\n      jumpi\n      dup3\n      swap1\n      sub\n      0x1f\n      and\n      dup3\n      add\n      swap2\n    tag_97:\n      pop\n      pop\n      pop\n      pop\n      pop\n      swap3\n      pop\n        /* \"voteSystem/voteSystem.sol\":2487:2496  proposals */\n      0x01\n        /* \"voteSystem/voteSystem.sol\":2497:2498  i */\n      dup2\n        /* \"voteSystem/voteSystem.sol\":2487:2499  proposals[i] */\n      dup2\n      sload\n      dup2\n      lt\n      tag_100\n      jumpi\n      tag_101\n      tag_79\n      jump\t// in\n    tag_101:\n    tag_100:\n      swap1\n      0x00\n      mstore\n      keccak256(0x00, 0x20)\n      swap1\n      0x03\n      mul\n      add\n        /* \"voteSystem/voteSystem.sol\":2487:2509  proposals[i].voteCount */\n      0x02\n      add\n      sload\n        /* \"voteSystem/voteSystem.sol\":2476:2509  maxVotes = proposals[i].voteCount */\n      swap2\n      pop\n        /* \"voteSystem/voteSystem.sol\":2369:2525  if (proposals[i].voteCount > maxVotes) {... */\n    tag_91:\n        /* \"voteSystem/voteSystem.sol\":2350:2353  i++ */\n      dup1\n      dup1\n      0x01\n      add\n      swap2\n      pop\n      pop\n        /* \"voteSystem/voteSystem.sol\":2308:2536  for(uint256 i = 0 ; i < proposals.length; i++){... */\n      jump(tag_85)\n    tag_86:\n      pop\n        /* \"voteSystem/voteSystem.sol\":2556:2563  _winner */\n      dup2\n        /* \"voteSystem/voteSystem.sol\":2565:2573  maxVotes */\n      dup2\n        /* \"voteSystem/voteSystem.sol\":2548:2574  return (_winner, maxVotes) */\n      swap4\n      pop\n      swap4\n      pop\n      pop\n      pop\n        /* \"voteSystem/voteSystem.sol\":2142:2582  function getProposalWinner () public view returns(string memory, uint256 voteCount){... */\n      swap1\n      swap2\n      jump\t// out\n        /* \"voteSystem/voteSystem.sol\":133:151  bool public isOpen */\n    tag_29:\n      0x00\n      0x14\n      swap1\n      sload\n      swap1\n      0x0100\n      exp\n      swap1\n      div\n      0xff\n      and\n      dup2\n      jump\t// out\n        /* \"voteSystem/voteSystem.sol\":1361:1618  function createProposal (string memory _title, string memory _body) public OnlyOwner TitleAvailable (_title) {... */\n    tag_35:\n        /* \"voteSystem/voteSystem.sol\":471:481  msg.sender */\n      caller\n        /* \"voteSystem/voteSystem.sol\":462:481  owner == msg.sender */\n      0xffffffffffffffffffffffffffffffffffffffff\n      and\n        /* \"voteSystem/voteSystem.sol\":462:467  owner */\n      0x00\n      dup1\n      sload\n      swap1\n      0x0100\n      exp\n      swap1\n      div\n      0xffffffffffffffffffffffffffffffffffffffff\n      and\n        /* \"voteSystem/voteSystem.sol\":462:481  owner == msg.sender */\n      0xffffffffffffffffffffffffffffffffffffffff\n      and\n      eq\n        /* \"voteSystem/voteSystem.sol\":454:521  require(owner == msg.sender, \"Only the owner can send a Proposal.\") */\n      tag_104\n      jumpi\n      mload(0x40)\n      0x08c379a000000000000000000000000000000000000000000000000000000000\n      dup2\n      mstore\n      0x04\n      add\n      tag_105\n      swap1\n      tag_71\n      jump\t// in\n    tag_105:\n      mload(0x40)\n      dup1\n      swap2\n      sub\n      swap1\n      revert\n    tag_104:\n        /* \"voteSystem/voteSystem.sol\":1462:1468  _title */\n      dup2\n        /* \"voteSystem/voteSystem.sol\":616:630  proposalTitles */\n      0x03\n        /* \"voteSystem/voteSystem.sol\":631:637  _title */\n      dup2\n        /* \"voteSystem/voteSystem.sol\":616:638  proposalTitles[_title] */\n      mload(0x40)\n      tag_107\n      swap2\n      swap1\n      tag_108\n      jump\t// in\n    tag_107:\n      swap1\n      dup2\n      mstore\n      0x20\n      add\n      mload(0x40)\n      dup1\n      swap2\n      sub\n      swap1\n      keccak256\n      0x00\n      swap1\n      sload\n      swap1\n      0x0100\n      exp\n      swap1\n      div\n      0xff\n      and\n        /* \"voteSystem/voteSystem.sol\":615:638  !proposalTitles[_title] */\n      iszero\n        /* \"voteSystem/voteSystem.sol\":607:665  require(!proposalTitles[_title], \"The title is unabiable\") */\n      tag_109\n      jumpi\n      mload(0x40)\n      0x08c379a000000000000000000000000000000000000000000000000000000000\n      dup2\n      mstore\n      0x04\n      add\n      tag_110\n      swap1\n      tag_111\n      jump\t// in\n    tag_110:\n      mload(0x40)\n      dup1\n      swap2\n      sub\n      swap1\n      revert\n    tag_109:\n        /* \"voteSystem/voteSystem.sol\":1481:1490  proposals */\n      0x01\n        /* \"voteSystem/voteSystem.sol\":1496:1520  Proposal(_title,_body,0) */\n      mload(0x40)\n      dup1\n      0x60\n      add\n      0x40\n      mstore\n      dup1\n        /* \"voteSystem/voteSystem.sol\":1505:1511  _title */\n      dup6\n        /* \"voteSystem/voteSystem.sol\":1496:1520  Proposal(_title,_body,0) */\n      dup2\n      mstore\n      0x20\n      add\n        /* \"voteSystem/voteSystem.sol\":1512:1517  _body */\n      dup5\n        /* \"voteSystem/voteSystem.sol\":1496:1520  Proposal(_title,_body,0) */\n      dup2\n      mstore\n      0x20\n      add\n        /* \"voteSystem/voteSystem.sol\":1518:1519  0 */\n      0x00\n        /* \"voteSystem/voteSystem.sol\":1496:1520  Proposal(_title,_body,0) */\n      dup2\n      mstore\n      pop\n        /* \"voteSystem/voteSystem.sol\":1481:1521  proposals.push(Proposal(_title,_body,0)) */\n      swap1\n      dup1\n      0x01\n      dup2\n      sload\n      add\n      dup1\n      dup3\n      sstore\n      dup1\n      swap2\n      pop\n      pop\n      0x01\n      swap1\n      sub\n      swap1\n      0x00\n      mstore\n      keccak256(0x00, 0x20)\n      swap1\n      0x03\n      mul\n      add\n      0x00\n      swap1\n      swap2\n      swap1\n      swap2\n      swap1\n      swap2\n      pop\n      0x00\n      dup3\n      add\n      mload\n      dup2\n      0x00\n      add\n      swap1\n      dup2\n      tag_114\n      swap2\n      swap1\n      tag_82\n      jump\t// in\n    tag_114:\n      pop\n      0x20\n      dup3\n      add\n      mload\n      dup2\n      0x01\n      add\n      swap1\n      dup2\n      tag_115\n      swap2\n      swap1\n      tag_82\n      jump\t// in\n    tag_115:\n      pop\n      0x40\n      dup3\n      add\n      mload\n      dup2\n      0x02\n      add\n      sstore\n      pop\n      pop\n        /* \"voteSystem/voteSystem.sol\":1557:1561  true */\n      0x01\n        /* \"voteSystem/voteSystem.sol\":1532:1546  proposalTitles */\n      0x03\n        /* \"voteSystem/voteSystem.sol\":1547:1553  _title */\n      dup5\n        /* \"voteSystem/voteSystem.sol\":1532:1554  proposalTitles[_title] */\n      mload(0x40)\n      tag_116\n      swap2\n      swap1\n      tag_108\n      jump\t// in\n    tag_116:\n      swap1\n      dup2\n      mstore\n      0x20\n      add\n      mload(0x40)\n      dup1\n      swap2\n      sub\n      swap1\n      keccak256\n      0x00\n        /* \"voteSystem/voteSystem.sol\":1532:1561  proposalTitles[_title] = true */\n      0x0100\n      exp\n      dup2\n      sload\n      dup2\n      0xff\n      mul\n      not\n      and\n      swap1\n      dup4\n      iszero\n      iszero\n      mul\n      or\n      swap1\n      sstore\n      pop\n        /* \"voteSystem/voteSystem.sol\":1577:1610  ProposalCreated  (_title , _body) */\n      0x1a51752aa6f33b6ca737e2496a349f112944c0bb58bd54d60d6cf2b57c681b6c\n        /* \"voteSystem/voteSystem.sol\":1595:1601  _title */\n      dup4\n        /* \"voteSystem/voteSystem.sol\":1604:1609  _body */\n      dup4\n        /* \"voteSystem/voteSystem.sol\":1577:1610  ProposalCreated  (_title , _body) */\n      mload(0x40)\n      tag_117\n      swap3\n      swap2\n      swap1\n      tag_118\n      jump\t// in\n    tag_117:\n      mload(0x40)\n      dup1\n      swap2\n      sub\n      swap1\n      log1\n        /* \"voteSystem/voteSystem.sol\":532:533  _ */\n      pop\n        /* \"voteSystem/voteSystem.sol\":1361:1618  function createProposal (string memory _title, string memory _body) public OnlyOwner TitleAvailable (_title) {... */\n      pop\n      pop\n      jump\t// out\n        /* \"voteSystem/voteSystem.sol\":1871:2134  function voteProposal (uint256 _proposalIndex) public CheckAddressVoted VotingIsOpen CheckProposalIndex(_proposalIndex) {... */\n    tag_38:\n        /* \"voteSystem/voteSystem.sol\":742:747  voted */\n      0x02\n        /* \"voteSystem/voteSystem.sol\":742:759  voted[msg.sender] */\n      0x00\n        /* \"voteSystem/voteSystem.sol\":748:758  msg.sender */\n      caller\n        /* \"voteSystem/voteSystem.sol\":742:759  voted[msg.sender] */\n      0xffffffffffffffffffffffffffffffffffffffff\n      and\n      0xffffffffffffffffffffffffffffffffffffffff\n      and\n      dup2\n      mstore\n      0x20\n      add\n      swap1\n      dup2\n      mstore\n      0x20\n      add\n      0x00\n      keccak256\n      0x00\n      swap1\n      sload\n      swap1\n      0x0100\n      exp\n      swap1\n      div\n      0xff\n      and\n        /* \"voteSystem/voteSystem.sol\":741:759  !voted[msg.sender] */\n      iszero\n        /* \"voteSystem/voteSystem.sol\":733:782  require(!voted[msg.sender], \"User already voted\") */\n      tag_120\n      jumpi\n      mload(0x40)\n      0x08c379a000000000000000000000000000000000000000000000000000000000\n      dup2\n      mstore\n      0x04\n      add\n      tag_121\n      swap1\n      tag_122\n      jump\t// in\n    tag_121:\n      mload(0x40)\n      dup1\n      swap2\n      sub\n      swap1\n      revert\n    tag_120:\n        /* \"voteSystem/voteSystem.sol\":853:859  isOpen */\n      0x00\n      0x14\n      swap1\n      sload\n      swap1\n      0x0100\n      exp\n      swap1\n      div\n      0xff\n      and\n        /* \"voteSystem/voteSystem.sol\":845:884  require(isOpen, \"Proposals are closed\") */\n      tag_124\n      jumpi\n      mload(0x40)\n      0x08c379a000000000000000000000000000000000000000000000000000000000\n      dup2\n      mstore\n      0x04\n      add\n      tag_125\n      swap1\n      tag_126\n      jump\t// in\n    tag_125:\n      mload(0x40)\n      dup1\n      swap2\n      sub\n      swap1\n      revert\n    tag_124:\n        /* \"voteSystem/voteSystem.sol\":1975:1989  _proposalIndex */\n      dup1\n        /* \"voteSystem/voteSystem.sol\":1000:1009  proposals */\n      0x01\n        /* \"voteSystem/voteSystem.sol\":1000:1016  proposals.length */\n      dup1\n      sload\n      swap1\n      pop\n        /* \"voteSystem/voteSystem.sol\":983:997  _proposalIndex */\n      dup2\n        /* \"voteSystem/voteSystem.sol\":983:1016  _proposalIndex < proposals.length */\n      lt\n        /* \"voteSystem/voteSystem.sol\":975:1043  require(_proposalIndex < proposals.length, \"Invalid proposal index\") */\n      tag_128\n      jumpi\n      mload(0x40)\n      0x08c379a000000000000000000000000000000000000000000000000000000000\n      dup2\n      mstore\n      0x04\n      add\n      tag_129\n      swap1\n      tag_75\n      jump\t// in\n    tag_129:\n      mload(0x40)\n      dup1\n      swap2\n      sub\n      swap1\n      revert\n    tag_128:\n        /* \"voteSystem/voteSystem.sol\":2041:2042  1 */\n      0x01\n        /* \"voteSystem/voteSystem.sol\":2002:2011  proposals */\n      dup1\n        /* \"voteSystem/voteSystem.sol\":2012:2026  _proposalIndex */\n      dup4\n        /* \"voteSystem/voteSystem.sol\":2002:2027  proposals[_proposalIndex] */\n      dup2\n      sload\n      dup2\n      lt\n      tag_131\n      jumpi\n      tag_132\n      tag_79\n      jump\t// in\n    tag_132:\n    tag_131:\n      swap1\n      0x00\n      mstore\n      keccak256(0x00, 0x20)\n      swap1\n      0x03\n      mul\n      add\n        /* \"voteSystem/voteSystem.sol\":2002:2037  proposals[_proposalIndex].voteCount */\n      0x02\n      add\n      0x00\n        /* \"voteSystem/voteSystem.sol\":2002:2042  proposals[_proposalIndex].voteCount += 1 */\n      dup3\n      dup3\n      sload\n      tag_134\n      swap2\n      swap1\n      tag_135\n      jump\t// in\n    tag_134:\n      swap3\n      pop\n      pop\n      dup2\n      swap1\n      sstore\n      pop\n        /* \"voteSystem/voteSystem.sol\":2073:2077  true */\n      0x01\n        /* \"voteSystem/voteSystem.sol\":2053:2058  voted */\n      0x02\n        /* \"voteSystem/voteSystem.sol\":2053:2070  voted[msg.sender] */\n      0x00\n        /* \"voteSystem/voteSystem.sol\":2059:2069  msg.sender */\n      caller\n        /* \"voteSystem/voteSystem.sol\":2053:2070  voted[msg.sender] */\n      0xffffffffffffffffffffffffffffffffffffffff\n      and\n      0xffffffffffffffffffffffffffffffffffffffff\n      and\n      dup2\n      mstore\n      0x20\n      add\n      swap1\n      dup2\n      mstore\n      0x20\n      add\n      0x00\n      keccak256\n      0x00\n        /* \"voteSystem/voteSystem.sol\":2053:2077  voted[msg.sender] = true */\n      0x0100\n      exp\n      dup2\n      sload\n      dup2\n      0xff\n      mul\n      not\n      and\n      swap1\n      dup4\n      iszero\n      iszero\n      mul\n      or\n      swap1\n      sstore\n      pop\n        /* \"voteSystem/voteSystem.sol\":2093:2126  Voted(msg.sender, _proposalIndex) */\n      0x4d99b957a2bc29a30ebd96a7be8e68fe50a3c701db28a91436490b7d53870ca4\n        /* \"voteSystem/voteSystem.sol\":2099:2109  msg.sender */\n      caller\n        /* \"voteSystem/voteSystem.sol\":2111:2125  _proposalIndex */\n      dup4\n        /* \"voteSystem/voteSystem.sol\":2093:2126  Voted(msg.sender, _proposalIndex) */\n      mload(0x40)\n      tag_136\n      swap3\n      swap2\n      swap1\n      tag_137\n      jump\t// in\n    tag_136:\n      mload(0x40)\n      dup1\n      swap2\n      sub\n      swap1\n      log1\n        /* \"voteSystem/voteSystem.sol\":895:896  _ */\n      pop\n        /* \"voteSystem/voteSystem.sol\":1871:2134  function voteProposal (uint256 _proposalIndex) public CheckAddressVoted VotingIsOpen CheckProposalIndex(_proposalIndex) {... */\n      pop\n      jump\t// out\n        /* \"voteSystem/voteSystem.sol\":106:126  address public owner */\n    tag_40:\n      0x00\n      dup1\n      sload\n      swap1\n      0x0100\n      exp\n      swap1\n      div\n      0xffffffffffffffffffffffffffffffffffffffff\n      and\n      dup2\n      jump\t// out\n        /* \"voteSystem/voteSystem.sol\":301:338  mapping(address => bool) public voted */\n    tag_46:\n      mstore(0x20, 0x02)\n      dup1\n      0x00\n      mstore\n      keccak256(0x00, 0x40)\n      0x00\n      swap2\n      pop\n      sload\n      swap1\n      0x0100\n      exp\n      swap1\n      div\n      0xff\n      and\n      dup2\n      jump\t// out\n        /* \"voteSystem/voteSystem.sol\":2590:2674  function changeOpeningStatus () public OnlyOwner {... */\n    tag_49:\n        /* \"voteSystem/voteSystem.sol\":471:481  msg.sender */\n      caller\n        /* \"voteSystem/voteSystem.sol\":462:481  owner == msg.sender */\n      0xffffffffffffffffffffffffffffffffffffffff\n      and\n        /* \"voteSystem/voteSystem.sol\":462:467  owner */\n      0x00\n      dup1\n      sload\n      swap1\n      0x0100\n      exp\n      swap1\n      div\n      0xffffffffffffffffffffffffffffffffffffffff\n      and\n        /* \"voteSystem/voteSystem.sol\":462:481  owner == msg.sender */\n      0xffffffffffffffffffffffffffffffffffffffff\n      and\n      eq\n        /* \"voteSystem/voteSystem.sol\":454:521  require(owner == msg.sender, \"Only the owner can send a Proposal.\") */\n      tag_139\n      jumpi\n      mload(0x40)\n      0x08c379a000000000000000000000000000000000000000000000000000000000\n      dup2\n      mstore\n      0x04\n      add\n      tag_140\n      swap1\n      tag_71\n      jump\t// in\n    tag_140:\n      mload(0x40)\n      dup1\n      swap2\n      sub\n      swap1\n      revert\n    tag_139:\n        /* \"voteSystem/voteSystem.sol\":2660:2666  isOpen */\n      0x00\n      0x14\n      swap1\n      sload\n      swap1\n      0x0100\n      exp\n      swap1\n      div\n      0xff\n      and\n        /* \"voteSystem/voteSystem.sol\":2659:2666  !isOpen */\n      iszero\n        /* \"voteSystem/voteSystem.sol\":2650:2656  isOpen */\n      0x00\n      0x14\n        /* \"voteSystem/voteSystem.sol\":2650:2666  isOpen = !isOpen */\n      0x0100\n      exp\n      dup2\n      sload\n      dup2\n      0xff\n      mul\n      not\n      and\n      swap1\n      dup4\n      iszero\n      iszero\n      mul\n      or\n      swap1\n      sstore\n      pop\n        /* \"voteSystem/voteSystem.sol\":2590:2674  function changeOpeningStatus () public OnlyOwner {... */\n      jump\t// out\n        /* \"voteSystem/voteSystem.sol\":345:390  mapping(string => bool) public proposalTitles */\n    tag_53:\n      0x03\n      dup2\n      dup1\n      mload\n      0x20\n      dup2\n      add\n      dup3\n      add\n      dup1\n      mload\n      dup5\n      dup3\n      mstore\n      0x20\n      dup4\n      add\n      0x20\n      dup6\n      add\n      keccak256\n      dup2\n      dup4\n      mstore\n      dup1\n      swap6\n      pop\n      pop\n      pop\n      pop\n      pop\n      pop\n      0x00\n      swap2\n      pop\n      sload\n      swap1\n      0x0100\n      exp\n      swap1\n      div\n      0xff\n      and\n      dup2\n      jump\t// out\n        /* \"#utility.yul\":7:82   */\n    tag_142:\n        /* \"#utility.yul\":40:46   */\n      0x00\n        /* \"#utility.yul\":73:75   */\n      0x40\n        /* \"#utility.yul\":67:76   */\n      mload\n        /* \"#utility.yul\":57:76   */\n      swap1\n      pop\n        /* \"#utility.yul\":7:82   */\n      swap1\n      jump\t// out\n        /* \"#utility.yul\":88:205   */\n    tag_143:\n        /* \"#utility.yul\":197:198   */\n      0x00\n        /* \"#utility.yul\":194:195   */\n      dup1\n        /* \"#utility.yul\":187:199   */\n      revert\n        /* \"#utility.yul\":211:328   */\n    tag_144:\n        /* \"#utility.yul\":320:321   */\n      0x00\n        /* \"#utility.yul\":317:318   */\n      dup1\n        /* \"#utility.yul\":310:322   */\n      revert\n        /* \"#utility.yul\":334:411   */\n    tag_145:\n        /* \"#utility.yul\":371:378   */\n      0x00\n        /* \"#utility.yul\":400:405   */\n      dup2\n        /* \"#utility.yul\":389:405   */\n      swap1\n      pop\n        /* \"#utility.yul\":334:411   */\n      swap2\n      swap1\n      pop\n      jump\t// out\n        /* \"#utility.yul\":417:539   */\n    tag_146:\n        /* \"#utility.yul\":490:514   */\n      tag_205\n        /* \"#utility.yul\":508:513   */\n      dup2\n        /* \"#utility.yul\":490:514   */\n      tag_145\n      jump\t// in\n    tag_205:\n        /* \"#utility.yul\":483:488   */\n      dup2\n        /* \"#utility.yul\":480:515   */\n      eq\n        /* \"#utility.yul\":470:533   */\n      tag_206\n      jumpi\n        /* \"#utility.yul\":529:530   */\n      0x00\n        /* \"#utility.yul\":526:527   */\n      dup1\n        /* \"#utility.yul\":519:531   */\n      revert\n        /* \"#utility.yul\":470:533   */\n    tag_206:\n        /* \"#utility.yul\":417:539   */\n      pop\n      jump\t// out\n        /* \"#utility.yul\":545:684   */\n    tag_147:\n        /* \"#utility.yul\":591:596   */\n      0x00\n        /* \"#utility.yul\":629:635   */\n      dup2\n        /* \"#utility.yul\":616:636   */\n      calldataload\n        /* \"#utility.yul\":607:636   */\n      swap1\n      pop\n        /* \"#utility.yul\":645:678   */\n      tag_208\n        /* \"#utility.yul\":672:677   */\n      dup2\n        /* \"#utility.yul\":645:678   */\n      tag_146\n      jump\t// in\n    tag_208:\n        /* \"#utility.yul\":545:684   */\n      swap3\n      swap2\n      pop\n      pop\n      jump\t// out\n        /* \"#utility.yul\":690:1019   */\n    tag_16:\n        /* \"#utility.yul\":749:755   */\n      0x00\n        /* \"#utility.yul\":798:800   */\n      0x20\n        /* \"#utility.yul\":786:795   */\n      dup3\n        /* \"#utility.yul\":777:784   */\n      dup5\n        /* \"#utility.yul\":773:796   */\n      sub\n        /* \"#utility.yul\":769:801   */\n      slt\n        /* \"#utility.yul\":766:885   */\n      iszero\n      tag_210\n      jumpi\n        /* \"#utility.yul\":804:883   */\n      tag_211\n      tag_143\n      jump\t// in\n    tag_211:\n        /* \"#utility.yul\":766:885   */\n    tag_210:\n        /* \"#utility.yul\":924:925   */\n      0x00\n        /* \"#utility.yul\":949:1002   */\n      tag_212\n        /* \"#utility.yul\":994:1001   */\n      dup5\n        /* \"#utility.yul\":985:991   */\n      dup3\n        /* \"#utility.yul\":974:983   */\n      dup6\n        /* \"#utility.yul\":970:992   */\n      add\n        /* \"#utility.yul\":949:1002   */\n      tag_147\n      jump\t// in\n    tag_212:\n        /* \"#utility.yul\":939:1002   */\n      swap2\n      pop\n        /* \"#utility.yul\":895:1012   */\n      pop\n        /* \"#utility.yul\":690:1019   */\n      swap3\n      swap2\n      pop\n      pop\n      jump\t// out\n        /* \"#utility.yul\":1025:1124   */\n    tag_148:\n        /* \"#utility.yul\":1077:1083   */\n      0x00\n        /* \"#utility.yul\":1111:1116   */\n      dup2\n        /* \"#utility.yul\":1105:1117   */\n      mload\n        /* \"#utility.yul\":1095:1117   */\n      swap1\n      pop\n        /* \"#utility.yul\":1025:1124   */\n      swap2\n      swap1\n      pop\n      jump\t// out\n        /* \"#utility.yul\":1130:1299   */\n    tag_149:\n        /* \"#utility.yul\":1214:1225   */\n      0x00\n        /* \"#utility.yul\":1248:1254   */\n      dup3\n        /* \"#utility.yul\":1243:1246   */\n      dup3\n        /* \"#utility.yul\":1236:1255   */\n      mstore\n        /* \"#utility.yul\":1288:1292   */\n      0x20\n        /* \"#utility.yul\":1283:1286   */\n      dup3\n        /* \"#utility.yul\":1279:1293   */\n      add\n        /* \"#utility.yul\":1264:1293   */\n      swap1\n      pop\n        /* \"#utility.yul\":1130:1299   */\n      swap3\n      swap2\n      pop\n      pop\n      jump\t// out\n        /* \"#utility.yul\":1305:1551   */\n    tag_150:\n        /* \"#utility.yul\":1386:1387   */\n      0x00\n        /* \"#utility.yul\":1396:1509   */\n    tag_216:\n        /* \"#utility.yul\":1410:1416   */\n      dup4\n        /* \"#utility.yul\":1407:1408   */\n      dup2\n        /* \"#utility.yul\":1404:1417   */\n      lt\n        /* \"#utility.yul\":1396:1509   */\n      iszero\n      tag_218\n      jumpi\n        /* \"#utility.yul\":1495:1496   */\n      dup1\n        /* \"#utility.yul\":1490:1493   */\n      dup3\n        /* \"#utility.yul\":1486:1497   */\n      add\n        /* \"#utility.yul\":1480:1498   */\n      mload\n        /* \"#utility.yul\":1476:1477   */\n      dup2\n        /* \"#utility.yul\":1471:1474   */\n      dup5\n        /* \"#utility.yul\":1467:1478   */\n      add\n        /* \"#utility.yul\":1460:1499   */\n      mstore\n        /* \"#utility.yul\":1432:1434   */\n      0x20\n        /* \"#utility.yul\":1429:1430   */\n      dup2\n        /* \"#utility.yul\":1425:1435   */\n      add\n        /* \"#utility.yul\":1420:1435   */\n      swap1\n      pop\n        /* \"#utility.yul\":1396:1509   */\n      jump(tag_216)\n    tag_218:\n        /* \"#utility.yul\":1543:1544   */\n      0x00\n        /* \"#utility.yul\":1534:1540   */\n      dup5\n        /* \"#utility.yul\":1529:1532   */\n      dup5\n        /* \"#utility.yul\":1525:1541   */\n      add\n        /* \"#utility.yul\":1518:1545   */\n      mstore\n        /* \"#utility.yul\":1367:1551   */\n      pop\n        /* \"#utility.yul\":1305:1551   */\n      pop\n      pop\n      pop\n      jump\t// out\n        /* \"#utility.yul\":1557:1659   */\n    tag_151:\n        /* \"#utility.yul\":1598:1604   */\n      0x00\n        /* \"#utility.yul\":1649:1651   */\n      0x1f\n        /* \"#utility.yul\":1645:1652   */\n      not\n        /* \"#utility.yul\":1640:1642   */\n      0x1f\n        /* \"#utility.yul\":1633:1638   */\n      dup4\n        /* \"#utility.yul\":1629:1643   */\n      add\n        /* \"#utility.yul\":1625:1653   */\n      and\n        /* \"#utility.yul\":1615:1653   */\n      swap1\n      pop\n        /* \"#utility.yul\":1557:1659   */\n      swap2\n      swap1\n      pop\n      jump\t// out\n        /* \"#utility.yul\":1665:2042   */\n    tag_152:\n        /* \"#utility.yul\":1753:1756   */\n      0x00\n        /* \"#utility.yul\":1781:1820   */\n      tag_221\n        /* \"#utility.yul\":1814:1819   */\n      dup3\n        /* \"#utility.yul\":1781:1820   */\n      tag_148\n      jump\t// in\n    tag_221:\n        /* \"#utility.yul\":1836:1907   */\n      tag_222\n        /* \"#utility.yul\":1900:1906   */\n      dup2\n        /* \"#utility.yul\":1895:1898   */\n      dup6\n        /* \"#utility.yul\":1836:1907   */\n      tag_149\n      jump\t// in\n    tag_222:\n        /* \"#utility.yul\":1829:1907   */\n      swap4\n      pop\n        /* \"#utility.yul\":1916:1981   */\n      tag_223\n        /* \"#utility.yul\":1974:1980   */\n      dup2\n        /* \"#utility.yul\":1969:1972   */\n      dup6\n        /* \"#utility.yul\":1962:1966   */\n      0x20\n        /* \"#utility.yul\":1955:1960   */\n      dup7\n        /* \"#utility.yul\":1951:1967   */\n      add\n        /* \"#utility.yul\":1916:1981   */\n      tag_150\n      jump\t// in\n    tag_223:\n        /* \"#utility.yul\":2006:2035   */\n      tag_224\n        /* \"#utility.yul\":2028:2034   */\n      dup2\n        /* \"#utility.yul\":2006:2035   */\n      tag_151\n      jump\t// in\n    tag_224:\n        /* \"#utility.yul\":2001:2004   */\n      dup5\n        /* \"#utility.yul\":1997:2036   */\n      add\n        /* \"#utility.yul\":1990:2036   */\n      swap2\n      pop\n        /* \"#utility.yul\":1757:2042   */\n      pop\n        /* \"#utility.yul\":1665:2042   */\n      swap3\n      swap2\n      pop\n      pop\n      jump\t// out\n        /* \"#utility.yul\":2048:2166   */\n    tag_153:\n        /* \"#utility.yul\":2135:2159   */\n      tag_226\n        /* \"#utility.yul\":2153:2158   */\n      dup2\n        /* \"#utility.yul\":2135:2159   */\n      tag_145\n      jump\t// in\n    tag_226:\n        /* \"#utility.yul\":2130:2133   */\n      dup3\n        /* \"#utility.yul\":2123:2160   */\n      mstore\n        /* \"#utility.yul\":2048:2166   */\n      pop\n      pop\n      jump\t// out\n        /* \"#utility.yul\":2172:2796   */\n    tag_19:\n        /* \"#utility.yul\":2361:2365   */\n      0x00\n        /* \"#utility.yul\":2399:2401   */\n      0x60\n        /* \"#utility.yul\":2388:2397   */\n      dup3\n        /* \"#utility.yul\":2384:2402   */\n      add\n        /* \"#utility.yul\":2376:2402   */\n      swap1\n      pop\n        /* \"#utility.yul\":2448:2457   */\n      dup2\n        /* \"#utility.yul\":2442:2446   */\n      dup2\n        /* \"#utility.yul\":2438:2458   */\n      sub\n        /* \"#utility.yul\":2434:2435   */\n      0x00\n        /* \"#utility.yul\":2423:2432   */\n      dup4\n        /* \"#utility.yul\":2419:2436   */\n      add\n        /* \"#utility.yul\":2412:2459   */\n      mstore\n        /* \"#utility.yul\":2476:2554   */\n      tag_228\n        /* \"#utility.yul\":2549:2553   */\n      dup2\n        /* \"#utility.yul\":2540:2546   */\n      dup7\n        /* \"#utility.yul\":2476:2554   */\n      tag_152\n      jump\t// in\n    tag_228:\n        /* \"#utility.yul\":2468:2554   */\n      swap1\n      pop\n        /* \"#utility.yul\":2601:2610   */\n      dup2\n        /* \"#utility.yul\":2595:2599   */\n      dup2\n        /* \"#utility.yul\":2591:2611   */\n      sub\n        /* \"#utility.yul\":2586:2588   */\n      0x20\n        /* \"#utility.yul\":2575:2584   */\n      dup4\n        /* \"#utility.yul\":2571:2589   */\n      add\n        /* \"#utility.yul\":2564:2612   */\n      mstore\n        /* \"#utility.yul\":2629:2707   */\n      tag_229\n        /* \"#utility.yul\":2702:2706   */\n      dup2\n        /* \"#utility.yul\":2693:2699   */\n      dup6\n        /* \"#utility.yul\":2629:2707   */\n      tag_152\n      jump\t// in\n    tag_229:\n        /* \"#utility.yul\":2621:2707   */\n      swap1\n      pop\n        /* \"#utility.yul\":2717:2789   */\n      tag_230\n        /* \"#utility.yul\":2785:2787   */\n      0x40\n        /* \"#utility.yul\":2774:2783   */\n      dup4\n        /* \"#utility.yul\":2770:2788   */\n      add\n        /* \"#utility.yul\":2761:2767   */\n      dup5\n        /* \"#utility.yul\":2717:2789   */\n      tag_153\n      jump\t// in\n    tag_230:\n        /* \"#utility.yul\":2172:2796   */\n      swap5\n      swap4\n      pop\n      pop\n      pop\n      pop\n      jump\t// out\n        /* \"#utility.yul\":2802:2919   */\n    tag_154:\n        /* \"#utility.yul\":2911:2912   */\n      0x00\n        /* \"#utility.yul\":2908:2909   */\n      dup1\n        /* \"#utility.yul\":2901:2913   */\n      revert\n        /* \"#utility.yul\":2925:3042   */\n    tag_155:\n        /* \"#utility.yul\":3034:3035   */\n      0x00\n        /* \"#utility.yul\":3031:3032   */\n      dup1\n        /* \"#utility.yul\":3024:3036   */\n      revert\n        /* \"#utility.yul\":3048:3228   */\n    tag_156:\n        /* \"#utility.yul\":3096:3173   */\n      0x4e487b7100000000000000000000000000000000000000000000000000000000\n        /* \"#utility.yul\":3093:3094   */\n      0x00\n        /* \"#utility.yul\":3086:3174   */\n      mstore\n        /* \"#utility.yul\":3193:3197   */\n      0x41\n        /* \"#utility.yul\":3190:3191   */\n      0x04\n        /* \"#utility.yul\":3183:3198   */\n      mstore\n        /* \"#utility.yul\":3217:3221   */\n      0x24\n        /* \"#utility.yul\":3214:3215   */\n      0x00\n        /* \"#utility.yul\":3207:3222   */\n      revert\n        /* \"#utility.yul\":3234:3515   */\n    tag_157:\n        /* \"#utility.yul\":3317:3344   */\n      tag_235\n        /* \"#utility.yul\":3339:3343   */\n      dup3\n        /* \"#utility.yul\":3317:3344   */\n      tag_151\n      jump\t// in\n    tag_235:\n        /* \"#utility.yul\":3309:3315   */\n      dup2\n        /* \"#utility.yul\":3305:3345   */\n      add\n        /* \"#utility.yul\":3447:3453   */\n      dup2\n        /* \"#utility.yul\":3435:3445   */\n      dup2\n        /* \"#utility.yul\":3432:3454   */\n      lt\n        /* \"#utility.yul\":3411:3429   */\n      0xffffffffffffffff\n        /* \"#utility.yul\":3399:3409   */\n      dup3\n        /* \"#utility.yul\":3396:3430   */\n      gt\n        /* \"#utility.yul\":3393:3455   */\n      or\n        /* \"#utility.yul\":3390:3478   */\n      iszero\n      tag_236\n      jumpi\n        /* \"#utility.yul\":3458:3476   */\n      tag_237\n      tag_156\n      jump\t// in\n    tag_237:\n        /* \"#utility.yul\":3390:3478   */\n    tag_236:\n        /* \"#utility.yul\":3498:3508   */\n      dup1\n        /* \"#utility.yul\":3494:3496   */\n      0x40\n        /* \"#utility.yul\":3487:3509   */\n      mstore\n        /* \"#utility.yul\":3277:3515   */\n      pop\n        /* \"#utility.yul\":3234:3515   */\n      pop\n      pop\n      jump\t// out\n        /* \"#utility.yul\":3521:3650   */\n    tag_158:\n        /* \"#utility.yul\":3555:3561   */\n      0x00\n        /* \"#utility.yul\":3582:3602   */\n      tag_239\n      tag_142\n      jump\t// in\n    tag_239:\n        /* \"#utility.yul\":3572:3602   */\n      swap1\n      pop\n        /* \"#utility.yul\":3611:3644   */\n      tag_240\n        /* \"#utility.yul\":3639:3643   */\n      dup3\n        /* \"#utility.yul\":3631:3637   */\n      dup3\n        /* \"#utility.yul\":3611:3644   */\n      tag_157\n      jump\t// in\n    tag_240:\n        /* \"#utility.yul\":3521:3650   */\n      swap2\n      swap1\n      pop\n      jump\t// out\n        /* \"#utility.yul\":3656:3964   */\n    tag_159:\n        /* \"#utility.yul\":3718:3722   */\n      0x00\n        /* \"#utility.yul\":3808:3826   */\n      0xffffffffffffffff\n        /* \"#utility.yul\":3800:3806   */\n      dup3\n        /* \"#utility.yul\":3797:3827   */\n      gt\n        /* \"#utility.yul\":3794:3850   */\n      iszero\n      tag_242\n      jumpi\n        /* \"#utility.yul\":3830:3848   */\n      tag_243\n      tag_156\n      jump\t// in\n    tag_243:\n        /* \"#utility.yul\":3794:3850   */\n    tag_242:\n        /* \"#utility.yul\":3868:3897   */\n      tag_244\n        /* \"#utility.yul\":3890:3896   */\n      dup3\n        /* \"#utility.yul\":3868:3897   */\n      tag_151\n      jump\t// in\n    tag_244:\n        /* \"#utility.yul\":3860:3897   */\n      swap1\n      pop\n        /* \"#utility.yul\":3952:3956   */\n      0x20\n        /* \"#utility.yul\":3946:3950   */\n      dup2\n        /* \"#utility.yul\":3942:3957   */\n      add\n        /* \"#utility.yul\":3934:3957   */\n      swap1\n      pop\n        /* \"#utility.yul\":3656:3964   */\n      swap2\n      swap1\n      pop\n      jump\t// out\n        /* \"#utility.yul\":3970:4116   */\n    tag_160:\n        /* \"#utility.yul\":4067:4073   */\n      dup3\n        /* \"#utility.yul\":4062:4065   */\n      dup2\n        /* \"#utility.yul\":4057:4060   */\n      dup4\n        /* \"#utility.yul\":4044:4074   */\n      calldatacopy\n        /* \"#utility.yul\":4108:4109   */\n      0x00\n        /* \"#utility.yul\":4099:4105   */\n      dup4\n        /* \"#utility.yul\":4094:4097   */\n      dup4\n        /* \"#utility.yul\":4090:4106   */\n      add\n        /* \"#utility.yul\":4083:4110   */\n      mstore\n        /* \"#utility.yul\":3970:4116   */\n      pop\n      pop\n      pop\n      jump\t// out\n        /* \"#utility.yul\":4122:4547   */\n    tag_161:\n        /* \"#utility.yul\":4200:4205   */\n      0x00\n        /* \"#utility.yul\":4225:4291   */\n      tag_247\n        /* \"#utility.yul\":4241:4290   */\n      tag_248\n        /* \"#utility.yul\":4283:4289   */\n      dup5\n        /* \"#utility.yul\":4241:4290   */\n      tag_159\n      jump\t// in\n    tag_248:\n        /* \"#utility.yul\":4225:4291   */\n      tag_158\n      jump\t// in\n    tag_247:\n        /* \"#utility.yul\":4216:4291   */\n      swap1\n      pop\n        /* \"#utility.yul\":4314:4320   */\n      dup3\n        /* \"#utility.yul\":4307:4312   */\n      dup2\n        /* \"#utility.yul\":4300:4321   */\n      mstore\n        /* \"#utility.yul\":4352:4356   */\n      0x20\n        /* \"#utility.yul\":4345:4350   */\n      dup2\n        /* \"#utility.yul\":4341:4357   */\n      add\n        /* \"#utility.yul\":4390:4393   */\n      dup5\n        /* \"#utility.yul\":4381:4387   */\n      dup5\n        /* \"#utility.yul\":4376:4379   */\n      dup5\n        /* \"#utility.yul\":4372:4388   */\n      add\n        /* \"#utility.yul\":4369:4394   */\n      gt\n        /* \"#utility.yul\":4366:4478   */\n      iszero\n      tag_249\n      jumpi\n        /* \"#utility.yul\":4397:4476   */\n      tag_250\n      tag_155\n      jump\t// in\n    tag_250:\n        /* \"#utility.yul\":4366:4478   */\n    tag_249:\n        /* \"#utility.yul\":4487:4541   */\n      tag_251\n        /* \"#utility.yul\":4534:4540   */\n      dup5\n        /* \"#utility.yul\":4529:4532   */\n      dup3\n        /* \"#utility.yul\":4524:4527   */\n      dup6\n        /* \"#utility.yul\":4487:4541   */\n      tag_160\n      jump\t// in\n    tag_251:\n        /* \"#utility.yul\":4206:4547   */\n      pop\n        /* \"#utility.yul\":4122:4547   */\n      swap4\n      swap3\n      pop\n      pop\n      pop\n      jump\t// out\n        /* \"#utility.yul\":4567:4907   */\n    tag_162:\n        /* \"#utility.yul\":4623:4628   */\n      0x00\n        /* \"#utility.yul\":4672:4675   */\n      dup3\n        /* \"#utility.yul\":4665:4669   */\n      0x1f\n        /* \"#utility.yul\":4657:4663   */\n      dup4\n        /* \"#utility.yul\":4653:4670   */\n      add\n        /* \"#utility.yul\":4649:4676   */\n      slt\n        /* \"#utility.yul\":4639:4761   */\n      tag_253\n      jumpi\n        /* \"#utility.yul\":4680:4759   */\n      tag_254\n      tag_154\n      jump\t// in\n    tag_254:\n        /* \"#utility.yul\":4639:4761   */\n    tag_253:\n        /* \"#utility.yul\":4797:4803   */\n      dup2\n        /* \"#utility.yul\":4784:4804   */\n      calldataload\n        /* \"#utility.yul\":4822:4901   */\n      tag_255\n        /* \"#utility.yul\":4897:4900   */\n      dup5\n        /* \"#utility.yul\":4889:4895   */\n      dup3\n        /* \"#utility.yul\":4882:4886   */\n      0x20\n        /* \"#utility.yul\":4874:4880   */\n      dup7\n        /* \"#utility.yul\":4870:4887   */\n      add\n        /* \"#utility.yul\":4822:4901   */\n      tag_161\n      jump\t// in\n    tag_255:\n        /* \"#utility.yul\":4813:4901   */\n      swap2\n      pop\n        /* \"#utility.yul\":4629:4907   */\n      pop\n        /* \"#utility.yul\":4567:4907   */\n      swap3\n      swap2\n      pop\n      pop\n      jump\t// out\n        /* \"#utility.yul\":4913:5567   */\n    tag_22:\n        /* \"#utility.yul\":4991:4997   */\n      0x00\n        /* \"#utility.yul\":4999:5005   */\n      dup1\n        /* \"#utility.yul\":5048:5050   */\n      0x40\n        /* \"#utility.yul\":5036:5045   */\n      dup4\n        /* \"#utility.yul\":5027:5034   */\n      dup6\n        /* \"#utility.yul\":5023:5046   */\n      sub\n        /* \"#utility.yul\":5019:5051   */\n      slt\n        /* \"#utility.yul\":5016:5135   */\n      iszero\n      tag_257\n      jumpi\n        /* \"#utility.yul\":5054:5133   */\n      tag_258\n      tag_143\n      jump\t// in\n    tag_258:\n        /* \"#utility.yul\":5016:5135   */\n    tag_257:\n        /* \"#utility.yul\":5202:5203   */\n      0x00\n        /* \"#utility.yul\":5191:5200   */\n      dup4\n        /* \"#utility.yul\":5187:5204   */\n      add\n        /* \"#utility.yul\":5174:5205   */\n      calldataload\n        /* \"#utility.yul\":5232:5250   */\n      0xffffffffffffffff\n        /* \"#utility.yul\":5224:5230   */\n      dup2\n        /* \"#utility.yul\":5221:5251   */\n      gt\n        /* \"#utility.yul\":5218:5335   */\n      iszero\n      tag_259\n      jumpi\n        /* \"#utility.yul\":5254:5333   */\n      tag_260\n      tag_144\n      jump\t// in\n    tag_260:\n        /* \"#utility.yul\":5218:5335   */\n    tag_259:\n        /* \"#utility.yul\":5359:5422   */\n      tag_261\n        /* \"#utility.yul\":5414:5421   */\n      dup6\n        /* \"#utility.yul\":5405:5411   */\n      dup3\n        /* \"#utility.yul\":5394:5403   */\n      dup7\n        /* \"#utility.yul\":5390:5412   */\n      add\n        /* \"#utility.yul\":5359:5422   */\n      tag_162\n      jump\t// in\n    tag_261:\n        /* \"#utility.yul\":5349:5422   */\n      swap3\n      pop\n        /* \"#utility.yul\":5145:5432   */\n      pop\n        /* \"#utility.yul\":5471:5473   */\n      0x20\n        /* \"#utility.yul\":5497:5550   */\n      tag_262\n        /* \"#utility.yul\":5542:5549   */\n      dup6\n        /* \"#utility.yul\":5533:5539   */\n      dup3\n        /* \"#utility.yul\":5522:5531   */\n      dup7\n        /* \"#utility.yul\":5518:5540   */\n      add\n        /* \"#utility.yul\":5497:5550   */\n      tag_147\n      jump\t// in\n    tag_262:\n        /* \"#utility.yul\":5487:5550   */\n      swap2\n      pop\n        /* \"#utility.yul\":5442:5560   */\n      pop\n        /* \"#utility.yul\":4913:5567   */\n      swap3\n      pop\n      swap3\n      swap1\n      pop\n      jump\t// out\n        /* \"#utility.yul\":5573:5996   */\n    tag_27:\n        /* \"#utility.yul\":5714:5718   */\n      0x00\n        /* \"#utility.yul\":5752:5754   */\n      0x40\n        /* \"#utility.yul\":5741:5750   */\n      dup3\n        /* \"#utility.yul\":5737:5755   */\n      add\n        /* \"#utility.yul\":5729:5755   */\n      swap1\n      pop\n        /* \"#utility.yul\":5801:5810   */\n      dup2\n        /* \"#utility.yul\":5795:5799   */\n      dup2\n        /* \"#utility.yul\":5791:5811   */\n      sub\n        /* \"#utility.yul\":5787:5788   */\n      0x00\n        /* \"#utility.yul\":5776:5785   */\n      dup4\n        /* \"#utility.yul\":5772:5789   */\n      add\n        /* \"#utility.yul\":5765:5812   */\n      mstore\n        /* \"#utility.yul\":5829:5907   */\n      tag_264\n        /* \"#utility.yul\":5902:5906   */\n      dup2\n        /* \"#utility.yul\":5893:5899   */\n      dup6\n        /* \"#utility.yul\":5829:5907   */\n      tag_152\n      jump\t// in\n    tag_264:\n        /* \"#utility.yul\":5821:5907   */\n      swap1\n      pop\n        /* \"#utility.yul\":5917:5989   */\n      tag_265\n        /* \"#utility.yul\":5985:5987   */\n      0x20\n        /* \"#utility.yul\":5974:5983   */\n      dup4\n        /* \"#utility.yul\":5970:5988   */\n      add\n        /* \"#utility.yul\":5961:5967   */\n      dup5\n        /* \"#utility.yul\":5917:5989   */\n      tag_153\n      jump\t// in\n    tag_265:\n        /* \"#utility.yul\":5573:5996   */\n      swap4\n      swap3\n      pop\n      pop\n      pop\n      jump\t// out\n        /* \"#utility.yul\":6002:6092   */\n    tag_163:\n        /* \"#utility.yul\":6036:6043   */\n      0x00\n        /* \"#utility.yul\":6079:6084   */\n      dup2\n        /* \"#utility.yul\":6072:6085   */\n      iszero\n        /* \"#utility.yul\":6065:6086   */\n      iszero\n        /* \"#utility.yul\":6054:6086   */\n      swap1\n      pop\n        /* \"#utility.yul\":6002:6092   */\n      swap2\n      swap1\n      pop\n      jump\t// out\n        /* \"#utility.yul\":6098:6207   */\n    tag_164:\n        /* \"#utility.yul\":6179:6200   */\n      tag_268\n        /* \"#utility.yul\":6194:6199   */\n      dup2\n        /* \"#utility.yul\":6179:6200   */\n      tag_163\n      jump\t// in\n    tag_268:\n        /* \"#utility.yul\":6174:6177   */\n      dup3\n        /* \"#utility.yul\":6167:6201   */\n      mstore\n        /* \"#utility.yul\":6098:6207   */\n      pop\n      pop\n      jump\t// out\n        /* \"#utility.yul\":6213:6423   */\n    tag_31:\n        /* \"#utility.yul\":6300:6304   */\n      0x00\n        /* \"#utility.yul\":6338:6340   */\n      0x20\n        /* \"#utility.yul\":6327:6336   */\n      dup3\n        /* \"#utility.yul\":6323:6341   */\n      add\n        /* \"#utility.yul\":6315:6341   */\n      swap1\n      pop\n        /* \"#utility.yul\":6351:6416   */\n      tag_270\n        /* \"#utility.yul\":6413:6414   */\n      0x00\n        /* \"#utility.yul\":6402:6411   */\n      dup4\n        /* \"#utility.yul\":6398:6415   */\n      add\n        /* \"#utility.yul\":6389:6395   */\n      dup5\n        /* \"#utility.yul\":6351:6416   */\n      tag_164\n      jump\t// in\n    tag_270:\n        /* \"#utility.yul\":6213:6423   */\n      swap3\n      swap2\n      pop\n      pop\n      jump\t// out\n        /* \"#utility.yul\":6429:7263   */\n    tag_34:\n        /* \"#utility.yul\":6517:6523   */\n      0x00\n        /* \"#utility.yul\":6525:6531   */\n      dup1\n        /* \"#utility.yul\":6574:6576   */\n      0x40\n        /* \"#utility.yul\":6562:6571   */\n      dup4\n        /* \"#utility.yul\":6553:6560   */\n      dup6\n        /* \"#utility.yul\":6549:6572   */\n      sub\n        /* \"#utility.yul\":6545:6577   */\n      slt\n        /* \"#utility.yul\":6542:6661   */\n      iszero\n      tag_272\n      jumpi\n        /* \"#utility.yul\":6580:6659   */\n      tag_273\n      tag_143\n      jump\t// in\n    tag_273:\n        /* \"#utility.yul\":6542:6661   */\n    tag_272:\n        /* \"#utility.yul\":6728:6729   */\n      0x00\n        /* \"#utility.yul\":6717:6726   */\n      dup4\n        /* \"#utility.yul\":6713:6730   */\n      add\n        /* \"#utility.yul\":6700:6731   */\n      calldataload\n        /* \"#utility.yul\":6758:6776   */\n      0xffffffffffffffff\n        /* \"#utility.yul\":6750:6756   */\n      dup2\n        /* \"#utility.yul\":6747:6777   */\n      gt\n        /* \"#utility.yul\":6744:6861   */\n      iszero\n      tag_274\n      jumpi\n        /* \"#utility.yul\":6780:6859   */\n      tag_275\n      tag_144\n      jump\t// in\n    tag_275:\n        /* \"#utility.yul\":6744:6861   */\n    tag_274:\n        /* \"#utility.yul\":6885:6948   */\n      tag_276\n        /* \"#utility.yul\":6940:6947   */\n      dup6\n        /* \"#utility.yul\":6931:6937   */\n      dup3\n        /* \"#utility.yul\":6920:6929   */\n      dup7\n        /* \"#utility.yul\":6916:6938   */\n      add\n        /* \"#utility.yul\":6885:6948   */\n      tag_162\n      jump\t// in\n    tag_276:\n        /* \"#utility.yul\":6875:6948   */\n      swap3\n      pop\n        /* \"#utility.yul\":6671:6958   */\n      pop\n        /* \"#utility.yul\":7025:7027   */\n      0x20\n        /* \"#utility.yul\":7014:7023   */\n      dup4\n        /* \"#utility.yul\":7010:7028   */\n      add\n        /* \"#utility.yul\":6997:7029   */\n      calldataload\n        /* \"#utility.yul\":7056:7074   */\n      0xffffffffffffffff\n        /* \"#utility.yul\":7048:7054   */\n      dup2\n        /* \"#utility.yul\":7045:7075   */\n      gt\n        /* \"#utility.yul\":7042:7159   */\n      iszero\n      tag_277\n      jumpi\n        /* \"#utility.yul\":7078:7157   */\n      tag_278\n      tag_144\n      jump\t// in\n    tag_278:\n        /* \"#utility.yul\":7042:7159   */\n    tag_277:\n        /* \"#utility.yul\":7183:7246   */\n      tag_279\n        /* \"#utility.yul\":7238:7245   */\n      dup6\n        /* \"#utility.yul\":7229:7235   */\n      dup3\n        /* \"#utility.yul\":7218:7227   */\n      dup7\n        /* \"#utility.yul\":7214:7236   */\n      add\n        /* \"#utility.yul\":7183:7246   */\n      tag_162\n      jump\t// in\n    tag_279:\n        /* \"#utility.yul\":7173:7246   */\n      swap2\n      pop\n        /* \"#utility.yul\":6968:7256   */\n      pop\n        /* \"#utility.yul\":6429:7263   */\n      swap3\n      pop\n      swap3\n      swap1\n      pop\n      jump\t// out\n        /* \"#utility.yul\":7269:7395   */\n    tag_165:\n        /* \"#utility.yul\":7306:7313   */\n      0x00\n        /* \"#utility.yul\":7346:7388   */\n      0xffffffffffffffffffffffffffffffffffffffff\n        /* \"#utility.yul\":7339:7344   */\n      dup3\n        /* \"#utility.yul\":7335:7389   */\n      and\n        /* \"#utility.yul\":7324:7389   */\n      swap1\n      pop\n        /* \"#utility.yul\":7269:7395   */\n      swap2\n      swap1\n      pop\n      jump\t// out\n        /* \"#utility.yul\":7401:7497   */\n    tag_166:\n        /* \"#utility.yul\":7438:7445   */\n      0x00\n        /* \"#utility.yul\":7467:7491   */\n      tag_282\n        /* \"#utility.yul\":7485:7490   */\n      dup3\n        /* \"#utility.yul\":7467:7491   */\n      tag_165\n      jump\t// in\n    tag_282:\n        /* \"#utility.yul\":7456:7491   */\n      swap1\n      pop\n        /* \"#utility.yul\":7401:7497   */\n      swap2\n      swap1\n      pop\n      jump\t// out\n        /* \"#utility.yul\":7503:7621   */\n    tag_167:\n        /* \"#utility.yul\":7590:7614   */\n      tag_284\n        /* \"#utility.yul\":7608:7613   */\n      dup2\n        /* \"#utility.yul\":7590:7614   */\n      tag_166\n      jump\t// in\n    tag_284:\n        /* \"#utility.yul\":7585:7588   */\n      dup3\n        /* \"#utility.yul\":7578:7615   */\n      mstore\n        /* \"#utility.yul\":7503:7621   */\n      pop\n      pop\n      jump\t// out\n        /* \"#utility.yul\":7627:7849   */\n    tag_42:\n        /* \"#utility.yul\":7720:7724   */\n      0x00\n        /* \"#utility.yul\":7758:7760   */\n      0x20\n        /* \"#utility.yul\":7747:7756   */\n      dup3\n        /* \"#utility.yul\":7743:7761   */\n      add\n        /* \"#utility.yul\":7735:7761   */\n      swap1\n      pop\n        /* \"#utility.yul\":7771:7842   */\n      tag_286\n        /* \"#utility.yul\":7839:7840   */\n      0x00\n        /* \"#utility.yul\":7828:7837   */\n      dup4\n        /* \"#utility.yul\":7824:7841   */\n      add\n        /* \"#utility.yul\":7815:7821   */\n      dup5\n        /* \"#utility.yul\":7771:7842   */\n      tag_167\n      jump\t// in\n    tag_286:\n        /* \"#utility.yul\":7627:7849   */\n      swap3\n      swap2\n      pop\n      pop\n      jump\t// out\n        /* \"#utility.yul\":7855:7977   */\n    tag_168:\n        /* \"#utility.yul\":7928:7952   */\n      tag_288\n        /* \"#utility.yul\":7946:7951   */\n      dup2\n        /* \"#utility.yul\":7928:7952   */\n      tag_166\n      jump\t// in\n    tag_288:\n        /* \"#utility.yul\":7921:7926   */\n      dup2\n        /* \"#utility.yul\":7918:7953   */\n      eq\n        /* \"#utility.yul\":7908:7971   */\n      tag_289\n      jumpi\n        /* \"#utility.yul\":7967:7968   */\n      0x00\n        /* \"#utility.yul\":7964:7965   */\n      dup1\n        /* \"#utility.yul\":7957:7969   */\n      revert\n        /* \"#utility.yul\":7908:7971   */\n    tag_289:\n        /* \"#utility.yul\":7855:7977   */\n      pop\n      jump\t// out\n        /* \"#utility.yul\":7983:8122   */\n    tag_169:\n        /* \"#utility.yul\":8029:8034   */\n      0x00\n        /* \"#utility.yul\":8067:8073   */\n      dup2\n        /* \"#utility.yul\":8054:8074   */\n      calldataload\n        /* \"#utility.yul\":8045:8074   */\n      swap1\n      pop\n        /* \"#utility.yul\":8083:8116   */\n      tag_291\n        /* \"#utility.yul\":8110:8115   */\n      dup2\n        /* \"#utility.yul\":8083:8116   */\n      tag_168\n      jump\t// in\n    tag_291:\n        /* \"#utility.yul\":7983:8122   */\n      swap3\n      swap2\n      pop\n      pop\n      jump\t// out\n        /* \"#utility.yul\":8128:8457   */\n    tag_45:\n        /* \"#utility.yul\":8187:8193   */\n      0x00\n        /* \"#utility.yul\":8236:8238   */\n      0x20\n        /* \"#utility.yul\":8224:8233   */\n      dup3\n        /* \"#utility.yul\":8215:8222   */\n      dup5\n        /* \"#utility.yul\":8211:8234   */\n      sub\n        /* \"#utility.yul\":8207:8239   */\n      slt\n        /* \"#utility.yul\":8204:8323   */\n      iszero\n      tag_293\n      jumpi\n        /* \"#utility.yul\":8242:8321   */\n      tag_294\n      tag_143\n      jump\t// in\n    tag_294:\n        /* \"#utility.yul\":8204:8323   */\n    tag_293:\n        /* \"#utility.yul\":8362:8363   */\n      0x00\n        /* \"#utility.yul\":8387:8440   */\n      tag_295\n        /* \"#utility.yul\":8432:8439   */\n      dup5\n        /* \"#utility.yul\":8423:8429   */\n      dup3\n        /* \"#utility.yul\":8412:8421   */\n      dup6\n        /* \"#utility.yul\":8408:8430   */\n      add\n        /* \"#utility.yul\":8387:8440   */\n      tag_169\n      jump\t// in\n    tag_295:\n        /* \"#utility.yul\":8377:8440   */\n      swap2\n      pop\n        /* \"#utility.yul\":8333:8450   */\n      pop\n        /* \"#utility.yul\":8128:8457   */\n      swap3\n      swap2\n      pop\n      pop\n      jump\t// out\n        /* \"#utility.yul\":8463:8972   */\n    tag_52:\n        /* \"#utility.yul\":8532:8538   */\n      0x00\n        /* \"#utility.yul\":8581:8583   */\n      0x20\n        /* \"#utility.yul\":8569:8578   */\n      dup3\n        /* \"#utility.yul\":8560:8567   */\n      dup5\n        /* \"#utility.yul\":8556:8579   */\n      sub\n        /* \"#utility.yul\":8552:8584   */\n      slt\n        /* \"#utility.yul\":8549:8668   */\n      iszero\n      tag_297\n      jumpi\n        /* \"#utility.yul\":8587:8666   */\n      tag_298\n      tag_143\n      jump\t// in\n    tag_298:\n        /* \"#utility.yul\":8549:8668   */\n    tag_297:\n        /* \"#utility.yul\":8735:8736   */\n      0x00\n        /* \"#utility.yul\":8724:8733   */\n      dup3\n        /* \"#utility.yul\":8720:8737   */\n      add\n        /* \"#utility.yul\":8707:8738   */\n      calldataload\n        /* \"#utility.yul\":8765:8783   */\n      0xffffffffffffffff\n        /* \"#utility.yul\":8757:8763   */\n      dup2\n        /* \"#utility.yul\":8754:8784   */\n      gt\n        /* \"#utility.yul\":8751:8868   */\n      iszero\n      tag_299\n      jumpi\n        /* \"#utility.yul\":8787:8866   */\n      tag_300\n      tag_144\n      jump\t// in\n    tag_300:\n        /* \"#utility.yul\":8751:8868   */\n    tag_299:\n        /* \"#utility.yul\":8892:8955   */\n      tag_301\n        /* \"#utility.yul\":8947:8954   */\n      dup5\n        /* \"#utility.yul\":8938:8944   */\n      dup3\n        /* \"#utility.yul\":8927:8936   */\n      dup6\n        /* \"#utility.yul\":8923:8945   */\n      add\n        /* \"#utility.yul\":8892:8955   */\n      tag_162\n      jump\t// in\n    tag_301:\n        /* \"#utility.yul\":8882:8955   */\n      swap2\n      pop\n        /* \"#utility.yul\":8678:8965   */\n      pop\n        /* \"#utility.yul\":8463:8972   */\n      swap3\n      swap2\n      pop\n      pop\n      jump\t// out\n        /* \"#utility.yul\":8978:9158   */\n    tag_170:\n        /* \"#utility.yul\":9026:9103   */\n      0x4e487b7100000000000000000000000000000000000000000000000000000000\n        /* \"#utility.yul\":9023:9024   */\n      0x00\n        /* \"#utility.yul\":9016:9104   */\n      mstore\n        /* \"#utility.yul\":9123:9127   */\n      0x22\n        /* \"#utility.yul\":9120:9121   */\n      0x04\n        /* \"#utility.yul\":9113:9128   */\n      mstore\n        /* \"#utility.yul\":9147:9151   */\n      0x24\n        /* \"#utility.yul\":9144:9145   */\n      0x00\n        /* \"#utility.yul\":9137:9152   */\n      revert\n        /* \"#utility.yul\":9164:9484   */\n    tag_58:\n        /* \"#utility.yul\":9208:9214   */\n      0x00\n        /* \"#utility.yul\":9245:9246   */\n      0x02\n        /* \"#utility.yul\":9239:9243   */\n      dup3\n        /* \"#utility.yul\":9235:9247   */\n      div\n        /* \"#utility.yul\":9225:9247   */\n      swap1\n      pop\n        /* \"#utility.yul\":9292:9293   */\n      0x01\n        /* \"#utility.yul\":9286:9290   */\n      dup3\n        /* \"#utility.yul\":9282:9294   */\n      and\n        /* \"#utility.yul\":9313:9331   */\n      dup1\n        /* \"#utility.yul\":9303:9384   */\n      tag_304\n      jumpi\n        /* \"#utility.yul\":9369:9373   */\n      0x7f\n        /* \"#utility.yul\":9361:9367   */\n      dup3\n        /* \"#utility.yul\":9357:9374   */\n      and\n        /* \"#utility.yul\":9347:9374   */\n      swap2\n      pop\n        /* \"#utility.yul\":9303:9384   */\n    tag_304:\n        /* \"#utility.yul\":9431:9433   */\n      0x20\n        /* \"#utility.yul\":9423:9429   */\n      dup3\n        /* \"#utility.yul\":9420:9434   */\n      lt\n        /* \"#utility.yul\":9400:9418   */\n      dup2\n        /* \"#utility.yul\":9397:9435   */\n      sub\n        /* \"#utility.yul\":9394:9478   */\n      tag_305\n      jumpi\n        /* \"#utility.yul\":9450:9468   */\n      tag_306\n      tag_170\n      jump\t// in\n    tag_306:\n        /* \"#utility.yul\":9394:9478   */\n    tag_305:\n        /* \"#utility.yul\":9215:9484   */\n      pop\n        /* \"#utility.yul\":9164:9484   */\n      swap2\n      swap1\n      pop\n      jump\t// out\n        /* \"#utility.yul\":9490:9712   */\n    tag_171:\n        /* \"#utility.yul\":9630:9664   */\n      0x4f6e6c7920746865206f776e65722063616e2073656e6420612050726f706f73\n        /* \"#utility.yul\":9626:9627   */\n      0x00\n        /* \"#utility.yul\":9618:9624   */\n      dup3\n        /* \"#utility.yul\":9614:9628   */\n      add\n        /* \"#utility.yul\":9607:9665   */\n      mstore\n        /* \"#utility.yul\":9699:9704   */\n      0x616c2e0000000000000000000000000000000000000000000000000000000000\n        /* \"#utility.yul\":9694:9696   */\n      0x20\n        /* \"#utility.yul\":9686:9692   */\n      dup3\n        /* \"#utility.yul\":9682:9697   */\n      add\n        /* \"#utility.yul\":9675:9705   */\n      mstore\n        /* \"#utility.yul\":9490:9712   */\n      pop\n      jump\t// out\n        /* \"#utility.yul\":9718:10084   */\n    tag_172:\n        /* \"#utility.yul\":9860:9863   */\n      0x00\n        /* \"#utility.yul\":9881:9948   */\n      tag_309\n        /* \"#utility.yul\":9945:9947   */\n      0x23\n        /* \"#utility.yul\":9940:9943   */\n      dup4\n        /* \"#utility.yul\":9881:9948   */\n      tag_149\n      jump\t// in\n    tag_309:\n        /* \"#utility.yul\":9874:9948   */\n      swap2\n      pop\n        /* \"#utility.yul\":9957:10050   */\n      tag_310\n        /* \"#utility.yul\":10046:10049   */\n      dup3\n        /* \"#utility.yul\":9957:10050   */\n      tag_171\n      jump\t// in\n    tag_310:\n        /* \"#utility.yul\":10075:10077   */\n      0x40\n        /* \"#utility.yul\":10070:10073   */\n      dup3\n        /* \"#utility.yul\":10066:10078   */\n      add\n        /* \"#utility.yul\":10059:10078   */\n      swap1\n      pop\n        /* \"#utility.yul\":9718:10084   */\n      swap2\n      swap1\n      pop\n      jump\t// out\n        /* \"#utility.yul\":10090:10509   */\n    tag_71:\n        /* \"#utility.yul\":10256:10260   */\n      0x00\n        /* \"#utility.yul\":10294:10296   */\n      0x20\n        /* \"#utility.yul\":10283:10292   */\n      dup3\n        /* \"#utility.yul\":10279:10297   */\n      add\n        /* \"#utility.yul\":10271:10297   */\n      swap1\n      pop\n        /* \"#utility.yul\":10343:10352   */\n      dup2\n        /* \"#utility.yul\":10337:10341   */\n      dup2\n        /* \"#utility.yul\":10333:10353   */\n      sub\n        /* \"#utility.yul\":10329:10330   */\n      0x00\n        /* \"#utility.yul\":10318:10327   */\n      dup4\n        /* \"#utility.yul\":10314:10331   */\n      add\n        /* \"#utility.yul\":10307:10354   */\n      mstore\n        /* \"#utility.yul\":10371:10502   */\n      tag_312\n        /* \"#utility.yul\":10497:10501   */\n      dup2\n        /* \"#utility.yul\":10371:10502   */\n      tag_172\n      jump\t// in\n    tag_312:\n        /* \"#utility.yul\":10363:10502   */\n      swap1\n      pop\n        /* \"#utility.yul\":10090:10509   */\n      swap2\n      swap1\n      pop\n      jump\t// out\n        /* \"#utility.yul\":10515:10687   */\n    tag_173:\n        /* \"#utility.yul\":10655:10679   */\n      0x496e76616c69642070726f706f73616c20696e64657800000000000000000000\n        /* \"#utility.yul\":10651:10652   */\n      0x00\n        /* \"#utility.yul\":10643:10649   */\n      dup3\n        /* \"#utility.yul\":10639:10653   */\n      add\n        /* \"#utility.yul\":10632:10680   */\n      mstore\n        /* \"#utility.yul\":10515:10687   */\n      pop\n      jump\t// out\n        /* \"#utility.yul\":10693:11059   */\n    tag_174:\n        /* \"#utility.yul\":10835:10838   */\n      0x00\n        /* \"#utility.yul\":10856:10923   */\n      tag_315\n        /* \"#utility.yul\":10920:10922   */\n      0x16\n        /* \"#utility.yul\":10915:10918   */\n      dup4\n        /* \"#utility.yul\":10856:10923   */\n      tag_149\n      jump\t// in\n    tag_315:\n        /* \"#utility.yul\":10849:10923   */\n      swap2\n      pop\n        /* \"#utility.yul\":10932:11025   */\n      tag_316\n        /* \"#utility.yul\":11021:11024   */\n      dup3\n        /* \"#utility.yul\":10932:11025   */\n      tag_173\n      jump\t// in\n    tag_316:\n        /* \"#utility.yul\":11050:11052   */\n      0x20\n        /* \"#utility.yul\":11045:11048   */\n      dup3\n        /* \"#utility.yul\":11041:11053   */\n      add\n        /* \"#utility.yul\":11034:11053   */\n      swap1\n      pop\n        /* \"#utility.yul\":10693:11059   */\n      swap2\n      swap1\n      pop\n      jump\t// out\n        /* \"#utility.yul\":11065:11484   */\n    tag_75:\n        /* \"#utility.yul\":11231:11235   */\n      0x00\n        /* \"#utility.yul\":11269:11271   */\n      0x20\n        /* \"#utility.yul\":11258:11267   */\n      dup3\n        /* \"#utility.yul\":11254:11272   */\n      add\n        /* \"#utility.yul\":11246:11272   */\n      swap1\n      pop\n        /* \"#utility.yul\":11318:11327   */\n      dup2\n        /* \"#utility.yul\":11312:11316   */\n      dup2\n        /* \"#utility.yul\":11308:11328   */\n      sub\n        /* \"#utility.yul\":11304:11305   */\n      0x00\n        /* \"#utility.yul\":11293:11302   */\n      dup4\n        /* \"#utility.yul\":11289:11306   */\n      add\n        /* \"#utility.yul\":11282:11329   */\n      mstore\n        /* \"#utility.yul\":11346:11477   */\n      tag_318\n        /* \"#utility.yul\":11472:11476   */\n      dup2\n        /* \"#utility.yul\":11346:11477   */\n      tag_174\n      jump\t// in\n    tag_318:\n        /* \"#utility.yul\":11338:11477   */\n      swap1\n      pop\n        /* \"#utility.yul\":11065:11484   */\n      swap2\n      swap1\n      pop\n      jump\t// out\n        /* \"#utility.yul\":11490:11670   */\n    tag_79:\n        /* \"#utility.yul\":11538:11615   */\n      0x4e487b7100000000000000000000000000000000000000000000000000000000\n        /* \"#utility.yul\":11535:11536   */\n      0x00\n        /* \"#utility.yul\":11528:11616   */\n      mstore\n        /* \"#utility.yul\":11635:11639   */\n      0x32\n        /* \"#utility.yul\":11632:11633   */\n      0x04\n        /* \"#utility.yul\":11625:11640   */\n      mstore\n        /* \"#utility.yul\":11659:11663   */\n      0x24\n        /* \"#utility.yul\":11656:11657   */\n      0x00\n        /* \"#utility.yul\":11649:11664   */\n      revert\n        /* \"#utility.yul\":11676:11817   */\n    tag_175:\n        /* \"#utility.yul\":11725:11729   */\n      0x00\n        /* \"#utility.yul\":11748:11751   */\n      dup2\n        /* \"#utility.yul\":11740:11751   */\n      swap1\n      pop\n        /* \"#utility.yul\":11771:11774   */\n      dup2\n        /* \"#utility.yul\":11768:11769   */\n      0x00\n        /* \"#utility.yul\":11761:11775   */\n      mstore\n        /* \"#utility.yul\":11805:11809   */\n      0x20\n        /* \"#utility.yul\":11802:11803   */\n      0x00\n        /* \"#utility.yul\":11792:11810   */\n      keccak256\n        /* \"#utility.yul\":11784:11810   */\n      swap1\n      pop\n        /* \"#utility.yul\":11676:11817   */\n      swap2\n      swap1\n      pop\n      jump\t// out\n        /* \"#utility.yul\":11823:11916   */\n    tag_176:\n        /* \"#utility.yul\":11860:11866   */\n      0x00\n        /* \"#utility.yul\":11907:11909   */\n      0x20\n        /* \"#utility.yul\":11902:11904   */\n      0x1f\n        /* \"#utility.yul\":11895:11900   */\n      dup4\n        /* \"#utility.yul\":11891:11905   */\n      add\n        /* \"#utility.yul\":11887:11910   */\n      div\n        /* \"#utility.yul\":11877:11910   */\n      swap1\n      pop\n        /* \"#utility.yul\":11823:11916   */\n      swap2\n      swap1\n      pop\n      jump\t// out\n        /* \"#utility.yul\":11922:12029   */\n    tag_177:\n        /* \"#utility.yul\":11966:11974   */\n      0x00\n        /* \"#utility.yul\":12016:12021   */\n      dup3\n        /* \"#utility.yul\":12010:12014   */\n      dup3\n        /* \"#utility.yul\":12006:12022   */\n      shl\n        /* \"#utility.yul\":11985:12022   */\n      swap1\n      pop\n        /* \"#utility.yul\":11922:12029   */\n      swap3\n      swap2\n      pop\n      pop\n      jump\t// out\n        /* \"#utility.yul\":12035:12428   */\n    tag_178:\n        /* \"#utility.yul\":12104:12110   */\n      0x00\n        /* \"#utility.yul\":12154:12155   */\n      0x08\n        /* \"#utility.yul\":12142:12152   */\n      dup4\n        /* \"#utility.yul\":12138:12156   */\n      mul\n        /* \"#utility.yul\":12177:12274   */\n      tag_324\n        /* \"#utility.yul\":12207:12273   */\n      0xffffffffffffffffffffffffffffffffffffffffffffffffffffffffffffffff\n        /* \"#utility.yul\":12196:12205   */\n      dup3\n        /* \"#utility.yul\":12177:12274   */\n      tag_177\n      jump\t// in\n    tag_324:\n        /* \"#utility.yul\":12295:12334   */\n      tag_325\n        /* \"#utility.yul\":12325:12333   */\n      dup7\n        /* \"#utility.yul\":12314:12323   */\n      dup4\n        /* \"#utility.yul\":12295:12334   */\n      tag_177\n      jump\t// in\n    tag_325:\n        /* \"#utility.yul\":12283:12334   */\n      swap6\n      pop\n        /* \"#utility.yul\":12367:12371   */\n      dup1\n        /* \"#utility.yul\":12363:12372   */\n      not\n        /* \"#utility.yul\":12356:12361   */\n      dup5\n        /* \"#utility.yul\":12352:12373   */\n      and\n        /* \"#utility.yul\":12343:12373   */\n      swap4\n      pop\n        /* \"#utility.yul\":12416:12420   */\n      dup1\n        /* \"#utility.yul\":12406:12414   */\n      dup7\n        /* \"#utility.yul\":12402:12421   */\n      and\n        /* \"#utility.yul\":12395:12400   */\n      dup5\n        /* \"#utility.yul\":12392:12422   */\n      or\n        /* \"#utility.yul\":12382:12422   */\n      swap3\n      pop\n        /* \"#utility.yul\":12111:12428   */\n      pop\n      pop\n        /* \"#utility.yul\":12035:12428   */\n      swap4\n      swap3\n      pop\n      pop\n      pop\n      jump\t// out\n        /* \"#utility.yul\":12434:12494   */\n    tag_179:\n        /* \"#utility.yul\":12462:12465   */\n      0x00\n        /* \"#utility.yul\":12483:12488   */\n      dup2\n        /* \"#utility.yul\":12476:12488   */\n      swap1\n      pop\n        /* \"#utility.yul\":12434:12494   */\n      swap2\n      swap1\n      pop\n      jump\t// out\n        /* \"#utility.yul\":12500:12642   */\n    tag_180:\n        /* \"#utility.yul\":12550:12559   */\n      0x00\n        /* \"#utility.yul\":12583:12636   */\n      tag_328\n        /* \"#utility.yul\":12601:12635   */\n      tag_329\n        /* \"#utility.yul\":12610:12634   */\n      tag_330\n        /* \"#utility.yul\":12628:12633   */\n      dup5\n        /* \"#utility.yul\":12610:12634   */\n      tag_145\n      jump\t// in\n    tag_330:\n        /* \"#utility.yul\":12601:12635   */\n      tag_179\n      jump\t// in\n    tag_329:\n        /* \"#utility.yul\":12583:12636   */\n      tag_145\n      jump\t// in\n    tag_328:\n        /* \"#utility.yul\":12570:12636   */\n      swap1\n      pop\n        /* \"#utility.yul\":12500:12642   */\n      swap2\n      swap1\n      pop\n      jump\t// out\n        /* \"#utility.yul\":12648:12723   */\n    tag_181:\n        /* \"#utility.yul\":12691:12694   */\n      0x00\n        /* \"#utility.yul\":12712:12717   */\n      dup2\n        /* \"#utility.yul\":12705:12717   */\n      swap1\n      pop\n        /* \"#utility.yul\":12648:12723   */\n      swap2\n      swap1\n      pop\n      jump\t// out\n        /* \"#utility.yul\":12729:12998   */\n    tag_182:\n        /* \"#utility.yul\":12839:12878   */\n      tag_333\n        /* \"#utility.yul\":12870:12877   */\n      dup4\n        /* \"#utility.yul\":12839:12878   */\n      tag_180\n      jump\t// in\n    tag_333:\n        /* \"#utility.yul\":12900:12991   */\n      tag_334\n        /* \"#utility.yul\":12949:12990   */\n      tag_335\n        /* \"#utility.yul\":12973:12989   */\n      dup3\n        /* \"#utility.yul\":12949:12990   */\n      tag_181\n      jump\t// in\n    tag_335:\n        /* \"#utility.yul\":12941:12947   */\n      dup5\n        /* \"#utility.yul\":12934:12938   */\n      dup5\n        /* \"#utility.yul\":12928:12939   */\n      sload\n        /* \"#utility.yul\":12900:12991   */\n      tag_178\n      jump\t// in\n    tag_334:\n        /* \"#utility.yul\":12894:12898   */\n      dup3\n        /* \"#utility.yul\":12887:12992   */\n      sstore\n        /* \"#utility.yul\":12805:12998   */\n      pop\n        /* \"#utility.yul\":12729:12998   */\n      pop\n      pop\n      pop\n      jump\t// out\n        /* \"#utility.yul\":13004:13077   */\n    tag_183:\n        /* \"#utility.yul\":13049:13052   */\n      0x00\n        /* \"#utility.yul\":13004:13077   */\n      swap1\n      jump\t// out\n        /* \"#utility.yul\":13083:13272   */\n    tag_184:\n        /* \"#utility.yul\":13160:13192   */\n      tag_338\n      tag_183\n      jump\t// in\n    tag_338:\n        /* \"#utility.yul\":13201:13266   */\n      tag_339\n        /* \"#utility.yul\":13259:13265   */\n      dup2\n        /* \"#utility.yul\":13251:13257   */\n      dup5\n        /* \"#utility.yul\":13245:13249   */\n      dup5\n        /* \"#utility.yul\":13201:13266   */\n      tag_182\n      jump\t// in\n    tag_339:\n        /* \"#utility.yul\":13136:13272   */\n      pop\n        /* \"#utility.yul\":13083:13272   */\n      pop\n      pop\n      jump\t// out\n        /* \"#utility.yul\":13278:13464   */\n    tag_185:\n        /* \"#utility.yul\":13338:13458   */\n    tag_341:\n        /* \"#utility.yul\":13355:13358   */\n      dup2\n        /* \"#utility.yul\":13348:13353   */\n      dup2\n        /* \"#utility.yul\":13345:13359   */\n      lt\n        /* \"#utility.yul\":13338:13458   */\n      iszero\n      tag_343\n      jumpi\n        /* \"#utility.yul\":13409:13448   */\n      tag_344\n        /* \"#utility.yul\":13446:13447   */\n      0x00\n        /* \"#utility.yul\":13439:13444   */\n      dup3\n        /* \"#utility.yul\":13409:13448   */\n      tag_184\n      jump\t// in\n    tag_344:\n        /* \"#utility.yul\":13382:13383   */\n      0x01\n        /* \"#utility.yul\":13375:13380   */\n      dup2\n        /* \"#utility.yul\":13371:13384   */\n      add\n        /* \"#utility.yul\":13362:13384   */\n      swap1\n      pop\n        /* \"#utility.yul\":13338:13458   */\n      jump(tag_341)\n    tag_343:\n        /* \"#utility.yul\":13278:13464   */\n      pop\n      pop\n      jump\t// out\n        /* \"#utility.yul\":13470:14013   */\n    tag_186:\n        /* \"#utility.yul\":13571:13573   */\n      0x1f\n        /* \"#utility.yul\":13566:13569   */\n      dup3\n        /* \"#utility.yul\":13563:13574   */\n      gt\n        /* \"#utility.yul\":13560:14006   */\n      iszero\n      tag_346\n      jumpi\n        /* \"#utility.yul\":13605:13643   */\n      tag_347\n        /* \"#utility.yul\":13637:13642   */\n      dup2\n        /* \"#utility.yul\":13605:13643   */\n      tag_175\n      jump\t// in\n    tag_347:\n        /* \"#utility.yul\":13689:13718   */\n      tag_348\n        /* \"#utility.yul\":13707:13717   */\n      dup5\n        /* \"#utility.yul\":13689:13718   */\n      tag_176\n      jump\t// in\n    tag_348:\n        /* \"#utility.yul\":13679:13687   */\n      dup2\n        /* \"#utility.yul\":13675:13719   */\n      add\n        /* \"#utility.yul\":13872:13874   */\n      0x20\n        /* \"#utility.yul\":13860:13870   */\n      dup6\n        /* \"#utility.yul\":13857:13875   */\n      lt\n        /* \"#utility.yul\":13854:13903   */\n      iszero\n      tag_349\n      jumpi\n        /* \"#utility.yul\":13893:13901   */\n      dup2\n        /* \"#utility.yul\":13878:13901   */\n      swap1\n      pop\n        /* \"#utility.yul\":13854:13903   */\n    tag_349:\n        /* \"#utility.yul\":13916:13996   */\n      tag_350\n        /* \"#utility.yul\":13972:13994   */\n      tag_351\n        /* \"#utility.yul\":13990:13993   */\n      dup6\n        /* \"#utility.yul\":13972:13994   */\n      tag_176\n      jump\t// in\n    tag_351:\n        /* \"#utility.yul\":13962:13970   */\n      dup4\n        /* \"#utility.yul\":13958:13995   */\n      add\n        /* \"#utility.yul\":13945:13956   */\n      dup3\n        /* \"#utility.yul\":13916:13996   */\n      tag_185\n      jump\t// in\n    tag_350:\n        /* \"#utility.yul\":13575:14006   */\n      pop\n      pop\n        /* \"#utility.yul\":13560:14006   */\n    tag_346:\n        /* \"#utility.yul\":13470:14013   */\n      pop\n      pop\n      pop\n      jump\t// out\n        /* \"#utility.yul\":14019:14136   */\n    tag_187:\n        /* \"#utility.yul\":14073:14081   */\n      0x00\n        /* \"#utility.yul\":14123:14128   */\n      dup3\n        /* \"#utility.yul\":14117:14121   */\n      dup3\n        /* \"#utility.yul\":14113:14129   */\n      shr\n        /* \"#utility.yul\":14092:14129   */\n      swap1\n      pop\n        /* \"#utility.yul\":14019:14136   */\n      swap3\n      swap2\n      pop\n      pop\n      jump\t// out\n        /* \"#utility.yul\":14142:14311   */\n    tag_188:\n        /* \"#utility.yul\":14186:14192   */\n      0x00\n        /* \"#utility.yul\":14219:14270   */\n      tag_354\n        /* \"#utility.yul\":14267:14268   */\n      0x00\n        /* \"#utility.yul\":14263:14269   */\n      not\n        /* \"#utility.yul\":14255:14260   */\n      dup5\n        /* \"#utility.yul\":14252:14253   */\n      0x08\n        /* \"#utility.yul\":14248:14261   */\n      mul\n        /* \"#utility.yul\":14219:14270   */\n      tag_187\n      jump\t// in\n    tag_354:\n        /* \"#utility.yul\":14215:14271   */\n      not\n        /* \"#utility.yul\":14300:14304   */\n      dup1\n        /* \"#utility.yul\":14294:14298   */\n      dup4\n        /* \"#utility.yul\":14290:14305   */\n      and\n        /* \"#utility.yul\":14280:14305   */\n      swap2\n      pop\n        /* \"#utility.yul\":14193:14311   */\n      pop\n        /* \"#utility.yul\":14142:14311   */\n      swap3\n      swap2\n      pop\n      pop\n      jump\t// out\n        /* \"#utility.yul\":14316:14611   */\n    tag_189:\n        /* \"#utility.yul\":14392:14396   */\n      0x00\n        /* \"#utility.yul\":14538:14567   */\n      tag_356\n        /* \"#utility.yul\":14563:14566   */\n      dup4\n        /* \"#utility.yul\":14557:14561   */\n      dup4\n        /* \"#utility.yul\":14538:14567   */\n      tag_188\n      jump\t// in\n    tag_356:\n        /* \"#utility.yul\":14530:14567   */\n      swap2\n      pop\n        /* \"#utility.yul\":14600:14603   */\n      dup3\n        /* \"#utility.yul\":14597:14598   */\n      0x02\n        /* \"#utility.yul\":14593:14604   */\n      mul\n        /* \"#utility.yul\":14587:14591   */\n      dup3\n        /* \"#utility.yul\":14584:14605   */\n      or\n        /* \"#utility.yul\":14576:14605   */\n      swap1\n      pop\n        /* \"#utility.yul\":14316:14611   */\n      swap3\n      swap2\n      pop\n      pop\n      jump\t// out\n        /* \"#utility.yul\":14616:16011   */\n    tag_82:\n        /* \"#utility.yul\":14733:14770   */\n      tag_358\n        /* \"#utility.yul\":14766:14769   */\n      dup3\n        /* \"#utility.yul\":14733:14770   */\n      tag_148\n      jump\t// in\n    tag_358:\n        /* \"#utility.yul\":14835:14853   */\n      0xffffffffffffffff\n        /* \"#utility.yul\":14827:14833   */\n      dup2\n        /* \"#utility.yul\":14824:14854   */\n      gt\n        /* \"#utility.yul\":14821:14877   */\n      iszero\n      tag_359\n      jumpi\n        /* \"#utility.yul\":14857:14875   */\n      tag_360\n      tag_156\n      jump\t// in\n    tag_360:\n        /* \"#utility.yul\":14821:14877   */\n    tag_359:\n        /* \"#utility.yul\":14901:14939   */\n      tag_361\n        /* \"#utility.yul\":14933:14937   */\n      dup3\n        /* \"#utility.yul\":14927:14938   */\n      sload\n        /* \"#utility.yul\":14901:14939   */\n      tag_58\n      jump\t// in\n    tag_361:\n        /* \"#utility.yul\":14986:15053   */\n      tag_362\n        /* \"#utility.yul\":15046:15052   */\n      dup3\n        /* \"#utility.yul\":15038:15044   */\n      dup3\n        /* \"#utility.yul\":15032:15036   */\n      dup6\n        /* \"#utility.yul\":14986:15053   */\n      tag_186\n      jump\t// in\n    tag_362:\n        /* \"#utility.yul\":15080:15081   */\n      0x00\n        /* \"#utility.yul\":15104:15108   */\n      0x20\n        /* \"#utility.yul\":15091:15108   */\n      swap1\n      pop\n        /* \"#utility.yul\":15136:15138   */\n      0x1f\n        /* \"#utility.yul\":15128:15134   */\n      dup4\n        /* \"#utility.yul\":15125:15139   */\n      gt\n        /* \"#utility.yul\":15153:15154   */\n      0x01\n        /* \"#utility.yul\":15148:15766   */\n      dup2\n      eq\n      tag_364\n      jumpi\n        /* \"#utility.yul\":15810:15811   */\n      0x00\n        /* \"#utility.yul\":15827:15833   */\n      dup5\n        /* \"#utility.yul\":15824:15901   */\n      iszero\n      tag_365\n      jumpi\n        /* \"#utility.yul\":15876:15885   */\n      dup3\n        /* \"#utility.yul\":15871:15874   */\n      dup8\n        /* \"#utility.yul\":15867:15886   */\n      add\n        /* \"#utility.yul\":15861:15887   */\n      mload\n        /* \"#utility.yul\":15852:15887   */\n      swap1\n      pop\n        /* \"#utility.yul\":15824:15901   */\n    tag_365:\n        /* \"#utility.yul\":15927:15994   */\n      tag_366\n        /* \"#utility.yul\":15987:15993   */\n      dup6\n        /* \"#utility.yul\":15980:15985   */\n      dup3\n        /* \"#utility.yul\":15927:15994   */\n      tag_189\n      jump\t// in\n    tag_366:\n        /* \"#utility.yul\":15921:15925   */\n      dup7\n        /* \"#utility.yul\":15914:15995   */\n      sstore\n        /* \"#utility.yul\":15783:16005   */\n      pop\n        /* \"#utility.yul\":15118:16005   */\n      jump(tag_363)\n        /* \"#utility.yul\":15148:15766   */\n    tag_364:\n        /* \"#utility.yul\":15200:15204   */\n      0x1f\n        /* \"#utility.yul\":15196:15205   */\n      not\n        /* \"#utility.yul\":15188:15194   */\n      dup5\n        /* \"#utility.yul\":15184:15206   */\n      and\n        /* \"#utility.yul\":15234:15271   */\n      tag_367\n        /* \"#utility.yul\":15266:15270   */\n      dup7\n        /* \"#utility.yul\":15234:15271   */\n      tag_175\n      jump\t// in\n    tag_367:\n        /* \"#utility.yul\":15293:15294   */\n      0x00\n        /* \"#utility.yul\":15307:15515   */\n    tag_368:\n        /* \"#utility.yul\":15321:15328   */\n      dup3\n        /* \"#utility.yul\":15318:15319   */\n      dup2\n        /* \"#utility.yul\":15315:15329   */\n      lt\n        /* \"#utility.yul\":15307:15515   */\n      iszero\n      tag_370\n      jumpi\n        /* \"#utility.yul\":15400:15409   */\n      dup5\n        /* \"#utility.yul\":15395:15398   */\n      dup10\n        /* \"#utility.yul\":15391:15410   */\n      add\n        /* \"#utility.yul\":15385:15411   */\n      mload\n        /* \"#utility.yul\":15377:15383   */\n      dup3\n        /* \"#utility.yul\":15370:15412   */\n      sstore\n        /* \"#utility.yul\":15451:15452   */\n      0x01\n        /* \"#utility.yul\":15443:15449   */\n      dup3\n        /* \"#utility.yul\":15439:15453   */\n      add\n        /* \"#utility.yul\":15429:15453   */\n      swap2\n      pop\n        /* \"#utility.yul\":15498:15500   */\n      0x20\n        /* \"#utility.yul\":15487:15496   */\n      dup6\n        /* \"#utility.yul\":15483:15501   */\n      add\n        /* \"#utility.yul\":15470:15501   */\n      swap5\n      pop\n        /* \"#utility.yul\":15344:15348   */\n      0x20\n        /* \"#utility.yul\":15341:15342   */\n      dup2\n        /* \"#utility.yul\":15337:15349   */\n      add\n        /* \"#utility.yul\":15332:15349   */\n      swap1\n      pop\n        /* \"#utility.yul\":15307:15515   */\n      jump(tag_368)\n    tag_370:\n        /* \"#utility.yul\":15543:15549   */\n      dup7\n        /* \"#utility.yul\":15534:15541   */\n      dup4\n        /* \"#utility.yul\":15531:15550   */\n      lt\n        /* \"#utility.yul\":15528:15707   */\n      iszero\n      tag_371\n      jumpi\n        /* \"#utility.yul\":15601:15610   */\n      dup5\n        /* \"#utility.yul\":15596:15599   */\n      dup10\n        /* \"#utility.yul\":15592:15611   */\n      add\n        /* \"#utility.yul\":15586:15612   */\n      mload\n        /* \"#utility.yul\":15644:15692   */\n      tag_372\n        /* \"#utility.yul\":15686:15690   */\n      0x1f\n        /* \"#utility.yul\":15678:15684   */\n      dup10\n        /* \"#utility.yul\":15674:15691   */\n      and\n        /* \"#utility.yul\":15663:15672   */\n      dup3\n        /* \"#utility.yul\":15644:15692   */\n      tag_188\n      jump\t// in\n    tag_372:\n        /* \"#utility.yul\":15636:15642   */\n      dup4\n        /* \"#utility.yul\":15629:15693   */\n      sstore\n        /* \"#utility.yul\":15551:15707   */\n      pop\n        /* \"#utility.yul\":15528:15707   */\n    tag_371:\n        /* \"#utility.yul\":15753:15754   */\n      0x01\n        /* \"#utility.yul\":15749:15750   */\n      0x02\n        /* \"#utility.yul\":15741:15747   */\n      dup9\n        /* \"#utility.yul\":15737:15751   */\n      mul\n        /* \"#utility.yul\":15733:15755   */\n      add\n        /* \"#utility.yul\":15727:15731   */\n      dup9\n        /* \"#utility.yul\":15720:15756   */\n      sstore\n        /* \"#utility.yul\":15155:15766   */\n      pop\n      pop\n      pop\n        /* \"#utility.yul\":15118:16005   */\n    tag_363:\n      pop\n        /* \"#utility.yul\":14708:16011   */\n      pop\n      pop\n      pop\n        /* \"#utility.yul\":14616:16011   */\n      pop\n      pop\n      jump\t// out\n        /* \"#utility.yul\":16017:16165   */\n    tag_190:\n        /* \"#utility.yul\":16119:16130   */\n      0x00\n        /* \"#utility.yul\":16156:16159   */\n      dup2\n        /* \"#utility.yul\":16141:16159   */\n      swap1\n      pop\n        /* \"#utility.yul\":16017:16165   */\n      swap3\n      swap2\n      pop\n      pop\n      jump\t// out\n        /* \"#utility.yul\":16171:16561   */\n    tag_191:\n        /* \"#utility.yul\":16277:16280   */\n      0x00\n        /* \"#utility.yul\":16305:16344   */\n      tag_375\n        /* \"#utility.yul\":16338:16343   */\n      dup3\n        /* \"#utility.yul\":16305:16344   */\n      tag_148\n      jump\t// in\n    tag_375:\n        /* \"#utility.yul\":16360:16449   */\n      tag_376\n        /* \"#utility.yul\":16442:16448   */\n      dup2\n        /* \"#utility.yul\":16437:16440   */\n      dup6\n        /* \"#utility.yul\":16360:16449   */\n      tag_190\n      jump\t// in\n    tag_376:\n        /* \"#utility.yul\":16353:16449   */\n      swap4\n      pop\n        /* \"#utility.yul\":16458:16523   */\n      tag_377\n        /* \"#utility.yul\":16516:16522   */\n      dup2\n        /* \"#utility.yul\":16511:16514   */\n      dup6\n        /* \"#utility.yul\":16504:16508   */\n      0x20\n        /* \"#utility.yul\":16497:16502   */\n      dup7\n        /* \"#utility.yul\":16493:16509   */\n      add\n        /* \"#utility.yul\":16458:16523   */\n      tag_150\n      jump\t// in\n    tag_377:\n        /* \"#utility.yul\":16548:16554   */\n      dup1\n        /* \"#utility.yul\":16543:16546   */\n      dup5\n        /* \"#utility.yul\":16539:16555   */\n      add\n        /* \"#utility.yul\":16532:16555   */\n      swap2\n      pop\n        /* \"#utility.yul\":16281:16561   */\n      pop\n        /* \"#utility.yul\":16171:16561   */\n      swap3\n      swap2\n      pop\n      pop\n      jump\t// out\n        /* \"#utility.yul\":16567:16842   */\n    tag_108:\n        /* \"#utility.yul\":16699:16702   */\n      0x00\n        /* \"#utility.yul\":16721:16816   */\n      tag_379\n        /* \"#utility.yul\":16812:16815   */\n      dup3\n        /* \"#utility.yul\":16803:16809   */\n      dup5\n        /* \"#utility.yul\":16721:16816   */\n      tag_191\n      jump\t// in\n    tag_379:\n        /* \"#utility.yul\":16714:16816   */\n      swap2\n      pop\n        /* \"#utility.yul\":16833:16836   */\n      dup2\n        /* \"#utility.yul\":16826:16836   */\n      swap1\n      pop\n        /* \"#utility.yul\":16567:16842   */\n      swap3\n      swap2\n      pop\n      pop\n      jump\t// out\n        /* \"#utility.yul\":16848:17020   */\n    tag_192:\n        /* \"#utility.yul\":16988:17012   */\n      0x546865207469746c6520697320756e61626961626c6500000000000000000000\n        /* \"#utility.yul\":16984:16985   */\n      0x00\n        /* \"#utility.yul\":16976:16982   */\n      dup3\n        /* \"#utility.yul\":16972:16986   */\n      add\n        /* \"#utility.yul\":16965:17013   */\n      mstore\n        /* \"#utility.yul\":16848:17020   */\n      pop\n      jump\t// out\n        /* \"#utility.yul\":17026:17392   */\n    tag_193:\n        /* \"#utility.yul\":17168:17171   */\n      0x00\n        /* \"#utility.yul\":17189:17256   */\n      tag_382\n        /* \"#utility.yul\":17253:17255   */\n      0x16\n        /* \"#utility.yul\":17248:17251   */\n      dup4\n        /* \"#utility.yul\":17189:17256   */\n      tag_149\n      jump\t// in\n    tag_382:\n        /* \"#utility.yul\":17182:17256   */\n      swap2\n      pop\n        /* \"#utility.yul\":17265:17358   */\n      tag_383\n        /* \"#utility.yul\":17354:17357   */\n      dup3\n        /* \"#utility.yul\":17265:17358   */\n      tag_192\n      jump\t// in\n    tag_383:\n        /* \"#utility.yul\":17383:17385   */\n      0x20\n        /* \"#utility.yul\":17378:17381   */\n      dup3\n        /* \"#utility.yul\":17374:17386   */\n      add\n        /* \"#utility.yul\":17367:17386   */\n      swap1\n      pop\n        /* \"#utility.yul\":17026:17392   */\n      swap2\n      swap1\n      pop\n      jump\t// out\n        /* \"#utility.yul\":17398:17817   */\n    tag_111:\n        /* \"#utility.yul\":17564:17568   */\n      0x00\n        /* \"#utility.yul\":17602:17604   */\n      0x20\n        /* \"#utility.yul\":17591:17600   */\n      dup3\n        /* \"#utility.yul\":17587:17605   */\n      add\n        /* \"#utility.yul\":17579:17605   */\n      swap1\n      pop\n        /* \"#utility.yul\":17651:17660   */\n      dup2\n        /* \"#utility.yul\":17645:17649   */\n      dup2\n        /* \"#utility.yul\":17641:17661   */\n      sub\n        /* \"#utility.yul\":17637:17638   */\n      0x00\n        /* \"#utility.yul\":17626:17635   */\n      dup4\n        /* \"#utility.yul\":17622:17639   */\n      add\n        /* \"#utility.yul\":17615:17662   */\n      mstore\n        /* \"#utility.yul\":17679:17810   */\n      tag_385\n        /* \"#utility.yul\":17805:17809   */\n      dup2\n        /* \"#utility.yul\":17679:17810   */\n      tag_193\n      jump\t// in\n    tag_385:\n        /* \"#utility.yul\":17671:17810   */\n      swap1\n      pop\n        /* \"#utility.yul\":17398:17817   */\n      swap2\n      swap1\n      pop\n      jump\t// out\n        /* \"#utility.yul\":17823:18337   */\n    tag_118:\n        /* \"#utility.yul\":17984:17988   */\n      0x00\n        /* \"#utility.yul\":18022:18024   */\n      0x40\n        /* \"#utility.yul\":18011:18020   */\n      dup3\n        /* \"#utility.yul\":18007:18025   */\n      add\n        /* \"#utility.yul\":17999:18025   */\n      swap1\n      pop\n        /* \"#utility.yul\":18071:18080   */\n      dup2\n        /* \"#utility.yul\":18065:18069   */\n      dup2\n        /* \"#utility.yul\":18061:18081   */\n      sub\n        /* \"#utility.yul\":18057:18058   */\n      0x00\n        /* \"#utility.yul\":18046:18055   */\n      dup4\n        /* \"#utility.yul\":18042:18059   */\n      add\n        /* \"#utility.yul\":18035:18082   */\n      mstore\n        /* \"#utility.yul\":18099:18177   */\n      tag_387\n        /* \"#utility.yul\":18172:18176   */\n      dup2\n        /* \"#utility.yul\":18163:18169   */\n      dup6\n        /* \"#utility.yul\":18099:18177   */\n      tag_152\n      jump\t// in\n    tag_387:\n        /* \"#utility.yul\":18091:18177   */\n      swap1\n      pop\n        /* \"#utility.yul\":18224:18233   */\n      dup2\n        /* \"#utility.yul\":18218:18222   */\n      dup2\n        /* \"#utility.yul\":18214:18234   */\n      sub\n        /* \"#utility.yul\":18209:18211   */\n      0x20\n        /* \"#utility.yul\":18198:18207   */\n      dup4\n        /* \"#utility.yul\":18194:18212   */\n      add\n        /* \"#utility.yul\":18187:18235   */\n      mstore\n        /* \"#utility.yul\":18252:18330   */\n      tag_388\n        /* \"#utility.yul\":18325:18329   */\n      dup2\n        /* \"#utility.yul\":18316:18322   */\n      dup5\n        /* \"#utility.yul\":18252:18330   */\n      tag_152\n      jump\t// in\n    tag_388:\n        /* \"#utility.yul\":18244:18330   */\n      swap1\n      pop\n        /* \"#utility.yul\":17823:18337   */\n      swap4\n      swap3\n      pop\n      pop\n      pop\n      jump\t// out\n        /* \"#utility.yul\":18343:18511   */\n    tag_194:\n        /* \"#utility.yul\":18483:18503   */\n      0x5573657220616c726561647920766f7465640000000000000000000000000000\n        /* \"#utility.yul\":18479:18480   */\n      0x00\n        /* \"#utility.yul\":18471:18477   */\n      dup3\n        /* \"#utility.yul\":18467:18481   */\n      add\n        /* \"#utility.yul\":18460:18504   */\n      mstore\n        /* \"#utility.yul\":18343:18511   */\n      pop\n      jump\t// out\n        /* \"#utility.yul\":18517:18883   */\n    tag_195:\n        /* \"#utility.yul\":18659:18662   */\n      0x00\n        /* \"#utility.yul\":18680:18747   */\n      tag_391\n        /* \"#utility.yul\":18744:18746   */\n      0x12\n        /* \"#utility.yul\":18739:18742   */\n      dup4\n        /* \"#utility.yul\":18680:18747   */\n      tag_149\n      jump\t// in\n    tag_391:\n        /* \"#utility.yul\":18673:18747   */\n      swap2\n      pop\n        /* \"#utility.yul\":18756:18849   */\n      tag_392\n        /* \"#utility.yul\":18845:18848   */\n      dup3\n        /* \"#utility.yul\":18756:18849   */\n      tag_194\n      jump\t// in\n    tag_392:\n        /* \"#utility.yul\":18874:18876   */\n      0x20\n        /* \"#utility.yul\":18869:18872   */\n      dup3\n        /* \"#utility.yul\":18865:18877   */\n      add\n        /* \"#utility.yul\":18858:18877   */\n      swap1\n      pop\n        /* \"#utility.yul\":18517:18883   */\n      swap2\n      swap1\n      pop\n      jump\t// out\n        /* \"#utility.yul\":18889:19308   */\n    tag_122:\n        /* \"#utility.yul\":19055:19059   */\n      0x00\n        /* \"#utility.yul\":19093:19095   */\n      0x20\n        /* \"#utility.yul\":19082:19091   */\n      dup3\n        /* \"#utility.yul\":19078:19096   */\n      add\n        /* \"#utility.yul\":19070:19096   */\n      swap1\n      pop\n        /* \"#utility.yul\":19142:19151   */\n      dup2\n        /* \"#utility.yul\":19136:19140   */\n      dup2\n        /* \"#utility.yul\":19132:19152   */\n      sub\n        /* \"#utility.yul\":19128:19129   */\n      0x00\n        /* \"#utility.yul\":19117:19126   */\n      dup4\n        /* \"#utility.yul\":19113:19130   */\n      add\n        /* \"#utility.yul\":19106:19153   */\n      mstore\n        /* \"#utility.yul\":19170:19301   */\n      tag_394\n        /* \"#utility.yul\":19296:19300   */\n      dup2\n        /* \"#utility.yul\":19170:19301   */\n      tag_195\n      jump\t// in\n    tag_394:\n        /* \"#utility.yul\":19162:19301   */\n      swap1\n      pop\n        /* \"#utility.yul\":18889:19308   */\n      swap2\n      swap1\n      pop\n      jump\t// out\n        /* \"#utility.yul\":19314:19484   */\n    tag_196:\n        /* \"#utility.yul\":19454:19476   */\n      0x50726f706f73616c732061726520636c6f736564000000000000000000000000\n        /* \"#utility.yul\":19450:19451   */\n      0x00\n        /* \"#utility.yul\":19442:19448   */\n      dup3\n        /* \"#utility.yul\":19438:19452   */\n      add\n        /* \"#utility.yul\":19431:19477   */\n      mstore\n        /* \"#utility.yul\":19314:19484   */\n      pop\n      jump\t// out\n        /* \"#utility.yul\":19490:19856   */\n    tag_197:\n        /* \"#utility.yul\":19632:19635   */\n      0x00\n        /* \"#utility.yul\":19653:19720   */\n      tag_397\n        /* \"#utility.yul\":19717:19719   */\n      0x14\n        /* \"#utility.yul\":19712:19715   */\n      dup4\n        /* \"#utility.yul\":19653:19720   */\n      tag_149\n      jump\t// in\n    tag_397:\n        /* \"#utility.yul\":19646:19720   */\n      swap2\n      pop\n        /* \"#utility.yul\":19729:19822   */\n      tag_398\n        /* \"#utility.yul\":19818:19821   */\n      dup3\n        /* \"#utility.yul\":19729:19822   */\n      tag_196\n      jump\t// in\n    tag_398:\n        /* \"#utility.yul\":19847:19849   */\n      0x20\n        /* \"#utility.yul\":19842:19845   */\n      dup3\n        /* \"#utility.yul\":19838:19850   */\n      add\n        /* \"#utility.yul\":19831:19850   */\n      swap1\n      pop\n        /* \"#utility.yul\":19490:19856   */\n      swap2\n      swap1\n      pop\n      jump\t// out\n        /* \"#utility.yul\":19862:20281   */\n    tag_126:\n        /* \"#utility.yul\":20028:20032   */\n      0x00\n        /* \"#utility.yul\":20066:20068   */\n      0x20\n        /* \"#utility.yul\":20055:20064   */\n      dup3\n        /* \"#utility.yul\":20051:20069   */\n      add\n        /* \"#utility.yul\":20043:20069   */\n      swap1\n      pop\n        /* \"#utility.yul\":20115:20124   */\n      dup2\n        /* \"#utility.yul\":20109:20113   */\n      dup2\n        /* \"#utility.yul\":20105:20125   */\n      sub\n        /* \"#utility.yul\":20101:20102   */\n      0x00\n        /* \"#utility.yul\":20090:20099   */\n      dup4\n        /* \"#utility.yul\":20086:20103   */\n      add\n        /* \"#utility.yul\":20079:20126   */\n      mstore\n        /* \"#utility.yul\":20143:20274   */\n      tag_400\n        /* \"#utility.yul\":20269:20273   */\n      dup2\n        /* \"#utility.yul\":20143:20274   */\n      tag_197\n      jump\t// in\n    tag_400:\n        /* \"#utility.yul\":20135:20274   */\n      swap1\n      pop\n        /* \"#utility.yul\":19862:20281   */\n      swap2\n      swap1\n      pop\n      jump\t// out\n        /* \"#utility.yul\":20287:20467   */\n    tag_198:\n        /* \"#utility.yul\":20335:20412   */\n      0x4e487b7100000000000000000000000000000000000000000000000000000000\n        /* \"#utility.yul\":20332:20333   */\n      0x00\n        /* \"#utility.yul\":20325:20413   */\n      mstore\n        /* \"#utility.yul\":20432:20436   */\n      0x11\n        /* \"#utility.yul\":20429:20430   */\n      0x04\n        /* \"#utility.yul\":20422:20437   */\n      mstore\n        /* \"#utility.yul\":20456:20460   */\n      0x24\n        /* \"#utility.yul\":20453:20454   */\n      0x00\n        /* \"#utility.yul\":20446:20461   */\n      revert\n        /* \"#utility.yul\":20473:20664   */\n    tag_135:\n        /* \"#utility.yul\":20513:20516   */\n      0x00\n        /* \"#utility.yul\":20532:20552   */\n      tag_403\n        /* \"#utility.yul\":20550:20551   */\n      dup3\n        /* \"#utility.yul\":20532:20552   */\n      tag_145\n      jump\t// in\n    tag_403:\n        /* \"#utility.yul\":20527:20552   */\n      swap2\n      pop\n        /* \"#utility.yul\":20566:20586   */\n      tag_404\n        /* \"#utility.yul\":20584:20585   */\n      dup4\n        /* \"#utility.yul\":20566:20586   */\n      tag_145\n      jump\t// in\n    tag_404:\n        /* \"#utility.yul\":20561:20586   */\n      swap3\n      pop\n        /* \"#utility.yul\":20609:20610   */\n      dup3\n        /* \"#utility.yul\":20606:20607   */\n      dup3\n        /* \"#utility.yul\":20602:20611   */\n      add\n        /* \"#utility.yul\":20595:20611   */\n      swap1\n      pop\n        /* \"#utility.yul\":20630:20633   */\n      dup1\n        /* \"#utility.yul\":20627:20628   */\n      dup3\n        /* \"#utility.yul\":20624:20634   */\n      gt\n        /* \"#utility.yul\":20621:20657   */\n      iszero\n      tag_405\n      jumpi\n        /* \"#utility.yul\":20637:20655   */\n      tag_406\n      tag_198\n      jump\t// in\n    tag_406:\n        /* \"#utility.yul\":20621:20657   */\n    tag_405:\n        /* \"#utility.yul\":20473:20664   */\n      swap3\n      swap2\n      pop\n      pop\n      jump\t// out\n        /* \"#utility.yul\":20670:21002   */\n    tag_137:\n        /* \"#utility.yul\":20791:20795   */\n      0x00\n        /* \"#utility.yul\":20829:20831   */\n      0x40\n        /* \"#utility.yul\":20818:20827   */\n      dup3\n        /* \"#utility.yul\":20814:20832   */\n      add\n        /* \"#utility.yul\":20806:20832   */\n      swap1\n      pop\n        /* \"#utility.yul\":20842:20913   */\n      tag_408\n        /* \"#utility.yul\":20910:20911   */\n      0x00\n        /* \"#utility.yul\":20899:20908   */\n      dup4\n        /* \"#utility.yul\":20895:20912   */\n      add\n        /* \"#utility.yul\":20886:20892   */\n      dup6\n        /* \"#utility.yul\":20842:20913   */\n      tag_167\n      jump\t// in\n    tag_408:\n        /* \"#utility.yul\":20923:20995   */\n      tag_409\n        /* \"#utility.yul\":20991:20993   */\n      0x20\n        /* \"#utility.yul\":20980:20989   */\n      dup4\n        /* \"#utility.yul\":20976:20994   */\n      add\n        /* \"#utility.yul\":20967:20973   */\n      dup5\n        /* \"#utility.yul\":20923:20995   */\n      tag_153\n      jump\t// in\n    tag_409:\n        /* \"#utility.yul\":20670:21002   */\n      swap4\n      swap3\n      pop\n      pop\n      pop\n      jump\t// out\n\n    auxdata: 0xa26469706673582212207d5a2c2a4c760bf36c44724a91c9367cf033e16c492551d761afa79aad4f411364736f6c63430008180033\n}\n",
				"bytecode": {
					"linkReferences": {},
					"object": "608060405234801561000f575f80fd5b50335f806101000a81548173ffffffffffffffffffffffffffffffffffffffff021916908373ffffffffffffffffffffffffffffffffffffffff16021790555060015f60146101000a81548160ff0219169083151502179055506115e4806100765f395ff3fe608060405234801561000f575f80fd5b506004361061009c575f3560e01c8063807896d511610064578063807896d5146101475780638da5cb5b14610163578063aec2ccae14610181578063d8296ee8146101b1578063f7504408146101bb5761009c565b8063013cf08b146100a0578063188d26ca146100d25780632f229ad6146100ee57806347535d7b1461010d57806365e481e21461012b575b5f80fd5b6100ba60048036038101906100b59190610b26565b6101eb565b6040516100c993929190610bea565b60405180910390f35b6100ec60048036038101906100e79190610d59565b61032c565b005b6100f6610470565b604051610104929190610db3565b60405180910390f35b6101156105d3565b6040516101229190610dfb565b60405180910390f35b61014560048036038101906101409190610e14565b6105e5565b005b610161600480360381019061015c9190610b26565b6107cb565b005b61016b6109b6565b6040516101789190610ec9565b60405180910390f35b61019b60048036038101906101969190610f0c565b6109d9565b6040516101a89190610dfb565b60405180910390f35b6101b96109f6565b005b6101d560048036038101906101d09190610f37565b610aad565b6040516101e29190610dfb565b60405180910390f35b600181815481106101fa575f80fd5b905f5260205f2090600302015f91509050805f01805461021990610fab565b80601f016020809104026020016040519081016040528092919081815260200182805461024590610fab565b80156102905780601f1061026757610100808354040283529160200191610290565b820191905f5260205f20905b81548152906001019060200180831161027357829003601f168201915b5050505050908060010180546102a590610fab565b80601f01602080910402602001604051908101604052809291908181526020018280546102d190610fab565b801561031c5780601f106102f35761010080835404028352916020019161031c565b820191905f5260205f20905b8154815290600101906020018083116102ff57829003601f168201915b5050505050908060020154905083565b3373ffffffffffffffffffffffffffffffffffffffff165f8054906101000a900473ffffffffffffffffffffffffffffffffffffffff1673ffffffffffffffffffffffffffffffffffffffff16146103b9576040517f08c379a00000000000000000000000000000000000000000000000000000000081526004016103b09061104b565b60405180910390fd5b806001805490508110610401576040517f08c379a00000000000000000000000000000000000000000000000000000000081526004016103f8906110b3565b60405180910390fd5b8260018381548110610416576104156110d1565b5b905f5260205f2090600302016001019081610431919061129b565b507f4aafdc740a4d716c504a2443be69d4fb3fa6202bef5e9142ea04152dfceb44a98383604051610463929190610db3565b60405180910390a1505050565b60605f806040518060400160405280600481526020017f4e6f6e650000000000000000000000000000000000000000000000000000000081525090505f805b6001805490508110156105c65781600182815481106104d1576104d06110d1565b5b905f5260205f2090600302016002015411156105b957600181815481106104fb576104fa6110d1565b5b905f5260205f2090600302015f01805461051490610fab565b80601f016020809104026020016040519081016040528092919081815260200182805461054090610fab565b801561058b5780601f106105625761010080835404028352916020019161058b565b820191905f5260205f20905b81548152906001019060200180831161056e57829003601f168201915b50505050509250600181815481106105a6576105a56110d1565b5b905f5260205f2090600302016002015491505b80806001019150506104af565b5081819350935050509091565b5f60149054906101000a900460ff1681565b3373ffffffffffffffffffffffffffffffffffffffff165f8054906101000a900473ffffffffffffffffffffffffffffffffffffffff1673ffffffffffffffffffffffffffffffffffffffff1614610672576040517f08c379a00000000000000000000000000000000000000000000000000000000081526004016106699061104b565b60405180910390fd5b8160038160405161068391906113a4565b90815260200160405180910390205f9054906101000a900460ff16156106de576040517f08c379a00000000000000000000000000000000000000000000000000000000081526004016106d590611404565b60405180910390fd5b600160405180606001604052808581526020018481526020015f815250908060018154018082558091505060019003905f5260205f2090600302015f909190919091505f820151815f019081610734919061129b565b50602082015181600101908161074a919061129b565b50604082015181600201555050600160038460405161076991906113a4565b90815260200160405180910390205f6101000a81548160ff0219169083151502179055507f1a51752aa6f33b6ca737e2496a349f112944c0bb58bd54d60d6cf2b57c681b6c83836040516107be929190611422565b60405180910390a1505050565b60025f3373ffffffffffffffffffffffffffffffffffffffff1673ffffffffffffffffffffffffffffffffffffffff1681526020019081526020015f205f9054906101000a900460ff1615610855576040517f08c379a000000000000000000000000000000000000000000000000000000000815260040161084c906114a1565b60405180910390fd5b5f60149054906101000a900460ff166108a3576040517f08c379a000000000000000000000000000000000000000000000000000000000815260040161089a90611509565b60405180910390fd5b8060018054905081106108eb576040517f08c379a00000000000000000000000000000000000000000000000000000000081526004016108e2906110b3565b60405180910390fd5b6001808381548110610900576108ff6110d1565b5b905f5260205f2090600302016002015f82825461091d9190611554565b92505081905550600160025f3373ffffffffffffffffffffffffffffffffffffffff1673ffffffffffffffffffffffffffffffffffffffff1681526020019081526020015f205f6101000a81548160ff0219169083151502179055507f4d99b957a2bc29a30ebd96a7be8e68fe50a3c701db28a91436490b7d53870ca433836040516109aa929190611587565b60405180910390a15050565b5f8054906101000a900473ffffffffffffffffffffffffffffffffffffffff1681565b6002602052805f5260405f205f915054906101000a900460ff1681565b3373ffffffffffffffffffffffffffffffffffffffff165f8054906101000a900473ffffffffffffffffffffffffffffffffffffffff1673ffffffffffffffffffffffffffffffffffffffff1614610a83576040517f08c379a0000000000000000000000000000000000000000000000000000000008152600401610a7a9061104b565b60405180910390fd5b5f60149054906101000a900460ff16155f60146101000a81548160ff021916908315150217905550565b6003818051602081018201805184825260208301602085012081835280955050505050505f915054906101000a900460ff1681565b5f604051905090565b5f80fd5b5f80fd5b5f819050919050565b610b0581610af3565b8114610b0f575f80fd5b50565b5f81359050610b2081610afc565b92915050565b5f60208284031215610b3b57610b3a610aeb565b5b5f610b4884828501610b12565b91505092915050565b5f81519050919050565b5f82825260208201905092915050565b5f5b83811015610b88578082015181840152602081019050610b6d565b5f8484015250505050565b5f601f19601f8301169050919050565b5f610bad82610b51565b610bb78185610b5b565b9350610bc7818560208601610b6b565b610bd081610b93565b840191505092915050565b610be481610af3565b82525050565b5f6060820190508181035f830152610c028186610ba3565b90508181036020830152610c168185610ba3565b9050610c256040830184610bdb565b949350505050565b5f80fd5b5f80fd5b7f4e487b71000000000000000000000000000000000000000000000000000000005f52604160045260245ffd5b610c6b82610b93565b810181811067ffffffffffffffff82111715610c8a57610c89610c35565b5b80604052505050565b5f610c9c610ae2565b9050610ca88282610c62565b919050565b5f67ffffffffffffffff821115610cc757610cc6610c35565b5b610cd082610b93565b9050602081019050919050565b828183375f83830152505050565b5f610cfd610cf884610cad565b610c93565b905082815260208101848484011115610d1957610d18610c31565b5b610d24848285610cdd565b509392505050565b5f82601f830112610d4057610d3f610c2d565b5b8135610d50848260208601610ceb565b91505092915050565b5f8060408385031215610d6f57610d6e610aeb565b5b5f83013567ffffffffffffffff811115610d8c57610d8b610aef565b5b610d9885828601610d2c565b9250506020610da985828601610b12565b9150509250929050565b5f6040820190508181035f830152610dcb8185610ba3565b9050610dda6020830184610bdb565b9392505050565b5f8115159050919050565b610df581610de1565b82525050565b5f602082019050610e0e5f830184610dec565b92915050565b5f8060408385031215610e2a57610e29610aeb565b5b5f83013567ffffffffffffffff811115610e4757610e46610aef565b5b610e5385828601610d2c565b925050602083013567ffffffffffffffff811115610e7457610e73610aef565b5b610e8085828601610d2c565b9150509250929050565b5f73ffffffffffffffffffffffffffffffffffffffff82169050919050565b5f610eb382610e8a565b9050919050565b610ec381610ea9565b82525050565b5f602082019050610edc5f830184610eba565b92915050565b610eeb81610ea9565b8114610ef5575f80fd5b50565b5f81359050610f0681610ee2565b92915050565b5f60208284031215610f2157610f20610aeb565b5b5f610f2e84828501610ef8565b91505092915050565b5f60208284031215610f4c57610f4b610aeb565b5b5f82013567ffffffffffffffff811115610f6957610f68610aef565b5b610f7584828501610d2c565b91505092915050565b7f4e487b71000000000000000000000000000000000000000000000000000000005f52602260045260245ffd5b5f6002820490506001821680610fc257607f821691505b602082108103610fd557610fd4610f7e565b5b50919050565b7f4f6e6c7920746865206f776e65722063616e2073656e6420612050726f706f735f8201527f616c2e0000000000000000000000000000000000000000000000000000000000602082015250565b5f611035602383610b5b565b915061104082610fdb565b604082019050919050565b5f6020820190508181035f83015261106281611029565b9050919050565b7f496e76616c69642070726f706f73616c20696e646578000000000000000000005f82015250565b5f61109d601683610b5b565b91506110a882611069565b602082019050919050565b5f6020820190508181035f8301526110ca81611091565b9050919050565b7f4e487b71000000000000000000000000000000000000000000000000000000005f52603260045260245ffd5b5f819050815f5260205f209050919050565b5f6020601f8301049050919050565b5f82821b905092915050565b5f6008830261115a7fffffffffffffffffffffffffffffffffffffffffffffffffffffffffffffffff8261111f565b611164868361111f565b95508019841693508086168417925050509392505050565b5f819050919050565b5f61119f61119a61119584610af3565b61117c565b610af3565b9050919050565b5f819050919050565b6111b883611185565b6111cc6111c4826111a6565b84845461112b565b825550505050565b5f90565b6111e06111d4565b6111eb8184846111af565b505050565b5b8181101561120e576112035f826111d8565b6001810190506111f1565b5050565b601f82111561125357611224816110fe565b61122d84611110565b8101602085101561123c578190505b61125061124885611110565b8301826111f0565b50505b505050565b5f82821c905092915050565b5f6112735f1984600802611258565b1980831691505092915050565b5f61128b8383611264565b9150826002028217905092915050565b6112a482610b51565b67ffffffffffffffff8111156112bd576112bc610c35565b5b6112c78254610fab565b6112d2828285611212565b5f60209050601f831160018114611303575f84156112f1578287015190505b6112fb8582611280565b865550611362565b601f198416611311866110fe565b5f5b8281101561133857848901518255600182019150602085019450602081019050611313565b868310156113555784890151611351601f891682611264565b8355505b6001600288020188555050505b505050505050565b5f81905092915050565b5f61137e82610b51565b611388818561136a565b9350611398818560208601610b6b565b80840191505092915050565b5f6113af8284611374565b915081905092915050565b7f546865207469746c6520697320756e61626961626c65000000000000000000005f82015250565b5f6113ee601683610b5b565b91506113f9826113ba565b602082019050919050565b5f6020820190508181035f83015261141b816113e2565b9050919050565b5f6040820190508181035f83015261143a8185610ba3565b9050818103602083015261144e8184610ba3565b90509392505050565b7f5573657220616c726561647920766f74656400000000000000000000000000005f82015250565b5f61148b601283610b5b565b915061149682611457565b602082019050919050565b5f6020820190508181035f8301526114b88161147f565b9050919050565b7f50726f706f73616c732061726520636c6f7365640000000000000000000000005f82015250565b5f6114f3601483610b5b565b91506114fe826114bf565b602082019050919050565b5f6020820190508181035f830152611520816114e7565b9050919050565b7f4e487b71000000000000000000000000000000000000000000000000000000005f52601160045260245ffd5b5f61155e82610af3565b915061156983610af3565b925082820190508082111561158157611580611527565b5b92915050565b5f60408201905061159a5f830185610eba565b6115a76020830184610bdb565b939250505056fea26469706673582212207d5a2c2a4c760bf36c44724a91c9367cf033e16c492551d761afa79aad4f411364736f6c63430008180033",
					"opcodes": "PUSH1 0x80 PUSH1 0x40 MSTORE CALLVALUE DUP1 ISZERO PUSH2 0xF JUMPI PUSH0 DUP1 REVERT JUMPDEST POP CALLER PUSH0 DUP1 PUSH2 0x100 EXP DUP2 SLOAD DUP2 PUSH20 0xFFFFFFFFFFFFFFFFFFFFFFFFFFFFFFFFFFFFFFFF MUL NOT AND SWAP1 DUP4 PUSH20 0xFFFFFFFFFFFFFFFFFFFFFFFFFFFFFFFFFFFFFFFF AND MUL OR SWAP1 SSTORE POP PUSH1 0x1 PUSH0 PUSH1 0x14 PUSH2 0x100 EXP DUP2 SLOAD DUP2 PUSH1 0xFF MUL NOT AND SWAP1 DUP4 ISZERO ISZERO MUL OR SWAP1 SSTORE POP PUSH2 0x15E4 DUP1 PUSH2 0x76 PUSH0 CODECOPY PUSH0 RETURN INVALID PUSH1 0x80 PUSH1 0x40 MSTORE CALLVALUE DUP1 ISZERO PUSH2 0xF JUMPI PUSH0 DUP1 REVERT JUMPDEST POP PUSH1 0x4 CALLDATASIZE LT PUSH2 0x9C JUMPI PUSH0 CALLDATALOAD PUSH1 0xE0 SHR DUP1 PUSH4 0x807896D5 GT PUSH2 0x64 JUMPI DUP1 PUSH4 0x807896D5 EQ PUSH2 0x147 JUMPI DUP1 PUSH4 0x8DA5CB5B EQ PUSH2 0x163 JUMPI DUP1 PUSH4 0xAEC2CCAE EQ PUSH2 0x181 JUMPI DUP1 PUSH4 0xD8296EE8 EQ PUSH2 0x1B1 JUMPI DUP1 PUSH4 0xF7504408 EQ PUSH2 0x1BB JUMPI PUSH2 0x9C JUMP JUMPDEST DUP1 PUSH4 0x13CF08B EQ PUSH2 0xA0 JUMPI DUP1 PUSH4 0x188D26CA EQ PUSH2 0xD2 JUMPI DUP1 PUSH4 0x2F229AD6 EQ PUSH2 0xEE JUMPI DUP1 PUSH4 0x47535D7B EQ PUSH2 0x10D JUMPI DUP1 PUSH4 0x65E481E2 EQ PUSH2 0x12B JUMPI JUMPDEST PUSH0 DUP1 REVERT JUMPDEST PUSH2 0xBA PUSH1 0x4 DUP1 CALLDATASIZE SUB DUP2 ADD SWAP1 PUSH2 0xB5 SWAP2 SWAP1 PUSH2 0xB26 JUMP JUMPDEST PUSH2 0x1EB JUMP JUMPDEST PUSH1 0x40 MLOAD PUSH2 0xC9 SWAP4 SWAP3 SWAP2 SWAP1 PUSH2 0xBEA JUMP JUMPDEST PUSH1 0x40 MLOAD DUP1 SWAP2 SUB SWAP1 RETURN JUMPDEST PUSH2 0xEC PUSH1 0x4 DUP1 CALLDATASIZE SUB DUP2 ADD SWAP1 PUSH2 0xE7 SWAP2 SWAP1 PUSH2 0xD59 JUMP JUMPDEST PUSH2 0x32C JUMP JUMPDEST STOP JUMPDEST PUSH2 0xF6 PUSH2 0x470 JUMP JUMPDEST PUSH1 0x40 MLOAD PUSH2 0x104 SWAP3 SWAP2 SWAP1 PUSH2 0xDB3 JUMP JUMPDEST PUSH1 0x40 MLOAD DUP1 SWAP2 SUB SWAP1 RETURN JUMPDEST PUSH2 0x115 PUSH2 0x5D3 JUMP JUMPDEST PUSH1 0x40 MLOAD PUSH2 0x122 SWAP2 SWAP1 PUSH2 0xDFB JUMP JUMPDEST PUSH1 0x40 MLOAD DUP1 SWAP2 SUB SWAP1 RETURN JUMPDEST PUSH2 0x145 PUSH1 0x4 DUP1 CALLDATASIZE SUB DUP2 ADD SWAP1 PUSH2 0x140 SWAP2 SWAP1 PUSH2 0xE14 JUMP JUMPDEST PUSH2 0x5E5 JUMP JUMPDEST STOP JUMPDEST PUSH2 0x161 PUSH1 0x4 DUP1 CALLDATASIZE SUB DUP2 ADD SWAP1 PUSH2 0x15C SWAP2 SWAP1 PUSH2 0xB26 JUMP JUMPDEST PUSH2 0x7CB JUMP JUMPDEST STOP JUMPDEST PUSH2 0x16B PUSH2 0x9B6 JUMP JUMPDEST PUSH1 0x40 MLOAD PUSH2 0x178 SWAP2 SWAP1 PUSH2 0xEC9 JUMP JUMPDEST PUSH1 0x40 MLOAD DUP1 SWAP2 SUB SWAP1 RETURN JUMPDEST PUSH2 0x19B PUSH1 0x4 DUP1 CALLDATASIZE SUB DUP2 ADD SWAP1 PUSH2 0x196 SWAP2 SWAP1 PUSH2 0xF0C JUMP JUMPDEST PUSH2 0x9D9 JUMP JUMPDEST PUSH1 0x40 MLOAD PUSH2 0x1A8 SWAP2 SWAP1 PUSH2 0xDFB JUMP JUMPDEST PUSH1 0x40 MLOAD DUP1 SWAP2 SUB SWAP1 RETURN JUMPDEST PUSH2 0x1B9 PUSH2 0x9F6 JUMP JUMPDEST STOP JUMPDEST PUSH2 0x1D5 PUSH1 0x4 DUP1 CALLDATASIZE SUB DUP2 ADD SWAP1 PUSH2 0x1D0 SWAP2 SWAP1 PUSH2 0xF37 JUMP JUMPDEST PUSH2 0xAAD JUMP JUMPDEST PUSH1 0x40 MLOAD PUSH2 0x1E2 SWAP2 SWAP1 PUSH2 0xDFB JUMP JUMPDEST PUSH1 0x40 MLOAD DUP1 SWAP2 SUB SWAP1 RETURN JUMPDEST PUSH1 0x1 DUP2 DUP2 SLOAD DUP2 LT PUSH2 0x1FA JUMPI PUSH0 DUP1 REVERT JUMPDEST SWAP1 PUSH0 MSTORE PUSH1 0x20 PUSH0 KECCAK256 SWAP1 PUSH1 0x3 MUL ADD PUSH0 SWAP2 POP SWAP1 POP DUP1 PUSH0 ADD DUP1 SLOAD PUSH2 0x219 SWAP1 PUSH2 0xFAB JUMP JUMPDEST DUP1 PUSH1 0x1F ADD PUSH1 0x20 DUP1 SWAP2 DIV MUL PUSH1 0x20 ADD PUSH1 0x40 MLOAD SWAP1 DUP2 ADD PUSH1 0x40 MSTORE DUP1 SWAP3 SWAP2 SWAP1 DUP2 DUP2 MSTORE PUSH1 0x20 ADD DUP3 DUP1 SLOAD PUSH2 0x245 SWAP1 PUSH2 0xFAB JUMP JUMPDEST DUP1 ISZERO PUSH2 0x290 JUMPI DUP1 PUSH1 0x1F LT PUSH2 0x267 JUMPI PUSH2 0x100 DUP1 DUP4 SLOAD DIV MUL DUP4 MSTORE SWAP2 PUSH1 0x20 ADD SWAP2 PUSH2 0x290 JUMP JUMPDEST DUP3 ADD SWAP2 SWAP1 PUSH0 MSTORE PUSH1 0x20 PUSH0 KECCAK256 SWAP1 JUMPDEST DUP2 SLOAD DUP2 MSTORE SWAP1 PUSH1 0x1 ADD SWAP1 PUSH1 0x20 ADD DUP1 DUP4 GT PUSH2 0x273 JUMPI DUP3 SWAP1 SUB PUSH1 0x1F AND DUP3 ADD SWAP2 JUMPDEST POP POP POP POP POP SWAP1 DUP1 PUSH1 0x1 ADD DUP1 SLOAD PUSH2 0x2A5 SWAP1 PUSH2 0xFAB JUMP JUMPDEST DUP1 PUSH1 0x1F ADD PUSH1 0x20 DUP1 SWAP2 DIV MUL PUSH1 0x20 ADD PUSH1 0x40 MLOAD SWAP1 DUP2 ADD PUSH1 0x40 MSTORE DUP1 SWAP3 SWAP2 SWAP1 DUP2 DUP2 MSTORE PUSH1 0x20 ADD DUP3 DUP1 SLOAD PUSH2 0x2D1 SWAP1 PUSH2 0xFAB JUMP JUMPDEST DUP1 ISZERO PUSH2 0x31C JUMPI DUP1 PUSH1 0x1F LT PUSH2 0x2F3 JUMPI PUSH2 0x100 DUP1 DUP4 SLOAD DIV MUL DUP4 MSTORE SWAP2 PUSH1 0x20 ADD SWAP2 PUSH2 0x31C JUMP JUMPDEST DUP3 ADD SWAP2 SWAP1 PUSH0 MSTORE PUSH1 0x20 PUSH0 KECCAK256 SWAP1 JUMPDEST DUP2 SLOAD DUP2 MSTORE SWAP1 PUSH1 0x1 ADD SWAP1 PUSH1 0x20 ADD DUP1 DUP4 GT PUSH2 0x2FF JUMPI DUP3 SWAP1 SUB PUSH1 0x1F AND DUP3 ADD SWAP2 JUMPDEST POP POP POP POP POP SWAP1 DUP1 PUSH1 0x2 ADD SLOAD SWAP1 POP DUP4 JUMP JUMPDEST CALLER PUSH20 0xFFFFFFFFFFFFFFFFFFFFFFFFFFFFFFFFFFFFFFFF AND PUSH0 DUP1 SLOAD SWAP1 PUSH2 0x100 EXP SWAP1 DIV PUSH20 0xFFFFFFFFFFFFFFFFFFFFFFFFFFFFFFFFFFFFFFFF AND PUSH20 0xFFFFFFFFFFFFFFFFFFFFFFFFFFFFFFFFFFFFFFFF AND EQ PUSH2 0x3B9 JUMPI PUSH1 0x40 MLOAD PUSH32 0x8C379A000000000000000000000000000000000000000000000000000000000 DUP2 MSTORE PUSH1 0x4 ADD PUSH2 0x3B0 SWAP1 PUSH2 0x104B JUMP JUMPDEST PUSH1 0x40 MLOAD DUP1 SWAP2 SUB SWAP1 REVERT JUMPDEST DUP1 PUSH1 0x1 DUP1 SLOAD SWAP1 POP DUP2 LT PUSH2 0x401 JUMPI PUSH1 0x40 MLOAD PUSH32 0x8C379A000000000000000000000000000000000000000000000000000000000 DUP2 MSTORE PUSH1 0x4 ADD PUSH2 0x3F8 SWAP1 PUSH2 0x10B3 JUMP JUMPDEST PUSH1 0x40 MLOAD DUP1 SWAP2 SUB SWAP1 REVERT JUMPDEST DUP3 PUSH1 0x1 DUP4 DUP2 SLOAD DUP2 LT PUSH2 0x416 JUMPI PUSH2 0x415 PUSH2 0x10D1 JUMP JUMPDEST JUMPDEST SWAP1 PUSH0 MSTORE PUSH1 0x20 PUSH0 KECCAK256 SWAP1 PUSH1 0x3 MUL ADD PUSH1 0x1 ADD SWAP1 DUP2 PUSH2 0x431 SWAP2 SWAP1 PUSH2 0x129B JUMP JUMPDEST POP PUSH32 0x4AAFDC740A4D716C504A2443BE69D4FB3FA6202BEF5E9142EA04152DFCEB44A9 DUP4 DUP4 PUSH1 0x40 MLOAD PUSH2 0x463 SWAP3 SWAP2 SWAP1 PUSH2 0xDB3 JUMP JUMPDEST PUSH1 0x40 MLOAD DUP1 SWAP2 SUB SWAP1 LOG1 POP POP POP JUMP JUMPDEST PUSH1 0x60 PUSH0 DUP1 PUSH1 0x40 MLOAD DUP1 PUSH1 0x40 ADD PUSH1 0x40 MSTORE DUP1 PUSH1 0x4 DUP2 MSTORE PUSH1 0x20 ADD PUSH32 0x4E6F6E6500000000000000000000000000000000000000000000000000000000 DUP2 MSTORE POP SWAP1 POP PUSH0 DUP1 JUMPDEST PUSH1 0x1 DUP1 SLOAD SWAP1 POP DUP2 LT ISZERO PUSH2 0x5C6 JUMPI DUP2 PUSH1 0x1 DUP3 DUP2 SLOAD DUP2 LT PUSH2 0x4D1 JUMPI PUSH2 0x4D0 PUSH2 0x10D1 JUMP JUMPDEST JUMPDEST SWAP1 PUSH0 MSTORE PUSH1 0x20 PUSH0 KECCAK256 SWAP1 PUSH1 0x3 MUL ADD PUSH1 0x2 ADD SLOAD GT ISZERO PUSH2 0x5B9 JUMPI PUSH1 0x1 DUP2 DUP2 SLOAD DUP2 LT PUSH2 0x4FB JUMPI PUSH2 0x4FA PUSH2 0x10D1 JUMP JUMPDEST JUMPDEST SWAP1 PUSH0 MSTORE PUSH1 0x20 PUSH0 KECCAK256 SWAP1 PUSH1 0x3 MUL ADD PUSH0 ADD DUP1 SLOAD PUSH2 0x514 SWAP1 PUSH2 0xFAB JUMP JUMPDEST DUP1 PUSH1 0x1F ADD PUSH1 0x20 DUP1 SWAP2 DIV MUL PUSH1 0x20 ADD PUSH1 0x40 MLOAD SWAP1 DUP2 ADD PUSH1 0x40 MSTORE DUP1 SWAP3 SWAP2 SWAP1 DUP2 DUP2 MSTORE PUSH1 0x20 ADD DUP3 DUP1 SLOAD PUSH2 0x540 SWAP1 PUSH2 0xFAB JUMP JUMPDEST DUP1 ISZERO PUSH2 0x58B JUMPI DUP1 PUSH1 0x1F LT PUSH2 0x562 JUMPI PUSH2 0x100 DUP1 DUP4 SLOAD DIV MUL DUP4 MSTORE SWAP2 PUSH1 0x20 ADD SWAP2 PUSH2 0x58B JUMP JUMPDEST DUP3 ADD SWAP2 SWAP1 PUSH0 MSTORE PUSH1 0x20 PUSH0 KECCAK256 SWAP1 JUMPDEST DUP2 SLOAD DUP2 MSTORE SWAP1 PUSH1 0x1 ADD SWAP1 PUSH1 0x20 ADD DUP1 DUP4 GT PUSH2 0x56E JUMPI DUP3 SWAP1 SUB PUSH1 0x1F AND DUP3 ADD SWAP2 JUMPDEST POP POP POP POP POP SWAP3 POP PUSH1 0x1 DUP2 DUP2 SLOAD DUP2 LT PUSH2 0x5A6 JUMPI PUSH2 0x5A5 PUSH2 0x10D1 JUMP JUMPDEST JUMPDEST SWAP1 PUSH0 MSTORE PUSH1 0x20 PUSH0 KECCAK256 SWAP1 PUSH1 0x3 MUL ADD PUSH1 0x2 ADD SLOAD SWAP2 POP JUMPDEST DUP1 DUP1 PUSH1 0x1 ADD SWAP2 POP POP PUSH2 0x4AF JUMP JUMPDEST POP DUP2 DUP2 SWAP4 POP SWAP4 POP POP POP SWAP1 SWAP2 JUMP JUMPDEST PUSH0 PUSH1 0x14 SWAP1 SLOAD SWAP1 PUSH2 0x100 EXP SWAP1 DIV PUSH1 0xFF AND DUP2 JUMP JUMPDEST CALLER PUSH20 0xFFFFFFFFFFFFFFFFFFFFFFFFFFFFFFFFFFFFFFFF AND PUSH0 DUP1 SLOAD SWAP1 PUSH2 0x100 EXP SWAP1 DIV PUSH20 0xFFFFFFFFFFFFFFFFFFFFFFFFFFFFFFFFFFFFFFFF AND PUSH20 0xFFFFFFFFFFFFFFFFFFFFFFFFFFFFFFFFFFFFFFFF AND EQ PUSH2 0x672 JUMPI PUSH1 0x40 MLOAD PUSH32 0x8C379A000000000000000000000000000000000000000000000000000000000 DUP2 MSTORE PUSH1 0x4 ADD PUSH2 0x669 SWAP1 PUSH2 0x104B JUMP JUMPDEST PUSH1 0x40 MLOAD DUP1 SWAP2 SUB SWAP1 REVERT JUMPDEST DUP2 PUSH1 0x3 DUP2 PUSH1 0x40 MLOAD PUSH2 0x683 SWAP2 SWAP1 PUSH2 0x13A4 JUMP JUMPDEST SWAP1 DUP2 MSTORE PUSH1 0x20 ADD PUSH1 0x40 MLOAD DUP1 SWAP2 SUB SWAP1 KECCAK256 PUSH0 SWAP1 SLOAD SWAP1 PUSH2 0x100 EXP SWAP1 DIV PUSH1 0xFF AND ISZERO PUSH2 0x6DE JUMPI PUSH1 0x40 MLOAD PUSH32 0x8C379A000000000000000000000000000000000000000000000000000000000 DUP2 MSTORE PUSH1 0x4 ADD PUSH2 0x6D5 SWAP1 PUSH2 0x1404 JUMP JUMPDEST PUSH1 0x40 MLOAD DUP1 SWAP2 SUB SWAP1 REVERT JUMPDEST PUSH1 0x1 PUSH1 0x40 MLOAD DUP1 PUSH1 0x60 ADD PUSH1 0x40 MSTORE DUP1 DUP6 DUP2 MSTORE PUSH1 0x20 ADD DUP5 DUP2 MSTORE PUSH1 0x20 ADD PUSH0 DUP2 MSTORE POP SWAP1 DUP1 PUSH1 0x1 DUP2 SLOAD ADD DUP1 DUP3 SSTORE DUP1 SWAP2 POP POP PUSH1 0x1 SWAP1 SUB SWAP1 PUSH0 MSTORE PUSH1 0x20 PUSH0 KECCAK256 SWAP1 PUSH1 0x3 MUL ADD PUSH0 SWAP1 SWAP2 SWAP1 SWAP2 SWAP1 SWAP2 POP PUSH0 DUP3 ADD MLOAD DUP2 PUSH0 ADD SWAP1 DUP2 PUSH2 0x734 SWAP2 SWAP1 PUSH2 0x129B JUMP JUMPDEST POP PUSH1 0x20 DUP3 ADD MLOAD DUP2 PUSH1 0x1 ADD SWAP1 DUP2 PUSH2 0x74A SWAP2 SWAP1 PUSH2 0x129B JUMP JUMPDEST POP PUSH1 0x40 DUP3 ADD MLOAD DUP2 PUSH1 0x2 ADD SSTORE POP POP PUSH1 0x1 PUSH1 0x3 DUP5 PUSH1 0x40 MLOAD PUSH2 0x769 SWAP2 SWAP1 PUSH2 0x13A4 JUMP JUMPDEST SWAP1 DUP2 MSTORE PUSH1 0x20 ADD PUSH1 0x40 MLOAD DUP1 SWAP2 SUB SWAP1 KECCAK256 PUSH0 PUSH2 0x100 EXP DUP2 SLOAD DUP2 PUSH1 0xFF MUL NOT AND SWAP1 DUP4 ISZERO ISZERO MUL OR SWAP1 SSTORE POP PUSH32 0x1A51752AA6F33B6CA737E2496A349F112944C0BB58BD54D60D6CF2B57C681B6C DUP4 DUP4 PUSH1 0x40 MLOAD PUSH2 0x7BE SWAP3 SWAP2 SWAP1 PUSH2 0x1422 JUMP JUMPDEST PUSH1 0x40 MLOAD DUP1 SWAP2 SUB SWAP1 LOG1 POP POP POP JUMP JUMPDEST PUSH1 0x2 PUSH0 CALLER PUSH20 0xFFFFFFFFFFFFFFFFFFFFFFFFFFFFFFFFFFFFFFFF AND PUSH20 0xFFFFFFFFFFFFFFFFFFFFFFFFFFFFFFFFFFFFFFFF AND DUP2 MSTORE PUSH1 0x20 ADD SWAP1 DUP2 MSTORE PUSH1 0x20 ADD PUSH0 KECCAK256 PUSH0 SWAP1 SLOAD SWAP1 PUSH2 0x100 EXP SWAP1 DIV PUSH1 0xFF AND ISZERO PUSH2 0x855 JUMPI PUSH1 0x40 MLOAD PUSH32 0x8C379A000000000000000000000000000000000000000000000000000000000 DUP2 MSTORE PUSH1 0x4 ADD PUSH2 0x84C SWAP1 PUSH2 0x14A1 JUMP JUMPDEST PUSH1 0x40 MLOAD DUP1 SWAP2 SUB SWAP1 REVERT JUMPDEST PUSH0 PUSH1 0x14 SWAP1 SLOAD SWAP1 PUSH2 0x100 EXP SWAP1 DIV PUSH1 0xFF AND PUSH2 0x8A3 JUMPI PUSH1 0x40 MLOAD PUSH32 0x8C379A000000000000000000000000000000000000000000000000000000000 DUP2 MSTORE PUSH1 0x4 ADD PUSH2 0x89A SWAP1 PUSH2 0x1509 JUMP JUMPDEST PUSH1 0x40 MLOAD DUP1 SWAP2 SUB SWAP1 REVERT JUMPDEST DUP1 PUSH1 0x1 DUP1 SLOAD SWAP1 POP DUP2 LT PUSH2 0x8EB JUMPI PUSH1 0x40 MLOAD PUSH32 0x8C379A000000000000000000000000000000000000000000000000000000000 DUP2 MSTORE PUSH1 0x4 ADD PUSH2 0x8E2 SWAP1 PUSH2 0x10B3 JUMP JUMPDEST PUSH1 0x40 MLOAD DUP1 SWAP2 SUB SWAP1 REVERT JUMPDEST PUSH1 0x1 DUP1 DUP4 DUP2 SLOAD DUP2 LT PUSH2 0x900 JUMPI PUSH2 0x8FF PUSH2 0x10D1 JUMP JUMPDEST JUMPDEST SWAP1 PUSH0 MSTORE PUSH1 0x20 PUSH0 KECCAK256 SWAP1 PUSH1 0x3 MUL ADD PUSH1 0x2 ADD PUSH0 DUP3 DUP3 SLOAD PUSH2 0x91D SWAP2 SWAP1 PUSH2 0x1554 JUMP JUMPDEST SWAP3 POP POP DUP2 SWAP1 SSTORE POP PUSH1 0x1 PUSH1 0x2 PUSH0 CALLER PUSH20 0xFFFFFFFFFFFFFFFFFFFFFFFFFFFFFFFFFFFFFFFF AND PUSH20 0xFFFFFFFFFFFFFFFFFFFFFFFFFFFFFFFFFFFFFFFF AND DUP2 MSTORE PUSH1 0x20 ADD SWAP1 DUP2 MSTORE PUSH1 0x20 ADD PUSH0 KECCAK256 PUSH0 PUSH2 0x100 EXP DUP2 SLOAD DUP2 PUSH1 0xFF MUL NOT AND SWAP1 DUP4 ISZERO ISZERO MUL OR SWAP1 SSTORE POP PUSH32 0x4D99B957A2BC29A30EBD96A7BE8E68FE50A3C701DB28A91436490B7D53870CA4 CALLER DUP4 PUSH1 0x40 MLOAD PUSH2 0x9AA SWAP3 SWAP2 SWAP1 PUSH2 0x1587 JUMP JUMPDEST PUSH1 0x40 MLOAD DUP1 SWAP2 SUB SWAP1 LOG1 POP POP JUMP JUMPDEST PUSH0 DUP1 SLOAD SWAP1 PUSH2 0x100 EXP SWAP1 DIV PUSH20 0xFFFFFFFFFFFFFFFFFFFFFFFFFFFFFFFFFFFFFFFF AND DUP2 JUMP JUMPDEST PUSH1 0x2 PUSH1 0x20 MSTORE DUP1 PUSH0 MSTORE PUSH1 0x40 PUSH0 KECCAK256 PUSH0 SWAP2 POP SLOAD SWAP1 PUSH2 0x100 EXP SWAP1 DIV PUSH1 0xFF AND DUP2 JUMP JUMPDEST CALLER PUSH20 0xFFFFFFFFFFFFFFFFFFFFFFFFFFFFFFFFFFFFFFFF AND PUSH0 DUP1 SLOAD SWAP1 PUSH2 0x100 EXP SWAP1 DIV PUSH20 0xFFFFFFFFFFFFFFFFFFFFFFFFFFFFFFFFFFFFFFFF AND PUSH20 0xFFFFFFFFFFFFFFFFFFFFFFFFFFFFFFFFFFFFFFFF AND EQ PUSH2 0xA83 JUMPI PUSH1 0x40 MLOAD PUSH32 0x8C379A000000000000000000000000000000000000000000000000000000000 DUP2 MSTORE PUSH1 0x4 ADD PUSH2 0xA7A SWAP1 PUSH2 0x104B JUMP JUMPDEST PUSH1 0x40 MLOAD DUP1 SWAP2 SUB SWAP1 REVERT JUMPDEST PUSH0 PUSH1 0x14 SWAP1 SLOAD SWAP1 PUSH2 0x100 EXP SWAP1 DIV PUSH1 0xFF AND ISZERO PUSH0 PUSH1 0x14 PUSH2 0x100 EXP DUP2 SLOAD DUP2 PUSH1 0xFF MUL NOT AND SWAP1 DUP4 ISZERO ISZERO MUL OR SWAP1 SSTORE POP JUMP JUMPDEST PUSH1 0x3 DUP2 DUP1 MLOAD PUSH1 0x20 DUP2 ADD DUP3 ADD DUP1 MLOAD DUP5 DUP3 MSTORE PUSH1 0x20 DUP4 ADD PUSH1 0x20 DUP6 ADD KECCAK256 DUP2 DUP4 MSTORE DUP1 SWAP6 POP POP POP POP POP POP PUSH0 SWAP2 POP SLOAD SWAP1 PUSH2 0x100 EXP SWAP1 DIV PUSH1 0xFF AND DUP2 JUMP JUMPDEST PUSH0 PUSH1 0x40 MLOAD SWAP1 POP SWAP1 JUMP JUMPDEST PUSH0 DUP1 REVERT JUMPDEST PUSH0 DUP1 REVERT JUMPDEST PUSH0 DUP2 SWAP1 POP SWAP2 SWAP1 POP JUMP JUMPDEST PUSH2 0xB05 DUP2 PUSH2 0xAF3 JUMP JUMPDEST DUP2 EQ PUSH2 0xB0F JUMPI PUSH0 DUP1 REVERT JUMPDEST POP JUMP JUMPDEST PUSH0 DUP2 CALLDATALOAD SWAP1 POP PUSH2 0xB20 DUP2 PUSH2 0xAFC JUMP JUMPDEST SWAP3 SWAP2 POP POP JUMP JUMPDEST PUSH0 PUSH1 0x20 DUP3 DUP5 SUB SLT ISZERO PUSH2 0xB3B JUMPI PUSH2 0xB3A PUSH2 0xAEB JUMP JUMPDEST JUMPDEST PUSH0 PUSH2 0xB48 DUP5 DUP3 DUP6 ADD PUSH2 0xB12 JUMP JUMPDEST SWAP2 POP POP SWAP3 SWAP2 POP POP JUMP JUMPDEST PUSH0 DUP2 MLOAD SWAP1 POP SWAP2 SWAP1 POP JUMP JUMPDEST PUSH0 DUP3 DUP3 MSTORE PUSH1 0x20 DUP3 ADD SWAP1 POP SWAP3 SWAP2 POP POP JUMP JUMPDEST PUSH0 JUMPDEST DUP4 DUP2 LT ISZERO PUSH2 0xB88 JUMPI DUP1 DUP3 ADD MLOAD DUP2 DUP5 ADD MSTORE PUSH1 0x20 DUP2 ADD SWAP1 POP PUSH2 0xB6D JUMP JUMPDEST PUSH0 DUP5 DUP5 ADD MSTORE POP POP POP POP JUMP JUMPDEST PUSH0 PUSH1 0x1F NOT PUSH1 0x1F DUP4 ADD AND SWAP1 POP SWAP2 SWAP1 POP JUMP JUMPDEST PUSH0 PUSH2 0xBAD DUP3 PUSH2 0xB51 JUMP JUMPDEST PUSH2 0xBB7 DUP2 DUP6 PUSH2 0xB5B JUMP JUMPDEST SWAP4 POP PUSH2 0xBC7 DUP2 DUP6 PUSH1 0x20 DUP7 ADD PUSH2 0xB6B JUMP JUMPDEST PUSH2 0xBD0 DUP2 PUSH2 0xB93 JUMP JUMPDEST DUP5 ADD SWAP2 POP POP SWAP3 SWAP2 POP POP JUMP JUMPDEST PUSH2 0xBE4 DUP2 PUSH2 0xAF3 JUMP JUMPDEST DUP3 MSTORE POP POP JUMP JUMPDEST PUSH0 PUSH1 0x60 DUP3 ADD SWAP1 POP DUP2 DUP2 SUB PUSH0 DUP4 ADD MSTORE PUSH2 0xC02 DUP2 DUP7 PUSH2 0xBA3 JUMP JUMPDEST SWAP1 POP DUP2 DUP2 SUB PUSH1 0x20 DUP4 ADD MSTORE PUSH2 0xC16 DUP2 DUP6 PUSH2 0xBA3 JUMP JUMPDEST SWAP1 POP PUSH2 0xC25 PUSH1 0x40 DUP4 ADD DUP5 PUSH2 0xBDB JUMP JUMPDEST SWAP5 SWAP4 POP POP POP POP JUMP JUMPDEST PUSH0 DUP1 REVERT JUMPDEST PUSH0 DUP1 REVERT JUMPDEST PUSH32 0x4E487B7100000000000000000000000000000000000000000000000000000000 PUSH0 MSTORE PUSH1 0x41 PUSH1 0x4 MSTORE PUSH1 0x24 PUSH0 REVERT JUMPDEST PUSH2 0xC6B DUP3 PUSH2 0xB93 JUMP JUMPDEST DUP2 ADD DUP2 DUP2 LT PUSH8 0xFFFFFFFFFFFFFFFF DUP3 GT OR ISZERO PUSH2 0xC8A JUMPI PUSH2 0xC89 PUSH2 0xC35 JUMP JUMPDEST JUMPDEST DUP1 PUSH1 0x40 MSTORE POP POP POP JUMP JUMPDEST PUSH0 PUSH2 0xC9C PUSH2 0xAE2 JUMP JUMPDEST SWAP1 POP PUSH2 0xCA8 DUP3 DUP3 PUSH2 0xC62 JUMP JUMPDEST SWAP2 SWAP1 POP JUMP JUMPDEST PUSH0 PUSH8 0xFFFFFFFFFFFFFFFF DUP3 GT ISZERO PUSH2 0xCC7 JUMPI PUSH2 0xCC6 PUSH2 0xC35 JUMP JUMPDEST JUMPDEST PUSH2 0xCD0 DUP3 PUSH2 0xB93 JUMP JUMPDEST SWAP1 POP PUSH1 0x20 DUP2 ADD SWAP1 POP SWAP2 SWAP1 POP JUMP JUMPDEST DUP3 DUP2 DUP4 CALLDATACOPY PUSH0 DUP4 DUP4 ADD MSTORE POP POP POP JUMP JUMPDEST PUSH0 PUSH2 0xCFD PUSH2 0xCF8 DUP5 PUSH2 0xCAD JUMP JUMPDEST PUSH2 0xC93 JUMP JUMPDEST SWAP1 POP DUP3 DUP2 MSTORE PUSH1 0x20 DUP2 ADD DUP5 DUP5 DUP5 ADD GT ISZERO PUSH2 0xD19 JUMPI PUSH2 0xD18 PUSH2 0xC31 JUMP JUMPDEST JUMPDEST PUSH2 0xD24 DUP5 DUP3 DUP6 PUSH2 0xCDD JUMP JUMPDEST POP SWAP4 SWAP3 POP POP POP JUMP JUMPDEST PUSH0 DUP3 PUSH1 0x1F DUP4 ADD SLT PUSH2 0xD40 JUMPI PUSH2 0xD3F PUSH2 0xC2D JUMP JUMPDEST JUMPDEST DUP2 CALLDATALOAD PUSH2 0xD50 DUP5 DUP3 PUSH1 0x20 DUP7 ADD PUSH2 0xCEB JUMP JUMPDEST SWAP2 POP POP SWAP3 SWAP2 POP POP JUMP JUMPDEST PUSH0 DUP1 PUSH1 0x40 DUP4 DUP6 SUB SLT ISZERO PUSH2 0xD6F JUMPI PUSH2 0xD6E PUSH2 0xAEB JUMP JUMPDEST JUMPDEST PUSH0 DUP4 ADD CALLDATALOAD PUSH8 0xFFFFFFFFFFFFFFFF DUP2 GT ISZERO PUSH2 0xD8C JUMPI PUSH2 0xD8B PUSH2 0xAEF JUMP JUMPDEST JUMPDEST PUSH2 0xD98 DUP6 DUP3 DUP7 ADD PUSH2 0xD2C JUMP JUMPDEST SWAP3 POP POP PUSH1 0x20 PUSH2 0xDA9 DUP6 DUP3 DUP7 ADD PUSH2 0xB12 JUMP JUMPDEST SWAP2 POP POP SWAP3 POP SWAP3 SWAP1 POP JUMP JUMPDEST PUSH0 PUSH1 0x40 DUP3 ADD SWAP1 POP DUP2 DUP2 SUB PUSH0 DUP4 ADD MSTORE PUSH2 0xDCB DUP2 DUP6 PUSH2 0xBA3 JUMP JUMPDEST SWAP1 POP PUSH2 0xDDA PUSH1 0x20 DUP4 ADD DUP5 PUSH2 0xBDB JUMP JUMPDEST SWAP4 SWAP3 POP POP POP JUMP JUMPDEST PUSH0 DUP2 ISZERO ISZERO SWAP1 POP SWAP2 SWAP1 POP JUMP JUMPDEST PUSH2 0xDF5 DUP2 PUSH2 0xDE1 JUMP JUMPDEST DUP3 MSTORE POP POP JUMP JUMPDEST PUSH0 PUSH1 0x20 DUP3 ADD SWAP1 POP PUSH2 0xE0E PUSH0 DUP4 ADD DUP5 PUSH2 0xDEC JUMP JUMPDEST SWAP3 SWAP2 POP POP JUMP JUMPDEST PUSH0 DUP1 PUSH1 0x40 DUP4 DUP6 SUB SLT ISZERO PUSH2 0xE2A JUMPI PUSH2 0xE29 PUSH2 0xAEB JUMP JUMPDEST JUMPDEST PUSH0 DUP4 ADD CALLDATALOAD PUSH8 0xFFFFFFFFFFFFFFFF DUP2 GT ISZERO PUSH2 0xE47 JUMPI PUSH2 0xE46 PUSH2 0xAEF JUMP JUMPDEST JUMPDEST PUSH2 0xE53 DUP6 DUP3 DUP7 ADD PUSH2 0xD2C JUMP JUMPDEST SWAP3 POP POP PUSH1 0x20 DUP4 ADD CALLDATALOAD PUSH8 0xFFFFFFFFFFFFFFFF DUP2 GT ISZERO PUSH2 0xE74 JUMPI PUSH2 0xE73 PUSH2 0xAEF JUMP JUMPDEST JUMPDEST PUSH2 0xE80 DUP6 DUP3 DUP7 ADD PUSH2 0xD2C JUMP JUMPDEST SWAP2 POP POP SWAP3 POP SWAP3 SWAP1 POP JUMP JUMPDEST PUSH0 PUSH20 0xFFFFFFFFFFFFFFFFFFFFFFFFFFFFFFFFFFFFFFFF DUP3 AND SWAP1 POP SWAP2 SWAP1 POP JUMP JUMPDEST PUSH0 PUSH2 0xEB3 DUP3 PUSH2 0xE8A JUMP JUMPDEST SWAP1 POP SWAP2 SWAP1 POP JUMP JUMPDEST PUSH2 0xEC3 DUP2 PUSH2 0xEA9 JUMP JUMPDEST DUP3 MSTORE POP POP JUMP JUMPDEST PUSH0 PUSH1 0x20 DUP3 ADD SWAP1 POP PUSH2 0xEDC PUSH0 DUP4 ADD DUP5 PUSH2 0xEBA JUMP JUMPDEST SWAP3 SWAP2 POP POP JUMP JUMPDEST PUSH2 0xEEB DUP2 PUSH2 0xEA9 JUMP JUMPDEST DUP2 EQ PUSH2 0xEF5 JUMPI PUSH0 DUP1 REVERT JUMPDEST POP JUMP JUMPDEST PUSH0 DUP2 CALLDATALOAD SWAP1 POP PUSH2 0xF06 DUP2 PUSH2 0xEE2 JUMP JUMPDEST SWAP3 SWAP2 POP POP JUMP JUMPDEST PUSH0 PUSH1 0x20 DUP3 DUP5 SUB SLT ISZERO PUSH2 0xF21 JUMPI PUSH2 0xF20 PUSH2 0xAEB JUMP JUMPDEST JUMPDEST PUSH0 PUSH2 0xF2E DUP5 DUP3 DUP6 ADD PUSH2 0xEF8 JUMP JUMPDEST SWAP2 POP POP SWAP3 SWAP2 POP POP JUMP JUMPDEST PUSH0 PUSH1 0x20 DUP3 DUP5 SUB SLT ISZERO PUSH2 0xF4C JUMPI PUSH2 0xF4B PUSH2 0xAEB JUMP JUMPDEST JUMPDEST PUSH0 DUP3 ADD CALLDATALOAD PUSH8 0xFFFFFFFFFFFFFFFF DUP2 GT ISZERO PUSH2 0xF69 JUMPI PUSH2 0xF68 PUSH2 0xAEF JUMP JUMPDEST JUMPDEST PUSH2 0xF75 DUP5 DUP3 DUP6 ADD PUSH2 0xD2C JUMP JUMPDEST SWAP2 POP POP SWAP3 SWAP2 POP POP JUMP JUMPDEST PUSH32 0x4E487B7100000000000000000000000000000000000000000000000000000000 PUSH0 MSTORE PUSH1 0x22 PUSH1 0x4 MSTORE PUSH1 0x24 PUSH0 REVERT JUMPDEST PUSH0 PUSH1 0x2 DUP3 DIV SWAP1 POP PUSH1 0x1 DUP3 AND DUP1 PUSH2 0xFC2 JUMPI PUSH1 0x7F DUP3 AND SWAP2 POP JUMPDEST PUSH1 0x20 DUP3 LT DUP2 SUB PUSH2 0xFD5 JUMPI PUSH2 0xFD4 PUSH2 0xF7E JUMP JUMPDEST JUMPDEST POP SWAP2 SWAP1 POP JUMP JUMPDEST PUSH32 0x4F6E6C7920746865206F776E65722063616E2073656E6420612050726F706F73 PUSH0 DUP3 ADD MSTORE PUSH32 0x616C2E0000000000000000000000000000000000000000000000000000000000 PUSH1 0x20 DUP3 ADD MSTORE POP JUMP JUMPDEST PUSH0 PUSH2 0x1035 PUSH1 0x23 DUP4 PUSH2 0xB5B JUMP JUMPDEST SWAP2 POP PUSH2 0x1040 DUP3 PUSH2 0xFDB JUMP JUMPDEST PUSH1 0x40 DUP3 ADD SWAP1 POP SWAP2 SWAP1 POP JUMP JUMPDEST PUSH0 PUSH1 0x20 DUP3 ADD SWAP1 POP DUP2 DUP2 SUB PUSH0 DUP4 ADD MSTORE PUSH2 0x1062 DUP2 PUSH2 0x1029 JUMP JUMPDEST SWAP1 POP SWAP2 SWAP1 POP JUMP JUMPDEST PUSH32 0x496E76616C69642070726F706F73616C20696E64657800000000000000000000 PUSH0 DUP3 ADD MSTORE POP JUMP JUMPDEST PUSH0 PUSH2 0x109D PUSH1 0x16 DUP4 PUSH2 0xB5B JUMP JUMPDEST SWAP2 POP PUSH2 0x10A8 DUP3 PUSH2 0x1069 JUMP JUMPDEST PUSH1 0x20 DUP3 ADD SWAP1 POP SWAP2 SWAP1 POP JUMP JUMPDEST PUSH0 PUSH1 0x20 DUP3 ADD SWAP1 POP DUP2 DUP2 SUB PUSH0 DUP4 ADD MSTORE PUSH2 0x10CA DUP2 PUSH2 0x1091 JUMP JUMPDEST SWAP1 POP SWAP2 SWAP1 POP JUMP JUMPDEST PUSH32 0x4E487B7100000000000000000000000000000000000000000000000000000000 PUSH0 MSTORE PUSH1 0x32 PUSH1 0x4 MSTORE PUSH1 0x24 PUSH0 REVERT JUMPDEST PUSH0 DUP2 SWAP1 POP DUP2 PUSH0 MSTORE PUSH1 0x20 PUSH0 KECCAK256 SWAP1 POP SWAP2 SWAP1 POP JUMP JUMPDEST PUSH0 PUSH1 0x20 PUSH1 0x1F DUP4 ADD DIV SWAP1 POP SWAP2 SWAP1 POP JUMP JUMPDEST PUSH0 DUP3 DUP3 SHL SWAP1 POP SWAP3 SWAP2 POP POP JUMP JUMPDEST PUSH0 PUSH1 0x8 DUP4 MUL PUSH2 0x115A PUSH32 0xFFFFFFFFFFFFFFFFFFFFFFFFFFFFFFFFFFFFFFFFFFFFFFFFFFFFFFFFFFFFFFFF DUP3 PUSH2 0x111F JUMP JUMPDEST PUSH2 0x1164 DUP7 DUP4 PUSH2 0x111F JUMP JUMPDEST SWAP6 POP DUP1 NOT DUP5 AND SWAP4 POP DUP1 DUP7 AND DUP5 OR SWAP3 POP POP POP SWAP4 SWAP3 POP POP POP JUMP JUMPDEST PUSH0 DUP2 SWAP1 POP SWAP2 SWAP1 POP JUMP JUMPDEST PUSH0 PUSH2 0x119F PUSH2 0x119A PUSH2 0x1195 DUP5 PUSH2 0xAF3 JUMP JUMPDEST PUSH2 0x117C JUMP JUMPDEST PUSH2 0xAF3 JUMP JUMPDEST SWAP1 POP SWAP2 SWAP1 POP JUMP JUMPDEST PUSH0 DUP2 SWAP1 POP SWAP2 SWAP1 POP JUMP JUMPDEST PUSH2 0x11B8 DUP4 PUSH2 0x1185 JUMP JUMPDEST PUSH2 0x11CC PUSH2 0x11C4 DUP3 PUSH2 0x11A6 JUMP JUMPDEST DUP5 DUP5 SLOAD PUSH2 0x112B JUMP JUMPDEST DUP3 SSTORE POP POP POP POP JUMP JUMPDEST PUSH0 SWAP1 JUMP JUMPDEST PUSH2 0x11E0 PUSH2 0x11D4 JUMP JUMPDEST PUSH2 0x11EB DUP2 DUP5 DUP5 PUSH2 0x11AF JUMP JUMPDEST POP POP POP JUMP JUMPDEST JUMPDEST DUP2 DUP2 LT ISZERO PUSH2 0x120E JUMPI PUSH2 0x1203 PUSH0 DUP3 PUSH2 0x11D8 JUMP JUMPDEST PUSH1 0x1 DUP2 ADD SWAP1 POP PUSH2 0x11F1 JUMP JUMPDEST POP POP JUMP JUMPDEST PUSH1 0x1F DUP3 GT ISZERO PUSH2 0x1253 JUMPI PUSH2 0x1224 DUP2 PUSH2 0x10FE JUMP JUMPDEST PUSH2 0x122D DUP5 PUSH2 0x1110 JUMP JUMPDEST DUP2 ADD PUSH1 0x20 DUP6 LT ISZERO PUSH2 0x123C JUMPI DUP2 SWAP1 POP JUMPDEST PUSH2 0x1250 PUSH2 0x1248 DUP6 PUSH2 0x1110 JUMP JUMPDEST DUP4 ADD DUP3 PUSH2 0x11F0 JUMP JUMPDEST POP POP JUMPDEST POP POP POP JUMP JUMPDEST PUSH0 DUP3 DUP3 SHR SWAP1 POP SWAP3 SWAP2 POP POP JUMP JUMPDEST PUSH0 PUSH2 0x1273 PUSH0 NOT DUP5 PUSH1 0x8 MUL PUSH2 0x1258 JUMP JUMPDEST NOT DUP1 DUP4 AND SWAP2 POP POP SWAP3 SWAP2 POP POP JUMP JUMPDEST PUSH0 PUSH2 0x128B DUP4 DUP4 PUSH2 0x1264 JUMP JUMPDEST SWAP2 POP DUP3 PUSH1 0x2 MUL DUP3 OR SWAP1 POP SWAP3 SWAP2 POP POP JUMP JUMPDEST PUSH2 0x12A4 DUP3 PUSH2 0xB51 JUMP JUMPDEST PUSH8 0xFFFFFFFFFFFFFFFF DUP2 GT ISZERO PUSH2 0x12BD JUMPI PUSH2 0x12BC PUSH2 0xC35 JUMP JUMPDEST JUMPDEST PUSH2 0x12C7 DUP3 SLOAD PUSH2 0xFAB JUMP JUMPDEST PUSH2 0x12D2 DUP3 DUP3 DUP6 PUSH2 0x1212 JUMP JUMPDEST PUSH0 PUSH1 0x20 SWAP1 POP PUSH1 0x1F DUP4 GT PUSH1 0x1 DUP2 EQ PUSH2 0x1303 JUMPI PUSH0 DUP5 ISZERO PUSH2 0x12F1 JUMPI DUP3 DUP8 ADD MLOAD SWAP1 POP JUMPDEST PUSH2 0x12FB DUP6 DUP3 PUSH2 0x1280 JUMP JUMPDEST DUP7 SSTORE POP PUSH2 0x1362 JUMP JUMPDEST PUSH1 0x1F NOT DUP5 AND PUSH2 0x1311 DUP7 PUSH2 0x10FE JUMP JUMPDEST PUSH0 JUMPDEST DUP3 DUP2 LT ISZERO PUSH2 0x1338 JUMPI DUP5 DUP10 ADD MLOAD DUP3 SSTORE PUSH1 0x1 DUP3 ADD SWAP2 POP PUSH1 0x20 DUP6 ADD SWAP5 POP PUSH1 0x20 DUP2 ADD SWAP1 POP PUSH2 0x1313 JUMP JUMPDEST DUP7 DUP4 LT ISZERO PUSH2 0x1355 JUMPI DUP5 DUP10 ADD MLOAD PUSH2 0x1351 PUSH1 0x1F DUP10 AND DUP3 PUSH2 0x1264 JUMP JUMPDEST DUP4 SSTORE POP JUMPDEST PUSH1 0x1 PUSH1 0x2 DUP9 MUL ADD DUP9 SSTORE POP POP POP JUMPDEST POP POP POP POP POP POP JUMP JUMPDEST PUSH0 DUP2 SWAP1 POP SWAP3 SWAP2 POP POP JUMP JUMPDEST PUSH0 PUSH2 0x137E DUP3 PUSH2 0xB51 JUMP JUMPDEST PUSH2 0x1388 DUP2 DUP6 PUSH2 0x136A JUMP JUMPDEST SWAP4 POP PUSH2 0x1398 DUP2 DUP6 PUSH1 0x20 DUP7 ADD PUSH2 0xB6B JUMP JUMPDEST DUP1 DUP5 ADD SWAP2 POP POP SWAP3 SWAP2 POP POP JUMP JUMPDEST PUSH0 PUSH2 0x13AF DUP3 DUP5 PUSH2 0x1374 JUMP JUMPDEST SWAP2 POP DUP2 SWAP1 POP SWAP3 SWAP2 POP POP JUMP JUMPDEST PUSH32 0x546865207469746C6520697320756E61626961626C6500000000000000000000 PUSH0 DUP3 ADD MSTORE POP JUMP JUMPDEST PUSH0 PUSH2 0x13EE PUSH1 0x16 DUP4 PUSH2 0xB5B JUMP JUMPDEST SWAP2 POP PUSH2 0x13F9 DUP3 PUSH2 0x13BA JUMP JUMPDEST PUSH1 0x20 DUP3 ADD SWAP1 POP SWAP2 SWAP1 POP JUMP JUMPDEST PUSH0 PUSH1 0x20 DUP3 ADD SWAP1 POP DUP2 DUP2 SUB PUSH0 DUP4 ADD MSTORE PUSH2 0x141B DUP2 PUSH2 0x13E2 JUMP JUMPDEST SWAP1 POP SWAP2 SWAP1 POP JUMP JUMPDEST PUSH0 PUSH1 0x40 DUP3 ADD SWAP1 POP DUP2 DUP2 SUB PUSH0 DUP4 ADD MSTORE PUSH2 0x143A DUP2 DUP6 PUSH2 0xBA3 JUMP JUMPDEST SWAP1 POP DUP2 DUP2 SUB PUSH1 0x20 DUP4 ADD MSTORE PUSH2 0x144E DUP2 DUP5 PUSH2 0xBA3 JUMP JUMPDEST SWAP1 POP SWAP4 SWAP3 POP POP POP JUMP JUMPDEST PUSH32 0x5573657220616C726561647920766F7465640000000000000000000000000000 PUSH0 DUP3 ADD MSTORE POP JUMP JUMPDEST PUSH0 PUSH2 0x148B PUSH1 0x12 DUP4 PUSH2 0xB5B JUMP JUMPDEST SWAP2 POP PUSH2 0x1496 DUP3 PUSH2 0x1457 JUMP JUMPDEST PUSH1 0x20 DUP3 ADD SWAP1 POP SWAP2 SWAP1 POP JUMP JUMPDEST PUSH0 PUSH1 0x20 DUP3 ADD SWAP1 POP DUP2 DUP2 SUB PUSH0 DUP4 ADD MSTORE PUSH2 0x14B8 DUP2 PUSH2 0x147F JUMP JUMPDEST SWAP1 POP SWAP2 SWAP1 POP JUMP JUMPDEST PUSH32 0x50726F706F73616C732061726520636C6F736564000000000000000000000000 PUSH0 DUP3 ADD MSTORE POP JUMP JUMPDEST PUSH0 PUSH2 0x14F3 PUSH1 0x14 DUP4 PUSH2 0xB5B JUMP JUMPDEST SWAP2 POP PUSH2 0x14FE DUP3 PUSH2 0x14BF JUMP JUMPDEST PUSH1 0x20 DUP3 ADD SWAP1 POP SWAP2 SWAP1 POP JUMP JUMPDEST PUSH0 PUSH1 0x20 DUP3 ADD SWAP1 POP DUP2 DUP2 SUB PUSH0 DUP4 ADD MSTORE PUSH2 0x1520 DUP2 PUSH2 0x14E7 JUMP JUMPDEST SWAP1 POP SWAP2 SWAP1 POP JUMP JUMPDEST PUSH32 0x4E487B7100000000000000000000000000000000000000000000000000000000 PUSH0 MSTORE PUSH1 0x11 PUSH1 0x4 MSTORE PUSH1 0x24 PUSH0 REVERT JUMPDEST PUSH0 PUSH2 0x155E DUP3 PUSH2 0xAF3 JUMP JUMPDEST SWAP2 POP PUSH2 0x1569 DUP4 PUSH2 0xAF3 JUMP JUMPDEST SWAP3 POP DUP3 DUP3 ADD SWAP1 POP DUP1 DUP3 GT ISZERO PUSH2 0x1581 JUMPI PUSH2 0x1580 PUSH2 0x1527 JUMP JUMPDEST JUMPDEST SWAP3 SWAP2 POP POP JUMP JUMPDEST PUSH0 PUSH1 0x40 DUP3 ADD SWAP1 POP PUSH2 0x159A PUSH0 DUP4 ADD DUP6 PUSH2 0xEBA JUMP JUMPDEST PUSH2 0x15A7 PUSH1 0x20 DUP4 ADD DUP5 PUSH2 0xBDB JUMP JUMPDEST SWAP4 SWAP3 POP POP POP JUMP INVALID LOG2 PUSH5 0x6970667358 0x22 SLT KECCAK256 PUSH30 0x5A2C2A4C760BF36C44724A91C9367CF033E16C492551D761AFA79AAD4F41 SGT PUSH5 0x736F6C6343 STOP ADDMOD XOR STOP CALLER "
				},
				"gasEstimates": {
					"creation": {
						"codeDepositCost": "1120800",
						"executionCost": "49746",
						"totalCost": "1170546"
					},
					"external": {
						"changeOpeningStatus()": "28879",
						"createProposal(string,string)": "infinite",
						"getProposalWinner()": "infinite",
						"isOpen()": "2583",
						"owner()": "2527",
						"proposalTitles(string)": "infinite",
						"proposals(uint256)": "infinite",
						"updateProposalBody(string,uint256)": "infinite",
						"voteProposal(uint256)": "infinite",
						"voted(address)": "2877"
					}
				},
				"methodIdentifiers": {
					"changeOpeningStatus()": "d8296ee8",
					"createProposal(string,string)": "65e481e2",
					"getProposalWinner()": "2f229ad6",
					"isOpen()": "47535d7b",
					"owner()": "8da5cb5b",
					"proposalTitles(string)": "f7504408",
					"proposals(uint256)": "013cf08b",
					"updateProposalBody(string,uint256)": "188d26ca",
					"voteProposal(uint256)": "807896d5",
					"voted(address)": "aec2ccae"
				}
			},
			"storageLayout": {
				"storage": [
					{
						"astId": 3,
						"contract": "voteSystem/voteSystem.sol:VoteSystem",
						"label": "owner",
						"offset": 0,
						"slot": "0",
						"type": "t_address"
					},
					{
						"astId": 5,
						"contract": "voteSystem/voteSystem.sol:VoteSystem",
						"label": "isOpen",
						"offset": 20,
						"slot": "0",
						"type": "t_bool"
					},
					{
						"astId": 16,
						"contract": "voteSystem/voteSystem.sol:VoteSystem",
						"label": "proposals",
						"offset": 0,
						"slot": "1",
						"type": "t_array(t_struct(Proposal)12_storage)dyn_storage"
					},
					{
						"astId": 20,
						"contract": "voteSystem/voteSystem.sol:VoteSystem",
						"label": "voted",
						"offset": 0,
						"slot": "2",
						"type": "t_mapping(t_address,t_bool)"
					},
					{
						"astId": 24,
						"contract": "voteSystem/voteSystem.sol:VoteSystem",
						"label": "proposalTitles",
						"offset": 0,
						"slot": "3",
						"type": "t_mapping(t_string_memory_ptr,t_bool)"
					}
				],
				"types": {
					"t_address": {
						"encoding": "inplace",
						"label": "address",
						"numberOfBytes": "20"
					},
					"t_array(t_struct(Proposal)12_storage)dyn_storage": {
						"base": "t_struct(Proposal)12_storage",
						"encoding": "dynamic_array",
						"label": "struct VoteSystem.Proposal[]",
						"numberOfBytes": "32"
					},
					"t_bool": {
						"encoding": "inplace",
						"label": "bool",
						"numberOfBytes": "1"
					},
					"t_mapping(t_address,t_bool)": {
						"encoding": "mapping",
						"key": "t_address",
						"label": "mapping(address => bool)",
						"numberOfBytes": "32",
						"value": "t_bool"
					},
					"t_mapping(t_string_memory_ptr,t_bool)": {
						"encoding": "mapping",
						"key": "t_string_memory_ptr",
						"label": "mapping(string => bool)",
						"numberOfBytes": "32",
						"value": "t_bool"
					},
					"t_string_memory_ptr": {
						"encoding": "bytes",
						"label": "string",
						"numberOfBytes": "32"
					},
					"t_string_storage": {
						"encoding": "bytes",
						"label": "string",
						"numberOfBytes": "32"
					},
					"t_struct(Proposal)12_storage": {
						"encoding": "inplace",
						"label": "struct VoteSystem.Proposal",
						"members": [
							{
								"astId": 7,
								"contract": "voteSystem/voteSystem.sol:VoteSystem",
								"label": "title",
								"offset": 0,
								"slot": "0",
								"type": "t_string_storage"
							},
							{
								"astId": 9,
								"contract": "voteSystem/voteSystem.sol:VoteSystem",
								"label": "body",
								"offset": 0,
								"slot": "1",
								"type": "t_string_storage"
							},
							{
								"astId": 11,
								"contract": "voteSystem/voteSystem.sol:VoteSystem",
								"label": "voteCount",
								"offset": 0,
								"slot": "2",
								"type": "t_uint256"
							}
						],
						"numberOfBytes": "96"
					},
					"t_uint256": {
						"encoding": "inplace",
						"label": "uint256",
						"numberOfBytes": "32"
					}
				}
			},
			"userdoc": {
				"kind": "user",
				"methods": {},
				"version": 1
			}
		}
	}
}